:020000041000EA
:1000000000B5324B212058609868022188439860DF
:10001000D860186158612E4B002199600221596106
:100020000121F02299502B49196001219960352056
:1000300000F044F80222904214D00621196600F024
:1000400034F8196E01211966002018661A6600F04E
:100050002CF8196E196E196E052000F02FF8012189
:100060000842F9D1002199601B49196000215960AB
:100070001A491B48016001219960EB211966A021F2
:10008000196600F012F800219960164914480160C1
:100090000121996001BC002800D000471248134993
:1000A000086003C880F30888084703B5996A0420EC
:1000B0000142FBD001200142F8D103BD02B5186610
:1000C0001866FFF7F2FF186E186E02BD00000240BE
:1000D000000000180000070000035F00212200005C
:1000E000F4000018222000A00001001008ED00E03C
:1000F00000000000000000000000000074B24E7A12
:1001000000200420F7010010C3010010C5010010F9
:10011000C1010010C1010010C1010010C101001097
:10012000C1010010C1010010C1010010C701001081
:10013000C1010010C1010010C9010010CB01001065
:10014000CD010010CD010010CD010010CD01001037
:10015000CD010010CD010010CD010010CD01001027
:10016000CD010010CD010010CD010010CD01001017
:10017000CD010010CD010010CD010010CD01001007
:10018000CD010010CD010010CD010010CD010010F7
:10019000CD010010CD010010CD010010CD010010E7
:1001A000CD010010CD010010CD010010CD010010D7
:1001B000CD010010CD010010CD010010CD010010C7
:1001C00000BE00BE00BE00BE00BE00BEEFF3058054
:1001D000103800BEF2EB8871A8560010C45600100B
:1001E0003402001090A31AE700201F49086006C8D7
:1001F00081F3088810471D48006800282FD10DA4FE
:100200000ECC002902D000F012F8F9E71849194A7B
:10021000002000E001C19142FCD1174988471749ED
:1002200088471749884700BEFDE701C901C29A42C5
:10023000FBD37047C4560010C0000020902F002050
:100240009485001000000420000004209485001014
:10025000001004200010042000000000704709482E
:1002600002F01EFA0047000008ED00E0000000D098
:10027000902F002050400020092500105503001049
:100280000D2600105756000006005250ABB36053C5
:100290009454001006005250861C0302A45400100F
:1002A000060052505422A29DB8540010050052502E
:1002B000DE65F46894850010F8B5C0460448054B27
:1002C00010B5834203D0044B002B00D0984710BDDB
:1002D000902F0020902F00200000000006480749C2
:1002E000091A8B10C90FC91810B5491003D0044B57
:1002F000002B00D0984710BD902F0020902F002099
:100300000000000010B5074C2378002B09D1FFF73F
:10031000D5FF054B002B02D0044800E000BF0123AD
:10032000237010BD903100200000000088520010A2
:10033000054B10B5002B03D00449054800E000BF71
:10034000FFF7CCFF10BDC046000000009431002034
:1003500088520010F0B5DE4657464E464546E0B599
:1003600093B002F05DFE002002F0FCFF5C4B002B1E
:1003700001D000E000BF5B4B99465B4B9A466B4651
:10038000DC1D01200021404203F05AF801F036FC48
:10039000002900D19FE0FA220023920002F0F0F938
:1003A0004B4652461B681268C01A90420CD39B18E9
:1003B0004A4613604D4B187802F034FE01224B4B35
:1003C0001B785340494A137000260A233000984690
:1003D00000F060F9002808D10136F6B2032ED0D023
:1003E000300000F057F90028F6D04022300002A972
:1003F00000F060F90700002000F032F900281FD05B
:10040000002F1AD002ADAB46BB4402E001355D457A
:1004100013D02B78012223702100002000F0CCF9AA
:100420002B780D2BF2D143460122210000202370AE
:10043000013500F0C1F95D45EBD1002000F080F9F5
:10044000002000F00DF900281FD0002F1AD002ADB7
:10045000AB46BB4402E001355D4513D02B78012249
:1004600023702100012000F0A7F92B780D2BF2D189
:1004700043460122210001202370013500F09CF940
:100480005D45EBD1012000F05BF9002000F0E8F8B9
:100490000028A1D0002F1AD002ADAC46674402E07C
:1004A0000135AF4213D02B780122237021000220A6
:1004B00000F082F92B780D2BF2D143460122210066
:1004C00002202370013500F077F9AF42EBD1022012
:1004D00000F036F980E7FA21890002F013F95FE7AE
:1004E0000000000034400020880E00204E40002014
:1004F000FA22024B92001A607047C046880E002014
:10050000FA22014B1A607047880E0020014B024A04
:100510001A607047880E0020C409000010B502F070
:1005200011FF431E9841034B40421840024BFA30E2
:10053000186010BDEE020000880E002010B50029E2
:1005400001D0002A00D110BD21220249002000F074
:1005500033F9F8E7885200107047C046F0B5C64638
:1005600000B588B08C4602A998460B000E4C1700C7
:1005700024CC24C31D000D4C45CC45C322786046D5
:100580001A700B4B0722019302F0B8FB29000C22D2
:10059000380002F0B3FB0322404601A902F0AEFB93
:1005A00008B080BCB846F0BDAC520010B452001088
:1005B000312E3000074B10B51B7804000120002BB2
:1005C00000D110BD00233A220221200003F02EFEAC
:1005D0000020F6E74C40002010230B60F133FF337E
:1005E00013807047002B01D0002A01D001207047F2
:1005F000014B01321A70F9E74C400020180010B589
:100600000F2908D849028918044A8918029A02F069
:1006100075FB029810BD01204042FBE78C0E0020C4
:1006200001207047080010B519000F2808D84002B3
:100630008018054A8018029A02F060FB029810BDEB
:1006400001204042FBE7C0468C0E002010B500237D
:100650002022052103F0EAFD0120404210BDC046E2
:1006600010B5040002F06EFE002801D1002010BD7C
:1006700002F070FE0028F9D1A0000019C000044B60
:100680000019C0001818037901201840EFE7C04690
:10069000B0310020020083001B1810B5D80080186C
:1006A000034BC0001030C01804F018FB10BDC0464A
:1006B000B0310020F8B54746804685002C18E4008C
:1006C0004444CE46E400260080B51A4B1A4F10363B
:1006D000BE199A4200D9194A300092B204F082FB46
:1006E0008146300004F018FB3F2804D84846C0BCBF
:1006F000B946B046F8BD4544ED004544ED007D19CE
:100700000020E97803F03AFB0028EFD0300004F035
:1007100003FB3F2808D92200C8324023E978BA18E1
:10072000002003F053FBE1E7E978002003F03AFBF7
:10073000DCE7C046FEFF0000B0310020FFFF0000F4
:10074000F8B5050002F0FEFD002801D10020F8BD3B
:1007500002F000FE0028F9D1AB005B19DC0064193F
:10076000E4002500134E2435AD19280004F0B6FA34
:100770000028EBD037190020B97803F0FFFA0028E1
:10078000E4D00934FF34A41921002800402204F0E9
:1007900029FBB978051E08D003002200002003F0D1
:1007A00015FB0028D2D02800D1E7002003F0FAFA88
:1007B000CCE7C046B031002070B584002418E400B6
:1007C00024180C4BE4002434E4180B4B05009A4227
:1007D00000D90A4A200092B204F0BEFB06002000B5
:1007E00004F07CFA3F2801D8300070BD2800FFF7E4
:1007F000A7FFF9E7B0310020FEFF0000FFFF000077
:10080000F0B5CE464746F62280B51F4C00212000A9
:1008100083B0920002F06CFAF6239B009946FF2306
:10082000E12798460025A1447F02434621006371D9
:1008300020000823A760A373A58140223831073B1D
:100840001030009504F012FA260001232100200048
:10085000402278310093B836243004F007FA300093
:1008600000F04AFE26620836E561300000F044FEE2
:10087000266365634934FF344C45D6D103B0C0BC10
:10088000B946B046F0BDC046B0310020F62370B581
:100890000C4C9B00E61805220021200002F028FAEB
:1008A000250020002435103004F00AFC49342800CB
:1008B00004F006FCFF340121280004F021FCB442BE
:1008C000E9D170BDB0310020F0B54E46DE46574646
:1008D0004546E0B54B79060085B0022B11D18B79E6
:1008E000022B0ED1504FBB78002B00D18DE0A523F9
:1008F0005B00FB5C002B00D18DE04C4BFB5C002BC4
:1009000008D00025280005B0F0BCBB46B246A94679
:10091000A046F0BDA8239B009A46103B9B460223AD
:1009200099464B469B0098464B44DB0088784B44E5
:10093000DB00F8540C7809250C196378242B0BD1B3
:10094000082A02D80FE0AA420DD32378E418ED1844
:100950006378ADB2242BF6D0052B25D0042B02D121
:1009600063790A2B39D05346FE18300004F0D4F9CD
:100970003F28C7D944464C44E4004C44E4003C19A9
:100980000020E17803F0FAF90028BBD0300004F031
:10099000C3F93F281CD95A46C8324023E178BA1817
:1009A000002003F013FAADE72100300003F0CCF98A
:1009B0000028A6D043464B44DB004B44A278DB0022
:1009C000FB185A702378ED18E4186378ADB2C5E7C8
:1009D000E178002003F0E6F994E75A4623783000E6
:1009E0000393E118931CFB180193D31CFB1800938D
:1009F0000222022303F05AF9002800D181E7039B69
:100A00000E359C466544ADB2ADE710239A460023EF
:100A10009B46994685E7AC235B009A46103B9B4674
:100A2000483BFF3B99467CE7B03100209202000032
:100A3000F8B5602314001278050013400020202B25
:100A400011D1637922791B0213433A4A16789E42E8
:100A50000AD0A4267600965D9E4232D0A426B60027
:100A6000965D9E420DD0F8BD00266378222B3CD0C7
:100A700015D8202B2BD0212B27D1012907D00120DD
:100A8000F1E7A4239B009C4602266244EDE707237E
:100A900021002800083203F011FA0120E3E7232B9C
:100AA00013D101293FD00329E9D1234B002BE6D0F4
:100AB000E178A37809023000194300E000BF01206B
:100AC000D1E749320126FF32CFE70020CBE70129E9
:100AD000DDD00329D3D1194B002BD0D00832300000
:100AE000110000E000BF0120BDE701291BD0032950
:100AF000C5D101252F00A378E478023924021C43D4
:100B00001471274024321000794004F0F9FA0C4B9C
:100B1000002BB4D02A006408300039002240FFF7CF
:100B20000DFD01209FE72100280003F0AFF901200F
:100B300099E7C046B031002000000000000000002E
:100B40003D050010F0B54E464546DE465746E0B539
:100B5000774D87B001901E00EB780C008B4222D0BD
:100B6000AB788B4200D1C1E04C23FF33EB5C8B426E
:100B700000D1C0E0A5235B00EB5C8B4200D1BEE05E
:100B80006C4BEB5C8B4200D1BFE06B4BEB5C8B4260
:100B900000D1BEE00024200007B0F0BCBB46B24646
:100BA000A946A046F0BD002300279B46BB009946FE
:100BB000DB19DB00DB19DA000393130010339A46CC
:100BC000B833EB18AA44190090465046B2B20293CB
:100BD00004F0C2F9594B002B2DD041466B185B79BC
:100BE000FF2B28D0002E26D0029A8C4690462A0051
:100BF0002100C832921994444446049705968846C9
:100C00006646039F05E00134B44211D0FB00EB18A7
:100C10005B7922789A42F6D1504604F075F80028A4
:100C2000F1D1FB00EB185846597900E000BFEAE724
:100C30004446049F059E424B002B04D0504604F0CE
:100C400063F800286BD0504604F066F83F2819D9A5
:100C50004B46DB19DB00DB19DB009846A844434612
:100C60000020D97803F08AF800280BD0504604F011
:100C700053F84346D9783F2855D940230020029A9B
:100C800003F0A4F84B46DB19DB00DB19DB00EB18A3
:100C90009B78A34201D001247DE72A4B002B02D090
:100CA000584600E000BF5846FFF74AFD0028F2D141
:100CB0004B46DB19DB00DF19FF0038002430281811
:100CC00004F00CF80028E6D1002EE4D0B306E2D1FF
:100CD000EF19B978019803F051F8041EDBD0002316
:100CE0000022B978019803F071F854E70023002737
:100CF0009B469946C6E7012301279B4656E70123F9
:100D00009B46033301279946BCE7022302279B46F3
:100D10004CE702239B46063302279946B2E7584622
:100D2000FFF71AFC8FE7002003F03CF8AAE7C04663
:100D3000B031002093020000920200000000000089
:100D40005905001000000000004870470C530010C7
:100D50000048704720530010F0B5DE4657464E4617
:100D60004546E0B58DB000282DD0032837D00528A2
:100D700000D983E0454B8000C558280004F0E4F911
:100D80000400202800D977E0002800D178E0404B0B
:100D900098469A1C0023E95C0133118002329C4280
:100DA000F9D8C02301349B0064001C43A3B2039311
:100DB00043464046039A1A800DB0F0BCBB46B2468B
:100DC000A946A046F0BD324B0222981C98462F4BF4
:100DD000196801F093FFC1239B000393E8E72D4BB3
:100DE000002B3FD004AD1021280002F007F9844603
:100DF000102801D910239C46002841D063469A0050
:100E0000C02302329B0013439BB203930F220026A0
:100E100091461F4B019698469C1C009508AB180004
:100E20001D4F62CF62C04D46396802900160009943
:100E3000194E087805405D5D834665801D0007CE2C
:100E400007C53D68029A15605A461111595C019A0E
:100E500021800099013201310192009104346245F0
:100E6000DDD3A5E70D4B0E4A04AD049205930D4B5F
:100E7000039308239C46C9E7202485E700209BE7CD
:100E8000094B0393024B984692E7C0468C2E0020F4
:100E90009C350020FD2F0010C452001089ABCDEF0F
:100EA000012345672203000002030000024B18687B
:100EB0008007C00F7047C04600C0064070B5EFF312
:100EC000108C72B60D4D2B68002BFCD0BFF35F8FDA
:100ED0000724CB08C618C05C01230C40A3401C00AB
:100EE0000440034207D103433370BFF35F8F2C608C
:100EF0008CF3108870BD100001F08CFB2C0100D029
:100F0000F8B54746CE46884680B5EFF3108C72B6EA
:100F1000214D2C68002CFCD0BFF35F8F9A422CD857
:100F2000D4080727055D061901241740BC402C4250
:100F30001FD007210127894609E0D408055D06195D
:100F40004C4639001440A1400C00294211D0013216
:100F50009342F2D201204042BFF35F8F00220E4B3A
:100F60001A608CF3108800280FDBC0BCB946B0466D
:100F7000F8BD2C4310003470EEE7BFF35F8F002301
:100F80002B608CF31088012040424346002BECD0AC
:100F9000089801F03FFBC0462C0100D00021044B13
:100FA000044ABFF35F8F02C39342FAD17047C04631
:100FB000000100D0800100D0044A1078431CDBB24D
:100FC000172B00D9102313707047C046A42E0020A1
:100FD00000B5054B83B00100009318221F2303487E
:100FE000FFF78EFF03B000BD08540010943A0020B4
:100FF00001238340002904D0034A1360034A13608D
:101000007047034A1360FBE780E200E000E100E084
:1010100080E100E0024B10309B688000C0587047B0
:1010200000ED00E070B50D00EFF3108672B60F4AC8
:101030001368002BFCD0BFF35F8F0D4B10309B6803
:1010400084001B590B4A934203D09D4201D001F00A
:10105000F9FA074B9B681D51BFF35F8FBFF35F8F9A
:101060000022024B1A6086F3108870BD240100D064
:1010700000ED00E0CD010010F0B557464E46DE46CB
:101080004546E0B585B0060002911700EFF3108BDE
:1010900072B6674A1368002BFCD0BFF35F8F002540
:1010A000644B5D579A46002D00DAA4E06B00624C59
:1010B00003935B199B009846A146C1444B46524698
:1010C0009B79103613705D4BB2009B680192995862
:1010D0000B1B2F2B34D95A4B994200D0A4E0039B11
:1010E000584A9C46584B6544AD006353434602330F
:1010F0006519E418554B0121043B1B1B1B055B0DB7
:1011000013436B80524BEF71AB80FF23AB71029B9B
:10111000AB604B460B431900484B019A9B689950B2
:10112000BFF35F8FBFF35F8F0022414B1A608BF3D9
:10113000108805B0F0BCBB46B246A946A046F0BD3B
:1011400001200A008243D379BB422FD845464E4640
:10115000130040491B1B5B415943090D3A4B635334
:101160003A4B02356519043B5B1B1B05354D5B0D86
:101170002B4373800426B446E0444444131F1B1BD6
:101180004C46A17102991B05A16049465B0D2B439A
:10119000A380314BE77101431360BDE75800C018CD
:1011A00080002018C679BE422BD902000623D356F0
:1011B000002BF3DA101D824628488046042676422A
:1011C000B446E14450464E46361A3005400D82463C
:1011D00056461C48957106439680039A944665448A
:1011E0001D4AAD00641922604246A371029BA28091
:1011F000E771A36090E701F025FA002553465D579B
:1012000054E7101D824690884005001584464046EC
:10121000D444664604302018301AE0260005400DFC
:10122000360230438046C9E701F00CFA57E7C04662
:10123000240100D04D400020A82E002000ED00E049
:10124000CD01001000E0FFFF00A1FFFFD82E00201D
:1012500001BDFFFFAAAA00000148804701BD0000B0
:10126000F0B5DE4657464E464546E0B50C0083B025
:10127000EFF3108972B6584A1368002BFCD0BFF305
:101280005F8F564B9A68030010339F00D559544A1C
:101290009046954232D0A54243D0524EAA1B2F2AE7
:1012A0002CD801228240924651464F4A1268114082
:1012B000019151464D4A1160BFF35F8FEFF30582F4
:1012C0009346002A33D101232A009A4393689C4213
:1012D00008D177E04B005B189B00F3189968A14296
:1012E0002AD01A00062151560029F3DA019B002B5F
:1012F00019D052463E4B1A603B4B1A60374B9B68E5
:10130000DD51BFF35F8FBFF35F8F0022324B1A6056
:1013100089F3108803B0F0BCBB46B246A946A0468C
:10132000F0BD1500EAE75246304B1A60E6E79342FB
:10133000C9D001F087F9C6E706215956002921DBFB
:101340004A005018800034188046A0689860E07900
:10135000D871062020569871002824DBA488F01A42
:101360006405241544440019E0240005400D2402BE
:101370002043988052181F4B9200B6181A781970A3
:10138000B271B3E7594600290FD1FF3191711A4963
:10139000918018490A789A71184A9B1B5B415A43FD
:1013A000120D0A70A2E71648E3E7164A1649D21A48
:1013B000083A5002400D01439980144952080A43EB
:1013C000DA8093E70621515613000029B8DA5A460D
:1013D000002AEAD14546DCE7240100D000ED00E018
:1013E000CD010010A82E002000E100E080E100E027
:1013F00080E200E04D40002001BDFFFFAAAA0000EE
:1014000001BD0000E22E002000F0FFFF00F8FFFF0A
:1014100070B5EFF3058101240443EFF3108C72B62D
:10142000214A1368002BFCD0BFF35F8F1F4B0500D0
:101430001F4AED1A6D416A43120D1E4D8900AE68B8
:1014400052B27658A6421CD00621595691421CD061
:1014500012215956914222D01E215956914220D034
:101460002A2159560324914210D0134B19781A702F
:101470008171BFF35F8F00220B4B1A608CF31088D1
:1014800070BDAB680D4C5C50EFE70024610009199A
:1014900089005B18FF21997109499980E5E70124CA
:1014A000F4E70224F2E7C046240100D0A82E002071
:1014B000AAAA000000ED00E04D400020CD01001080
:1014C00001BDFFFF054B064A1360064A13605360D7
:1014D0009360D36013615361936170478080808013
:1014E00000E400E004E400E0024B9C466144890013
:1014F000016070474000003410B50400FFF75CFD48
:1015000001002000FFF7F0FFFF232371BFF35F8F7F
:1015100010BDC04610B50400FFF74EFD01002000CD
:10152000FFF7E2FFFF23A380BFF35F8F10BDC0462C
:1015300010B504000120FFF74BFD044B9C466044AE
:1015400080002060BFF35F8F10BDC04640000034B4
:1015500083680B4810B58446614462440901120156
:101560009A18591854684B6801209C4201D802D03F
:101570000020C0B210BD12680B689A42F9D8F7E794
:10158000FFFFFF0F0A4B1968EFF3108072B60A686D
:10159000002AFCD0BFF35F8F1B68BFF35F8F002270
:1015A0001A6080F3108840BF002000217047C046B9
:1015B00030400020F8B557464E464546DE46E0B579
:1015C00099460CAB1C780DAB1B78060090469A46EA
:1015D0000768002C11D1BC7B002C42D065003B6811
:1015E0002D19033D59194B78BB73002B00D1FB73A8
:1015F00000238B704B700B7004E065003B682D1965
:10160000033D5919B2682A4B94464246E3181B0120
:1016100063441A604A465A600A9A9A600B9ADA60E2
:1016200000238B704B700B707B7B9B46002B2BD069
:1016300022005946B8687B6898473A68002816D057
:101640005B4658465B005B445519033BA870D118B4
:10165000D35C002B00D06B705B460C707B73A34592
:1016600013D0F0BCBB46B246A946A046F8BD5B46C7
:101670005B005B44033BD3189C705119525D002AF8
:1016800000D05A705B460B707C7342464B46307DEF
:1016900000F004FB051E06D05346002B03D12100A9
:1016A000306800F01FFD0E9B002BDAD01D70D8E7CC
:1016B000FFFFFF0FF0B5DE4657464E464546002376
:1016C000E0B58BB00893674B8200D45800239B464B
:1016D000099000F093FA626806000F00EFF310859E
:1016E00072B61368002BFCD0BFF35F8F23689C4653
:1016F0005B7B9946002B00D169E0A2685A4B90466B
:101700004B441B01984443461A685B68100019005B
:10171000801BB941002900DC63E0099800F0BEFAA3
:1017200000230022984600230692079300239A463E
:101730006368BFF35F8F5A461A6085F3108853467B
:10174000002B08D10028C4D10BB0F0BCBB46B24678
:10175000A946A046F0BD089B414618024B461843D7
:10176000D047626806000F00EFF3108572B6136869
:10177000002BFCD0BFF35F8F002F50DB33003B43C7
:1017800002D02369002B61D12368D97B002907D0BF
:101790004A00521819688C4649466244033A51700F
:1017A0009A7B002A01D14A469A734A46DA734B461D
:1017B000E168013BCA5C0132CA545B46236163683D
:1017C000BFF35F8F5A461A6085F3108881E70023C4
:1017D00000229846002306920793002300209A4691
:1017E000A6E7002902D1002800D096E70021604634
:1017F00000F0F6FB43461A685B680692079343467F
:101800009B689A464346DB689846E3684B44013B35
:101810001B7808931B0203432361002088E7236998
:10182000002BB1D0069A079B921BBB41002B15DB06
:101830005946049101210391494602914146019183
:10184000514620000091FFF7B5FEB6E700F0D6F94B
:1018500032003B0012184B41002BE9DA0122034B06
:101860005242E5E7143F0020FFFFFF0FFFFFFF7F1D
:1018700010B5144C6368002B04D00A211248FFF7FE
:1018800033FE10BD2300114A1021206800F0C2FA77
:10189000032000F0A7F9032000F06AFA03200C49A6
:1018A00000F0B6F9FFF788FB0A4B9C46032323752B
:1018B000D0231B061B6860446375074B8000606083
:1018C000DC60DAE7F02E00203040002051150010D7
:1018D000B516001040000034143F0020F0B54E460D
:1018E0004546DE465746E0B585B0019310AB1B7800
:1018F0000600039300239946984600927268EFF31E
:10190000108B72B61368002BFCD0BFF35F8F356865
:10191000AC7B002C3DD067002B683F19033FDB19DF
:101920005A78AA73002A00D1EA73B168474A8C46F4
:1019300000980199A21812016244106051600E993A
:1019400091600F99D16042469A705A701A706B7B01
:101950009A46002B67D022001900A8686B68984748
:101960002A68002852D0534650465B005344D7198A
:10197000033BB870D118D35C002B00D07B7053466A
:101980000C706B7354454FD0F3681B19013B1878EA
:1019900000E000207368BFF35F8F42461A608BF34C
:1019A0001088002C4FD04B46002B08D1000220435A
:1019B00005B0F0BCBB46B246A946A046F0BD039BAD
:1019C000002B3ED00E9B00200F9998470300040087
:1019D0000D000B4335D000290ADA009A019B121B37
:1019E000AB4100920193002B0ADB039B994685E7EC
:1019F00000F004F924184D4100940195002DF4DA0B
:101A00000123134C5B4200930194EEE753465B00C5
:101A10005344033BD3189C70D119D25D002A00D0E7
:101A20005A7053460B706C73307D009A019B00F026
:101A300035F981460028A7D02100306800F052FB1C
:101A4000A2E70020B4E701204042B1E7FFFFFF0F0B
:101A5000FFFFFF7FF0B5EFF30583CE46474680B525
:101A600005000C0085B0002B12D02C4A0020536AD0
:101A70009C4203D8926A0130AA4204D305B0C0BC8C
:101A8000B946B046F0BDE01A421E9041C0B2F5E73B
:101A9000234E02930193234B0200009330000B006E
:101AA000FFF71CFF031EE0DD20BF7168EFF3108716
:101AB00072B60A68002AFCD0BFF35F8FDAB2944690
:101AC0003068427B62451DD0FF221A405100894692
:101AD0000168914488464946414403398978002980
:101AE00013D0F1681B0A88464244013A1278DBB2EF
:101AF0009A420FD07368BFF35F8F00221A6087F39A
:101B00001088B2E7FF221A40EBE732699342F1D125
:101B10003161EFE7614600F0E5FAEBE70040054090
:101B2000F02E002085150010F0B5EFF30582D646A3
:101B30004F4646461000C0B51038EFF3108872B615
:101B4000214C2368002BFCD0BFF35F8F01231900C9
:101B500081401E4D1F006963AA461D4D29601D4D21
:101B60002E78AC463500C5402F402B4209D1BFF33B
:101B70005F8F276088F31088E0BCBA46B146A8465C
:101B8000F0BD5346144D5F6A83005D59AF420ED3DA
:101B9000124A8E439B5862461670BFF35F8F002235
:101BA000226088F31088002BE6D09847E4E70C4BBE
:101BB00092009C46624413681360BFF35F8F00235A
:101BC000236088F31088D7E7280100D00040054043
:101BD0003C7005404F4000203840002084390020F0
:101BE000D03F054010B50100024A0348FFF766F9EF
:101BF00010BDC046245400104B400020034B596ACE
:101C00000A00986A596A8A42FAD170470040054032
:101C100070B504000D00EFF3108672B61A4A13680F
:101C2000002BFCD0BFF35F8F002D1BD02000FFF7EF
:101C3000F1F9164981420AD02000FFF7F3F901219A
:101C40002000FFF7D5F90123A340114A1360114B7F
:101C5000A400E550BFF35F8F00220B4B1A6086F3A0
:101C6000108870BD0B4BA200D5500122A2400A493A
:101C700020000B7893430B700449FFF7F1FA002121
:101C80002000FFF7B5F9E5E7280100D0291B001077
:101C900038600540843900204F400020F0B54F46A1
:101CA000D6464646C0B507002C4C616A0D00A66AB0
:101CB000616AA942FAD18B4208D805D00120E0BC64
:101CC000BA46B146A846F0BDB242F7D9EFF3108A42
:101CD00072B6234801680029FCD0BFF35F8F01254D
:101CE000BD4020491D4C8846097889462943C9B220
:101CF0008C46414660460870391D1B488900656363
:101D00000A51B9000B50216A0020294219D0616A9A
:101D10000800A66A616A8142FAD18B4219D801D1C2
:101D2000B24216D8CC4516D00C4B1F201D625D6305
:101D300001230740BB400D4A1E38136043464A4604
:101D40001A70BFF35F8F0022054B1A608AF3108868
:101D5000B5E70020F5E70120F3E7C0460040054065
:101D6000280100D04F4000203840002080E200E0F1
:101D7000EFF3108C72B60A490B68002BFCD0BFF34E
:101D80005F8F01238340074A0748136202789A4312
:101D90000270BFF35F8F00230B608CF310887047D5
:101DA000280100D0004005404F40002070B50500DC
:101DB00014001600002915D00C00002A12D08068EB
:101DC0006B689847296800280ED073009B19620041
:101DD000033B1219CB18033A9C7088188A5C002ABE
:101DE00015D10670200070BD63001B197200033B03
:101DF0009219CB18033A9E7088188A5C002A02D187
:101E000004703400EEE75A7004703400EAE75A7048
:101E10000670E7E730B583600023CCB2437301332B
:101E2000047342608373C4730D000068012C06D9EB
:101E3000421C0133DBB2137003329C42F9D1FF2103
:101E400029404B005918002340180338437030BD17
:101E5000F8B5CE46474606000C0080B5002907D0ED
:101E60004D0003686D18033D5A195778002F04D1AF
:101E70002000C0BCB946B046F8BD7900C919033985
:101E800088464344597889460021597051707368D7
:101E90003A002100806898473368002814D04246F1
:101EA0009A18947059195B5D002B00D053700F7015
:101EB000270049463000FFF7CBFF39000200300011
:101EC000FFF774FF0400D3E7424641465D19AF7047
:101ED0009A185B5C002B00D06B701470E9E7C04669
:101EE000F0B557464546DE464E46E0B50D006B0060
:101EF00001685B19DF1E0400C85D83B00192CA1936
:101F0000002850D043001B18033BCB185E78B44622
:101F1000002E1AD1019E002E42D0E67B002E04D066
:101F200073009B19CB18033B5D70A37B002B00D182
:101F3000A573E57300282FD10023537003B0F0BCC4
:101F4000BB46B246A946A046F0BD72006244033AC1
:101F500089184A78904600224A7091465A700100CA
:101F600032002000FFF722FF43468246002B07D0B5
:101F70005B0021684344033BCB185A78002A16D1F2
:101F8000424651462000FFF711FF2168019BCA1904
:101F9000002BC2D10028CFD043001B18033BCB1825
:101FA00000219970C8E7019B002BB6D1C4E750000F
:101FB0008018033809184878834648464870587096
:101FC00041462000FFF7F2FE594680462000FFF709
:101FD0003FFF414602002000FFF7E8FE8046CFE7C2
:101FE000F0B557464546DE464E46E0B583B0019112
:101FF000457B04006B0000685B19DF1EC15DC219E0
:10200000002952D04B005B18033BC3185E78B446DE
:10201000002E1CD1019E002E44D0E67B002E04D061
:1020200073009B19C318033B5D70A37B002B00D189
:10203000A573E573002931D1002328005370617323
:1020400003B0F0BCBB46B246A946A046F0BD720044
:102050006244033A801842789046002242709146CA
:102060005A7020003200FFF7A1FE43468246002B43
:1020700007D05B0021684344033BCB185A78002A01
:1020800017D1424651462000FFF790FE019B010008
:102090002068C219002BC0D10029CDD04B005B189D
:1020A000033BC31800209870C6E7019B002BB4D1F6
:1020B000C2E750008018033809184878834648461C
:1020C0004870587041462000FFF770FE5946804620
:1020D0002000FFF7BDFE414602002000FFF766FE2C
:1020E0008046CEE770B5040000292CD0437B8B429C
:1020F0002ED0056848004018033828188278002A36
:1021000021D053009B18033BEA5CEE188A4202D1AF
:102110001BE0002A08D053009B18033BEB185A78A9
:102120008A42F6D142785A700023012283704370AC
:102130002000FFF7D5FE617B02002000FFF736FE8E
:102140006073012000E0002070BD43783370EBE73E
:1021500001221900FFF7C4FE60730120F4E7C046B6
:1021600030B50C2083B000F0B3F9FEF79FFE0028D5
:102170000ED0994B994A1A605A609A60DA601A61D7
:102180005A619A61DA611A62954A5A6203B030BDA7
:10219000944CA06700F0A4F90122934B1A60636C81
:1021A000012BFCD10322914B1A608E4A936B012BB9
:1021B000FCD1013301218E4A8E480093043300F094
:1021C00037F905238C4A009301218C4800F030F93F
:1021D0008B4B5A68FF2A02D8802252005A60802214
:1021E0007D4C824B21691201854D1A60002907D070
:1021F000606900F087FA431C5800C0180338FDD20C
:10220000E0217F4B02201A681140802252012A43AC
:1022100011601968484003210140116004219A6847
:102220001142FCD08022802192012A4309011160D1
:10223000802252005A60734B2361734B5968FF2907
:1022400000D85A600321684A6F4B116002399A68BE
:102250001142FCD0E0201A681040802252011A433B
:10226000106018684840032101400220116066494F
:102270008A681042FCD0802292011343802212010E
:102280001A608022614B52004A606361604B59685A
:10229000FF2900D85A6080225E4BE16912015C4D33
:1022A0001A60002907D0606900F02CFA431C58001E
:1022B000C0180338FDD2E02255490B681A4080232C
:1022C0005B012B431A60802380229B012B43120168
:1022D0001A608022414B52004A60E3614E4B5968BC
:1022E000FF2900D85A6080224C4B216A12014A4DC6
:1022F0001A60002907D0606900F004FA431C5800F6
:10230000C0180338FDD2E02243490B681A408023ED
:102310005B012B431A60802380229B012B43120117
:102320001A60802380225B004B602C4BD202236218
:102330003B4B5968914200D25A608022394B616A06
:102340001201374D1A60002907D0606900F0DAF9F0
:10235000431C5800C0180338FDD2E02230490B68F6
:102360001A4080235B012B431A60802380229B014B
:102370002B4312011A608023DB024B60184B63620F
:10238000294B5A68FF2A02D8802252005A608022C4
:10239000264BA1691201244D1A60002907D06069FB
:1023A00000F0B0F9431C5800C0180338FDD2E022F9
:1023B0001D490B681A4080235B012B431A60802360
:1023C00080229B012B4312011A6080235B004B602B
:1023D0000E4BA361DAE6C046983A0020006CDC029E
:1023E0001BB70000008000403CB0004030B000400F
:1023F000002F685900800240008C864700C00240D0
:1024000030800040001BB7003C80004040597307FB
:102410005480004054B000406080004060B00040F4
:102420006C8000406CB000404880004048B00040E4
:10243000F8B5040021481D0017000E0000F062F9F5
:102440000100380000F05EF9069B29041B031943C4
:102450002368002B20DB1A4B1A4DE21853425A41D5
:1024600080235B019C461203174B62441A60174B92
:102470001A601700AB689F43FBD1C022231D920155
:102480001A4321232660A06013602368002BFCDA26
:102490000823E1601360F8BD3F2322681340B34274
:1024A000D9D1A3681B051B0D8342D4D1EE22E3686A
:1024B000D20213408B42CED1EDE7C046001BB700DD
:1024C0000040FDBF00C0004000E0004000F00040C0
:1024D0008023024A9B000343D3627047008005407B
:1024E000AA23064A1B0113602F230549D360054B1D
:1024F00019605368002BFCDA7047C0460040024068
:1025000000B0FA00006002402C4B2D4A70B51A60F2
:102510002C4A2D4B2D491A6014008B689C43FBD12B
:102520002B4D2C4EB54208D2013E761BB60808CD85
:10253000984723000134B342F9D1FFF711FE264A30
:10254000214B1A60214A9368DB43DB01DD09002B34
:10255000F9D14022214B224C224E9A675A671A67C2
:10256000DA66B44208D223682000002B20D0083459
:10257000FEF7D0FFB442F6D31B4E1C4CC022A1681C
:10258000300000F0BBFBA660FEF708FDFEF79AFFE7
:10259000FFF76EF9164C174EB44208D2013E361BB7
:1025A000B60808CC98472B0001359E42F9D170BD82
:1025B0000834FEF7A1FFB442D5D3DDE700E00040C8
:1025C000BFCDFBFEFE7F3C0000F0004000C000409D
:1025D000782F0020882F0020FFFFFF0100F001402E
:1025E000682F0020782F00200000002000ED00E080
:1025F000882F0020902F002010B5034800F050F8DD
:1026000000210300002098475542000010B5FFF755
:10261000F3FFC0460FB400B5084883B000F0A0FC3B
:10262000049B002B07D005A91800019100F018F8B1
:10263000034800F095FC0120FFF7DEFF485400102E
:10264000A852001010B50148FFF7E4FF58540010DD
:1026500010B5002800D110BD00F036FCFBE7C046E5
:1026600010B5094A0300146884B0002C08D0012278
:1026700000910648524203A9A047012004B010BDB2
:1026800000F06EFC0020F9E70C3F002051260010FE
:1026900001480421014B1847202F0020C1260010BB
:1026A000142310B50100188804331B88984710BD07
:1026B000162310B50100188802331B88984710BDF7
:1026C000F8B54746CE4680B50F1E19D0142399465B
:1026D000043304000025012698464B4618884346DB
:1026E00021681B88984701C4431E98410135404228
:1026F0000640AF42F1D13000C0BCB946B046F8BD8B
:102700000126F8E7114A936F9B0813D210665166B1
:10271000002905D0FFE7FFE7FFE7516F106F704713
:1027200004B5002801D00020C04302F065FD00215F
:1027300004BDC046F0B5146E556E576F166FFFF7A7
:10274000E5FF1466556657671667F0BD000000D0B8
:1027500094464A4A926F9208624601D228E0C046E7
:10276000F0B5464E346E756E776F366F00F020F818
:102770009446424A14665566576716676246F0BD2E
:1027800094463E4A926F9208624601D254E0C04697
:10279000F0B53A4E346E756E776F366F00F04CF8C8
:1027A0009446364A14665566576716676246F0BD0A
:1027B000002B24DB11D000293EDA00B5C94340428A
:1027C00000D1013100F038F8C943404200D1013155
:1027D000DB43524200D1013300BD002AEBD1002877
:1027E00001D1002905D00020C90FC90701D1C0437C
:1027F000410800B502F0E8FC0022002300BD00B54E
:1028000000290ADBDB43524200D1013300F014F807
:10281000C943404200D1013100BDC943404200D10B
:102820000131DB43524200D1013300F005F8DB43B4
:10283000524200D1013300BD002923D1002B18D111
:10284000002A0CD0BC460D4F38667A660021002362
:10285000FFE7FFE7FFE77A6F386F674670470028AA
:1028600001D00748010000B502F0AEFC00220023B1
:1028700000BD02000B00002000217047000000D0C6
:10288000FFFFFFFF002B00D0BFE0130C28D1002A70
:10289000E7D080B4114F39667A66FFE7FFE730B4BE
:1028A000040C7B6F396F1B0423433B667A66FFE79A
:1028B000FFE7FFE7C04684B27B6F3D6F1B042343F5
:1028C0003B667A66FFE7FFE7C04600232C042D0C29
:1028D0007A6F386F00196941B0BC7047000000D0B2
:1028E000F0B594460025140E01D112020835140FDC
:1028F00001D112010435940F01D192000235D40F99
:1029000001D152000135D40B0134254F7C66254C92
:102910003C660E0C93B2FFE7FFE7FFE73C6F6643B0
:10292000360C7703BE467343DF0B5B04C01AB94114
:10293000130C7343DB18C91ACE086643360CB64431
:1029400093B273431F0F1B01C01AB941130C734399
:102950001F0B1B05C01AB941860D8F023E4366430B
:10296000360C092D24DB520A7243801A7703460A7B
:102970006643360C16235B1BDE40DF40BF196446FE
:102980006643821B7046043506330100D940A840D7
:10299000C01900D30131A24206D20023F0BD0000CD
:1029A000000000D0FFFFFFFF121B0130F3D3F1E75F
:1029B00009277F1BFE406446A2B27243801A00D2F0
:1029C0000139220C7243130C1204821A99410B0034
:1029D0007046043513370100F940A840801900D330
:1029E0000131002B02D1A2420AD2F0BD013000D346
:1029F0000131121BFAD2013BF8D1A24200D2F0BD44
:102A0000013000D30131121BF7E7F0B51C0C00D0E8
:102A100080E00CB400251C0A04D11B02160E3343BF
:102A2000120208351C0B04D11B01160F334312018F
:102A300004359C0B04D19B00960F33439200023562
:102A4000DC0B02D192185B4101351C0097186441E0
:102A50000134464F7C66464C3C660E0CFFE7FFE7B0
:102A6000FFE7C0463C6F6643360C7703BE4697B21D
:102A70007743C01B00D20139C01B00D201399FB27D
:102A80007743C91BC91B170C77437E04FF0B801BC0
:102A9000B941CE086643360C0C2D33DBB644120B1D
:102AA0001F053A431B0B97B27743C01B00D2013975
:102AB0009FB27743C91B170C77433E043F0C801B22
:102AC000B941860D8F023E43664329277F1BFE4096
:102AD0000C3D7746AF40BF1930BCA2B2ABB27243D7
:102AE0007343801A9941220C7243130C1204801A0A
:102AF000994102000B000137001BA941F9D2781E51
:102B00000021F0BD0C277F1BFE4077467F0BAF40B6
:102B1000FF19E0E700245D1C07D0144F7D6639667D
:102B2000FFE7FFE7FFE7FFE73C6F95B29EB2654323
:102B30006643401BB141150C1E0C654366433604C9
:102B40002F0C3E432D04401BB141994204D2020098
:102B50000B0020000021F0BD01D19042F7D3801A74
:102B6000994101349942F2D3F6E70000000000D009
:102B7000FFFFFFFF10B50148FFF74CFD6454001044
:102B8000132370B51D78012D11D035DD1C48FFF7DA
:102B90008FFD1C4C01008022200000F0AFF8022DB8
:102BA00027D01948FFF77CFD184B186070BD184BF3
:102BB000144C23606360A360E36023616361A361DD
:102BC000E36123626362A362E36223636363A363DB
:102BD000E36323646364A364E36423656365A365BB
:102BE000E36523666366A366E36623676367A3679B
:102BF000E367084BA364D4E7024C064BA364D0E719
:102C000053440000903000204C3300002C3F002043
:102C1000752B0010192C001007B5604601880A0AB0
:102C20000230DF2AFAD1C9B2820804D30288408870
:102C30000004104300E00068014A5050039007BDB3
:102C40009030002051434343C9188C46110C83B285
:102C50004B4310B4040C614392B280B250436243C0
:102C60001C041B0C001910BC59411304120CC01891
:102C7000514161447047000010B50148FFF7CAFC9C
:102C8000D4520010132310B510481C78FFF710FD24
:102C90000100012C0AD003DD80220D4800F02EF83F
:102CA0000C48FFF7FDFC0C4B186010BD084C54227B
:102CB000200000F023F82300084A8033216800290F
:102CC00000D122600434A342F8D1E9E75346000062
:102CD000303F00204C3300002C3F0020792C0010A6
:102CE00001480421014B1847302F0020C126001055
:102CF000014B1B6818470000302F0020014B5B6818
:102D000018470000302F0020030010B50800110004
:102D10001B68984710BDC046F0B546464F46D6469C
:102D2000C0B5437D80460E001700002B46D0002A18
:102D30003FDD4B1E9946244B0125002400209A4676
:102D40000DE04B461B5D0D3B5A425341325DDBB2F9
:102D50000A2A0BD02B00013401359F421ADD002CCA
:102D6000EFD14346325D1B7D0A2AF3D1002BF1D10E
:102D7000A04204DA4346211A1B683018984743469C
:102D800050461B6802219847013428002B0001356A
:102D90009F42E4DC874204DD4346391A1B68301841
:102DA0009847F619013E33780D3B5A42534142464B
:102DB0001375E0BCBA46B146A846F0BD03681100E1
:102DC00030009847F5E7C046E8540010F0B5DE46FD
:102DD00057464E464546E0B585B017001C00060034
:102DE0000D00FEF70BFF0023304A12184B41002B59
:102DF00058DB2F4908008A4602F01EFA01906B1C2E
:102E000003D1300002F0A0F90500002C25D1294B98
:102E10009846294B1C68002C15D0002F20D1274F35
:102E200002E02469002C0ED02368002BF9D03B6807
:102E3000002B01D0A342F4D120002A003100C0476A
:102E40002469002CF0D1019B002B27D105B0F0BCE8
:102E5000BB46B246A946A046F0BD194B9846D8E7F6
:102E6000164B994602ABDF1D0A239B4602E02469FC
:102E7000002CE8D02368002BF9D04B461B68002BB0
:102E800001D0A342F3D12A0031002000C0475B46A5
:102E90000122390020003B70C047E8E7504602F0AD
:102EA0008BF9D3E70122074B5242A2E740420F00C1
:102EB000702F0020192D0010003B0020083B00203F
:102EC000092D0010FFFFFF7FF0B5CE46474680B5C5
:102ED00083B06B460600DD1D2870FEF78FFE0023D1
:102EE0001A4A12184B41002B2BDB1949080088465F
:102EF00002F0A2F9174B81461C68002C14D0164F23
:102F000002E02469002C0FD02368002BF9D03B6825
:102F1000002B01D0A342F4D1200001222900FFF7A9
:102F2000FBFE2469002CEFD14B46002B05D130006D
:102F300003B0C0BCB946B046F0BD404602F03CF913
:102F4000F5E70122054B5242CFE7C04640420F0051
:102F5000702F0020003B0020083B0020FFFFFF7F78
:102F600070B5040002F0F0F8002301000500012212
:102F70002000FFF72BFF084B1C68002C06D063686D
:102F8000002B05D098472469002CF8D1280070BD8B
:102F90002469002CF3D1F9E7003B002010B502486A
:102FA00000F00CF810BDC046243F002010B50822E8
:102FB0000149FFF7A3FE10BD243F002030B50025D6
:102FC00089B004000922002101A80095FFF790FEB6
:102FD0000922002105A80495FFF78AFE4B236A46C3
:102FE0006846137004A90D2202F0DEF815210822AC
:102FF00020006944FFF782FE09B030BD30B583B0D0
:10300000050068460C00FFF7D1FF072C00D9082403
:10301000220069462800FFF771FE200003B030BD92
:103020007047C0467047C04610B501210520FDF726
:10303000DFFF10BD10B500220021024800F05AF950
:1030400010BDC0462C3B00208022024B5202DA64A5
:103050007047C04600201150F0B5C64600B50600C6
:1030600000F022F90C231B4DFF22AB6705201A4903
:10307000FEF702F840239846184C40220021200019
:10308000FFF736FE43460127238321210023144AFC
:103090006770A260136063545F3161844146218789
:1030A000053963540F4A10496360E260A1620B6006
:1030B0006362E26202F098F880239B052F64EB6460
:1030C00090230A4A3000EA50FFF7BEFF80BCB846A2
:1030D000F0BDC04600001150B50400200C3B00209C
:1030E00084001050000110508000105010D00100DA
:1030F0000B785B0602D14B78052B00D070478A789D
:10310000014B1A60FAE7C04600001150F0B5C64600
:1031100000B54B790C791B0288782343CC787F214A
:10312000A4070140C509A20F4F001400324E7A19BE
:103130005201B218907001206840507000205B0569
:103140005B0DD0701383D4768046CA00012D33D036
:103150002A488446880162448446B44460468260BA
:1031600040461060002933D0254AC9009046624687
:10317000414451603F223F339343022C00D15B0016
:1031800020487A1901685201B218D1601E4ACB1842
:10319000036051405340802288465201934228D810
:1031A0004346A4061C4380237F197F011B06F619A2
:1031B0001C4373681C6011E0144884468801624413
:1031C0008446B4446046826240461060002909D1BA
:1031D00000236D01761973600D4BF360012080BCF4
:1031E000B846F0BD084AC900904662464144516263
:1031F000C0E7FFF727FAD3E70C3B0020840010500C
:1032000004001050103F00200000105080001050AB
:103210000001105010B501F0E7FF10BD10B57F2080
:103220000C0020404000E409110000191A00034B73
:103230004001C01800F05EF8012010BD0C3B0020DA
:103240007F22130010B50B400A420BD0C90980221F
:10325000580040180649400140181201002102F0B0
:1032600003F810BD02220348C909521A8266EEE72C
:103270000C3B0020002011507F22100010B50840A8
:103280000A4200D110BD0023C9094000401804497A
:103290004001081800220349C37001F0E5FFF1E77F
:1032A0000C3B0020FFF7FFFF80220D4B520410B5AE
:1032B0001A600C4B0C491A6010008B689843FBD1C4
:1032C0000A4C9C2200212000FFF712FD80220021E1
:1032D00052010748FFF70CFD0923636710BDC04684
:1032E00000E0004000F0004000C00040000011502D
:1032F0000000105070B5837E04000D001600002BF6
:1033000017D10023E38201332000A682A376256132
:1033100001F062FF002804D080219023084A89022E
:10332000D150200001F070FF002805D00123237741
:1033300070BD01F091FFE4E7200001F085FFF7E7A1
:1033400000201150024B5878431E9841C0B270477C
:1033500068380020024B18784007C00F7047C046FD
:1033600068380020F8B54746CE4680B52A4F06009B
:103370003B780120FF2B03D0C0BCB946B046F8BD56
:10338000532200212548FFF7B3FC254C2000FEF70F
:10339000B3F8244B1C60244C20001430FEF7C8F80E
:1033A000200001F08DFE214B214D1C60214B002B94
:1033B00004D0280000E000BF1F4B18601F49002404
:1033C00089461D49002288462B7811E04246126842
:1033D000630094461B19DB006344002B19D01B6863
:1033E00098472B780134E4B2591C2200A14207DB34
:1033F000A342EBD8D21A53009B18DB004B44EEE7F4
:1034000030003E70FFF728FE3000FFF70DFE012070
:10341000B2E70020B0E7C046642F002068380020E3
:1034200020380020BC380020482F0020C038002061
:103430004840002000000000AC310020E0550010A2
:10344000F0B5DE4657464E464546E0B5CC4B8DB00E
:103450009B461B78FF2B00D114E1CA4E09AC35689E
:103460006A69EFF3108172B61368002BFCD0BFF3CA
:103470005F8FA9612800210001F064FC6A69AB69D3
:10348000BFF35F8F0021116083F31088002800D103
:10349000F8E06378082BE2D8BB4A9B00D3589F46DC
:1034A0006368002BDBD0A0689847D8E77F23217999
:1034B000B64D0B405800CA092D18AD182A00012737
:1034C0003032D078B843D070D0780337B843D0705A
:1034D000002B00D1F5E0AE4AEB7C1278934200D38A
:1034E000CDE05A00D218AB4BD2001B689B18002BC2
:1034F00000D1C7E01D6962792078A368A847AEE7CC
:103500000122A24D01212B78042013432B70332379
:10351000EA5C8A43EA54EA5C8243EA540133EA5C97
:103520008A43EA54EA5C8243EA54237800209A46AC
:1035300000F02CFD602223791A40602A0DD0402A29
:1035400000D1C4E0DB06DB0E012B00D1D5E0022B5D
:1035500000D12DE1002B00D105E120780021FFF7FB
:103560006FFE80212078FFF76BFE78E7874D2B7880
:10357000DB0700D473E7884B002B00D16FE7287876
:103580000007C00FFCF7C2FF69E78449804F23782A
:103590008A4680499846894639003B78002247464A
:1035A0000025884613E04A4612686B0094465B1972
:1035B000DB006344002B59D05B68380098474346D2
:1035C0001B780135EDB2591C2A008D423DDCAB421F
:1035D000E9D8D21A53009B18DB005344ECE76B4D3B
:1035E0002B78DB0700D43AE76D4B002B00D136E790
:1035F000FCF794FF33E76949654F23788A466549AC
:103600009846894639003B7800224746002588467F
:1036100013E04A4612686B0094465B19DB00634472
:10362000002B4CD05B683800984743461B78013527
:10363000EDB2591C2A008D422BDC9D42E9D3D21AEF
:1036400053009B18DB005344ECE7504D53220021FC
:103650002800FFF74DFB1022FF21E81CFFF748FB75
:1036600028002022FF211330FFF742FB00F084FCEA
:103670004C4B002B00D1F2E6FCF742FFEFE6501C6A
:10368000984233DA0DB0F0BCBB46B246A946A0461C
:10369000F0BD3E4D532200212800FFF729FB1022E8
:1036A000FF21E81CFFF724FB28002022FF21133014
:1036B000FFF71EFB00F060FC2379AB70CFE6334DC3
:1036C000F8E762792078A36800F074FCC7E6364812
:1036D000002800D141E700F059FC012150460AAA18
:1036E00000E000BF002800D0B9E636E79B1A5A0078
:1036F000D2182A4BD2009B18FCE6237A0F2B00D954
:103700002BE7234AEB18DB781278934200D3C3E00F
:10371000204A5D00EB181568DB00ED18002D00D184
:103720001BE7E86800F032FC01215046EB680AAA6A
:103730009847002800D092E66022150023791D40AA
:103740001A4200D009E763790A3B012B00D904E74C
:1037500000F01CFC63790A2B00D198E150460AA9BD
:1037600000F094FB7BE6202A4DD0002A00D0F4E63E
:103770006379092B00D9F0E60C4A9B00D3589F4689
:10378000642F0020C03800205455001068380020F5
:1037900048400020AC3100200D050010E05500101D
:1037A0001D050010010500100000000078550010F4
:1037B0007023217A0B4200D0CFE60F330B405B0021
:1037C000E818CF090193B64BC0191B78C07C9C4602
:1037D000984235D243009846B24B40441B68C00023
:1037E00098468044002A3BD04346002B00D1B4E6E3
:1037F0004346D86800F0CAFB434601215046DB68C7
:103800000AAA98476EE7237A0F2B00D9A5E6A44AA7
:10381000EB18DB781278934249D3511C994200DAB5
:103820009BE69B1A5D00EB189F4DDB00ED18E868E6
:1038300000F0ACFB01215046EB680AAA984751E71B
:1038400001236344834200DAFAE06346C01A43006E
:103850009846954B40449846C0008044002AC7D102
:1038600063791A00994602239A43012A00D1C4E0E1
:103870004B46002B00D070E6019B08AAEB18DF191D
:103880003037FB7802329B07DB0F13805046022350
:103890000AA900F013FBE2E5511C994200DA5CE64C
:1038A0009B1A5D00EB18804DDB00ED1839E77D4A6F
:1038B0005D00EB181568DB00ED18002D00D14CE61B
:1038C000B5E7A37902931A006B789A420CD06B7813
:1038D000002B00D05FE1029B002B00D0F0E0734B87
:1038E000002B01D0FCF70CFE029B50460AA96B701E
:1038F00000F0CCFAB3E56B7808AA02321370504698
:1039000001230AA900F0DAFAA9E50220297808AB18
:103910009A1C8B068908DB0F01400B43B5E7E08852
:10392000030AC0B20F2B00D917E661499A008A58E2
:1039300097460AA800F030FB5046A179FFF77AFBC2
:1039400002222B7813432B7089E5E388012B00D0EA
:1039500003E608222B78504613430AA92B7000F087
:1039600095FA7CE5E388012B00D0F6E508222B7858
:10397000504693430AA92B7000F088FA6FE54D4B2F
:10398000002B00D1E9E500E000BF021E00D1E4E514
:10399000D37891781B020B4350460AA900F08EFAA7
:1039A000A0E6454B002B00D1D7E500E000BF021E8A
:1039B00000D1D2E5504613780AA900F07FFA91E6CB
:1039C0002189FDF7C9F9021EF4D1C6E5022B00D109
:1039D00022E13A4B002B00D1BFE500E000BF02001E
:1039E000002A00D1B9E5D3E7FDF7AEF912230200B2
:1039F0000AA9504600F062FA74E6E288002A09D16A
:103A00004B46012B22D0019BEB18DF193037FB7896
:103A10009B072FD54346002B00D120E5D86800F046
:103A2000B5FA43460121DB680AAA504698470020B0
:103A300000F0ACFA3423EB5CDB0700D50FE58DE634
:103A4000002A00D089E50023984609E7019BEB187E
:103A5000DF193037FB789B07DCD55B461878FFF71A
:103A60000BFC0222FB7893434A46FB70FB7893439E
:103A7000FB70CFE75B461878FFF7E2FB0222FB788A
:103A800013430122FB70FB781343FB70C2E708ABC2
:103A90009A1C504601230AA9157000F00FFADEE4C3
:103AA00048400020AC310020E05500100105001016
:103AB000A055001000000000000000000000000001
:103AC000581EC0B2FDF744F9002800D145E54378FF
:103AD0000693022B00D040E5C179013B8A114911C0
:103AE0001A400B40302152011B0113432A788A43AC
:103AF00013432B700923994681444F46A946C37846
:103B000082781B021343C3180493049BBB4200D862
:103B100086E001227B7801920B2B04D1FB78019384
:103B20003B78FF187B78042B00D016E50022049B1D
:103B3000B846DB1B9BB20593574B17001B780392CB
:103B40001EE0564B7D001B68ED199C46ED00654458
:103B50000793002D00D100E541465046059AAB6819
:103B600098478446082802D9059A824260D24A4B77
:103B700001371B78FFB25A1C0397974200DDECE433
:103B8000BB42DED8039AD31A5D00ED18444BED001A
:103B90009C466544E0E75046FFF73CFBAB783F4965
:103BA00001938946002329003B4F1D0088463A783F
:103BB00012E04A4612686B0094465B19DB006344CE
:103BC000002B27D05B68504698473A780135EDB214
:103BD000511C2B008D4209DC9542EAD39A1A5300FE
:103BE0009B182F4ADB0094466344EBE7454653227B
:103BF00000214046FFF77CF81022FF21E81CFFF768
:103C000077F840462022FF211330FFF771F8019B1F
:103C1000AB7060E64546FAE7FDF79AF80200DFE68A
:103C2000204B4D46002B00D15EE6FCF761FC5BE6C5
:103C30003B0047469846019B012B25D0019B002B5A
:103C400010D000234546B978CA18D2B24A44D07879
:103C5000FF2800D081E4D5700133019ADBB2934292
:103C6000F2D3A846484665466246434639001330BB
:103C700000F0E2FFAC46084B039A1B78674401331F
:103C8000934200DB41E768E4074BAA689A42D8D127
:103C9000069B0193D5E7C04648400020AC31002088
:103CA000E0550010F1040010C9080010F8B557469F
:103CB0004E46DE4645460C00E0B516001F00002AC1
:103CC0003CD0702398461E4B00259B461D4B9A46C0
:103CD0001AE05B461B78200099465346997800F01D
:103CE0006FFF00281CD021004846FFF70FFA00287C
:103CF00016D0A378DA09012A19D00A9A013513706F
:103D00002378E418B54219DA6378052B08D1E378F3
:103D10009B079B0FBB4203D14246A3781A42D8D0DF
:103D20000020F0BCBB46B246A946A046F8BD0B9A9F
:103D3000013513702378E418B542E5DB0120F0E784
:103D4000642F002068380020702270B58B780C003A
:103D50001A4201D0002070BD064B20001D78064B92
:103D6000997800F02DFF0028F4D021002800FFF7FB
:103D7000CDF9F0E7642F002068380020074B0800D9
:103D800019687F2310B50340C0095B003330181851
:103D9000034B181800F0D0FE10BDC046BC38002000
:103DA00068380020074B080019687F2310B50340CE
:103DB000C0095B0033301818034B181800F0E4FEFC
:103DC00010BDC046BC380020683800207F2070B588
:103DD00008400F4C4000CD09241864193034E578B0
:103DE0000020ED0700D570BD0126E5780948354370
:103DF0000078E570FFF712FA0028F4D10122E37889
:103E00009343E370E37803329343E370EBE7C046F8
:103E100068380020642F00207F22CB090A40044923
:103E200052008918C9183031C878C007C00F7047D0
:103E3000683800207F2310B50B400B4C5B00E41862
:103E4000CA09A4183034E3789B0700D510BD074B8E
:103E50001878FFF7F5F90222E37813430122E370A3
:103E6000E3781343E370F1E768380020642F002003
:103E70007F22CB090A40044952008918C918303101
:103E8000C8788007C00F70476838002070B50A4EA8
:103E90000500300008220C00FEF730FF00237F21D0
:103EA000F3602278B36091425B412800D90100227F
:103EB0000023FFF78BFF70BD88350020F8B5CE4694
:103EC000474691462A4E80B50822070030000D0073
:103ED0009846FEF713FF4B46B3600023F381EC795D
:103EE000A97924020C43231C444500D943469AB2C5
:103EF0009046B381002C13D0002A1FD04B46002BD4
:103F000034D0131C402A1FD89BB2984633787F2B9D
:103F100020D80021174A43463800FFF757FF09E031
:103F20007F222B7838009A42644100230022E1016D
:103F3000FFF74CFFC0BCB946B046F8BD33787F2BC5
:103F400011D980210022E6E740239BB298463378BE
:103F50007F2BDED9074C424649462000FEF7CEFEB5
:103F600080212200D7E700210022D4E70020E1E7EA
:103F7000883500202838002010B51422002102487E
:103F8000FEF7B6FE10BDC04688350020014B186113
:103F90007047C0468835002010B5054C0100082246
:103FA0002000FEF7ABFE0023A360E36010BDC04617
:103FB00088350020F8B53B4C1D0023780600DA094F
:103FC000C9098A4213D00020002D00D0F8BD364B1D
:103FD000002B03D021003000FFF78AF82369002B63
:103FE00044D022000321300098470120EEE77F2BC8
:103FF00006D8A068002837D02A002C49FEF77EFE9C
:10400000A368E28959195219E38892B2E281A1604A
:10401000934214D03F2D12D9A589A81A071C80B24B
:1040200040282FD82378BFB27F2B2DD80021AA4259
:1040300035D01E4A3B003000FFF7C8FEC6E72369B3
:10404000002B05D0220002213000984700280FD015
:104050007F220021237830009A4249410023002228
:10406000C901FFF7B3FEB1E70020AFE70120ADE7DC
:1040700000213000FFF7E4F830008021FFF7E0F87E
:104080000120A3E74027CDE7AA4207D0074C3A001A
:104090002000FEF733FE80212200CBE780210022A2
:1040A000C8E7C04688350020F130001028380020CD
:1040B000F0B54746CE4680B5364C0600E18AA36887
:1040C00049BA89B2984687B0002904D01800FEF793
:1040D00019FB0104090C2369257D1A0AA36B2D061F
:1040E000180099461543FEF70DFB2DBA0A0043460A
:1040F00041194D465B1B8025274F607BAD00AB42CD
:1041000000D92B0000933B00FCF778FA051E1FDB5B
:1041100000280BD02E2283B2A15C30003A00FFF7BA
:1041200055FE07B0C0BCB946B046F0BD2E23E75CD3
:1041300003AC082200212000FEF7DAFD072300214E
:104140002000267063702771059501F06DF8E8E78F
:10415000124B0022A3873E2330210220E254123B5F
:104160000132E254A268A36B6054D31AA362002AFE
:10417000D7D0002BD5D0237BDB0905D02E233000F0
:10418000E15CFFF757FECCE72F233000E15CFFF73F
:1041900051FEC6E7E0370020E0350020023A00007B
:1041A0001E4B70B505001E4C002B04D0607BFCF745
:1041B00037FA002810D0A26BA3689B1A80229200C5
:1041C000934207D82F222800A15C9BB2154AFFF723
:1041D000FDFD70BD1300F5E7134B0122A3873E23BD
:1041E0003021E054123BE254A268A36B0230D31A90
:1041F000A3626054002AECD0002BEAD0237BDB09B9
:1042000005D02E232800E15CFFF714FEE1E72F2301
:104210002800E15CFFF70EFEDBE7C0462106001038
:10422000E0370020E03500200727000010B53C24CF
:10423000034801553D2142543E228354012010BDC4
:10424000E037002010B5402200210248FEF750FD63
:1042500010BDC046E037002010B5402200210248C2
:10426000FEF746FD10BDC046E037002030B54B7963
:10427000040083B0082B02D18B79062B02D00020DA
:1042800003B030BDCB79502BF9D1162AF7D98A78F3
:104290000E4D233BEA540B780222C9182B002E3313
:1042A00001932B002F3300930223FFF7FFFC00281C
:1042B000E5D030230022EA54013BE95C2A002000CB
:1042C000103BFFF783FD1720DAE7C046E0370020F8
:1042D00070B50500140082B001292AD17F2312781D
:1042E0001340022B28D0602300201340202B21D123
:1042F0006378FE2B50D0FF2B1CD1E378A2781B02F1
:10430000134317D1E379A2791B02134312D1302250
:1043100000213C4B98540E32586398639887995407
:1043200028002100FFF7B2FD012003E02800FFF77D
:1043300081FD012002B070BD6378012BD3D1E378F9
:10434000A2781B0200201343F4D1302221792D4C96
:10435000A35C042BEAD02E20205C884241D02F227F
:10436000A65C8E42E5D1002BE3D131002800FFF797
:1043700053FD0028DDD131002800FFF779FD00282A
:10438000D7D130230022E254013BE15C2200280017
:10439000103BFFF71BFDCDE7E378A2781B02134328
:1043A0001BD1E379A2791B021343012B15D16A4675
:1043B000D371154B002B12D000E000BF00280CD0A9
:1043C0000138C0B26B466A46D8712100012328002B
:1043D0000732FFF773FD0120ACE70020AAE70020B9
:1043E000F0E7022BA5D1A16BA3685B1AA36203239C
:1043F000A35422000100203228000A33FFF7E6FC14
:1044000098E7C046E037002000000000F0B54546C0
:1044100057464E46DE46E0B51F003023BB4C050034
:10442000E65C984691B0012E0ED0032E60D0002E8F
:104430001CD0022E00D18AE0012011B0F0BCBB4696
:10444000B246A946A046F0BDE37B282B74D02A2BA8
:1044500000D1BCE0A36B227B9C466744A763D209D2
:1044600000D1A5E0636B9F426ED2E5E7013BE35CC0
:104470008B42E1D11F2F00D086E0A54B22689A42E3
:1044800000D081E0A34B4246236263682C2763621D
:104490000123E655A354E27BA368A6626363A66387
:1044A000282A00D1D3E02A2A00D178E2002B00D1BB
:1044B000F3E0207BC00900D0EFE08022920093421D
:1044C00000D831E2A3623023D53AFF3A0130A0543C
:1044D0002A3AE2540C33E35C002B03D18E4AA287C4
:1044E0003E22A3542800FFF7A5FC3023E65CA0E79A
:1044F0002E23E35C8B429FD10D2F9DD1E37B282B94
:1045000000D144E22A2B00D139E2844B002B04D0A5
:104510002100607B0F3100E000BF00233026A3554F
:104520002F33E15C22002800103BFFF74FFC0028EE
:1045300000D101E2A65D7CE7A36B9C46636B6744F8
:10454000A7639F4200D27DE030230222E2542E2650
:104550002800A15DFFF78CFC002800D06CE7A36861
:10456000A26B934202D9217BC9091CD19B1AA36279
:1045700003223023E2542200023BE15C2800203277
:10458000213BFFF723FC58E704223023E254023B8F
:10459000E15C2800FFF74EFC2F232800E15CFFF7C9
:1045A00049FC002049E72800A15DFFF743FC43E7F1
:1045B0002100A38E607B5A4A0F31FCF747F8002890
:1045C00000DABDE1A36B626B9342BDD28DE7E18A55
:1045D00049BA89B2002900D1B0E1A068FEF792F88B
:1045E0000104090C2369267D1A0AA06B36061643BE
:1045F000FEF788F836BA4A4B0A008119607B0097AB
:104600009846FCF70FF8002800DAE0E1874238D935
:104610003F1A002800D01CE22F2307AEE35C0822DB
:10462000002130009846FEF763FB07237370434672
:104630003570337130000021099700F0F5FD30230B
:10464000E65CF6E6FFF734FD4346E65CF1E6E08A19
:1046500040BA80B2002B00D008E2002800D173E7F6
:1046600002232C22A3540022A2623032A3543A33F4
:10467000E35C002B00D06AE7274AA2873E22A354BE
:1046800065E7A36B9C46636B6744A7639F4200D3B7
:104690005AE72800FFF784FD27E7667B252A03D821
:1046A000204992008A5897463C22A25C002A00D0FA
:1046B00013E11B4A90462100424630009BB20F3165
:1046C000FBF7C4FF002800DA07E1002842D1A36805
:1046D000002B00D138E72C220121A154A26B01311B
:1046E0009B1A3022A362A1540C32A25C002A03D18F
:1046F0000949A1873E216254002B00D127E7237B83
:10470000DB0900D0A2E12F23E15CEBE6E0370020DB
:10471000555342435553425305200000000000000A
:10472000E03500201056001006AF3A00300007A90F
:10473000FBF752FF079B002B00D1AAE13A88002A21
:1047400000D1A6E1D84908208846013B1BBA12BA1D
:104750000B604A60A368002B00D0B7E101222C3324
:10476000E254A36B01325B42A3623023E2540C3368
:10477000E35C002B00D0EAE67EE707AF0C220021C5
:104780003800FEF7B5FA02AA94460E2363441A00D5
:10479000300006A99846FBF71FFF069A002A00D1B1
:1047A00077E143461B88002B00D172E1082112BA41
:1047B000F970089202225BBA7B81BB4B3A72984631
:1047C00007CF07C30C20C5E7B84B0120002B02D050
:1047D0003000FBF725FFB44B0322984601234340EA
:1047E000DBB2DB051343424604201360B2E707AF98
:1047F000082200213800FEF77BFA80235B427B70A1
:104800008233BB70FB701D333B710822202109A845
:10481000FEF76EFA102220210BA8FEF769FAA44BCE
:10482000300009A90F930BAA0FABFBF797FE9E4B25
:104830001A0098460BCF0BC20BCF0BC20BCF0BC28B
:10484000242087E70F23984642462D33E35C07AFC9
:104850001A403D23E35C93469A463E239946E35C27
:104860001222002138000393FEF742FAF0235A4641
:104870003B7043461340BB700A235246FB71039BB7
:104880003A737B73884B984607CF07C33A681A6020
:10489000BA889A80874B002B00D145E1802241469F
:1048A0009200300000E000BF00234A46A387A354D3
:1048B000984200DB09E7667B636BFCE63000FBF7A0
:1048C00079FE002800D002E73C23E35C002B04D1F2
:1048D000794B0022A3873E23E2542C23012230216E
:1048E0000220E254A268A36B6054D31AA3620C3175
:1048F000615C002903D17148A0873E202154002A21
:1049000000D124E6F8E66E4B002B00D1DFE6E17C17
:1049100030008B07CA07DB0FD20F0909FBF762FED5
:10492000002800D0D3E6CFE728005F4A9BB2FFF70C
:104930004DFA002800D0D8E500207EE5002151E6A0
:104940002C230220E6544646A368A26BA055991A70
:10495000A1623A30205C002803D1584EA6873E263B
:10496000A055002B56D0002954D0237BDB0900D161
:10497000BEE02E232800E15CFFF75CFA22E6514BF3
:10498000002B00D1C9E5607B00E000BFC5E54E4BC0
:10499000002B00D1C1E5607B00E000BFBDE5E08AEF
:1049A00040BA80B2002B00D157E6267BF60900D032
:1049B000A4E0002833D0834200D297E02800282AC0
:1049C00000D067E6FFF774FB3023E65C31E53A4A36
:1049D000A36B0021A2873E229C463026A154123AA6
:1049E0000131A154A2686744D31B0131A763A362BC
:1049F000A155002A00D1AAE5002B00D1A7E5237B11
:104A0000DB0900D189E02E232800E15CFFF712FAD0
:104A1000A65D0EE5636B9A4200D298E594E501200D
:104A20002C22A05402200432A054A3620C32A25CB7
:104A3000002A08D12148A0873E202254002B00D113
:104A400085E5267BF609002E00D14BE52E23E15C9F
:104A500048E5A26B0100944603041B0C63443A0032
:104A600040464144A36300F007FCD5E5267BF609E8
:104A70009FD10222A3624346E2543C23E255E35C09
:104A8000002B00D02EE50D4B0022A3873E23E254DD
:104A9000D7E73C23E35C002B00D01EE7064AA28741
:104AA0003E22A35419E7C046E0350020210600103D
:104AB0002020202000000000023A00000520000015
:104AC000E50500100000000000000000984200D939
:104AD00018002E226063A15C83B242462800FFF7D3
:104AE00075F9002800D000E50020A6E4022097E731
:104AF0002F232800E15CFFF79DF963E50222A36202
:104B00002C2030232254E2540C33E35C002B9DD143
:104B1000084AA2873E22A35493E72F232800E15C92
:104B2000FFF788F9A65D84E44A461220A387A354C0
:104B300010E6C04605200000037870B5DB070400CE
:104B40000E00DD0F002B17D103785B0701D528007D
:104B500070BD01213000494200F05EFB2378DB0785
:104B6000DD0F002B0AD123785B0708D404222378B9
:104B700001251343237002E00025E8E700253000FB
:104B800000F01AFBE3E7C04670B50D0001210400F8
:104B90004942280000F040FB23785B07DE0F002B22
:104BA00004DB280000F008FB300070BD2378DB0731
:104BB00004D40422237893432370F2E70026F0E71D
:104BC00010B5437904791B0223435B055A0DC37862
:104BD0009B079B0F022B05D0032B15D00020012B28
:104BE00008D010BD02291CD0002040239342404130
:104BF000C0B2F6E702394B4259410D4B9C46614425
:104C000091424041C0B2ECE702394B425941F02396
:104C1000002049429B001940403191424041C0B2BE
:104C2000DFE7044BD3185A425341D8B2D9E7C04604
:104C3000FF03000000FEFFFF8A1870B5914207D203
:104C40007F264C78052C04D00C7809198A42F8D8B4
:104C500070BD34008D782C4064000419ED09635553
:104C60000C7809198A42ECD8F2E7C046F0B5C6467E
:104C700000B5040006A805788020884617001E00AD
:104C80000002824227D8E068002803D0012149426F
:104C900000F0C2FA2069002803D00121494200F047
:104CA000BBFA4346236073045B0CED031D430023F2
:104CB000E0686381A780E5802381002801D000F0AF
:104CC0007BFA20690124002801D000F075FA200049
:104CD00080BCB846F0BD0024F9E7C04610B5048991
:104CE00041898288A3B288B28C4207D31B1A9BB237
:104CF000101C9A4200D9181C80B210BD5100091A2C
:104D00005B189BB2F4E7C046030000895B89C01AB8
:104D100043425841C0B2704710B504894189828826
:104D2000A3B288B28C4207D31B1A9BB200209A42CE
:104D300001D9D31A98B210BD5100091A5B189BB261
:104D4000F4E7C04670B5040000690E00002803D0E7
:104D50000121494200F060FA25896089A288A9B240
:104D600083B285422CD3CD1AADB2002D2ED0AA42EB
:104D700008D2914231D38B1A9BB263819A4203D8F5
:104D80009B1A9BB29A42FBD9E28821685204520CCA
:104D900053433000C918FDF7B1FF618901254B1C51
:104DA0009BB2A288994214D9002352009B1A9BB24D
:104DB00020696381002801D000F0FEF9280070BD51
:104DC0005500ED1A4D19ADB2002DD0D100256389E3
:104DD0009BB252009342EBDBE8E789188BB2638108
:104DE000CCE7C046F0B546464F46D646C0B50600AD
:104DF000006989469046002803D00121494200F00D
:104E00000BFA31897289B5888BB294B2914257D32B
:104E10001F1BBFB2002F4DD0BD4205D2AB4254D2B2
:104E20005B199CB22F0074814346B84540D89FB2AD
:104E3000A54203D8641BA4B2A542FBD9F288281B63
:104E40005204530C19009846336861439C4680B263
:104E50006144874226D94346584383B21A004846E4
:104E60009A46FDF74BFF434648467D1B64195C4359
:104E700031685044A2B2FDF741FF7189B588CB1962
:104E80009BB26A00994217D99B1A9BB23069738111
:104E9000002801D000F090F93800E0BCBA46B146D5
:104EA000A846F0BD424648467A43FDF727FFE4E7AF
:104EB0003B1CBCE773899BB26A009342E6DBE3E7E5
:104EC0006F003F1BDF19BFB2A4E75B1B9CB2A9E7D1
:104ED000F8B50400C0680E00002803D00121494243
:104EE00000F09AF9258920896189A288ADB283B240
:104EF0008FB2884228D3DB1B9BB29A4209D8E7794C
:104F0000FF0906D1E068002801D000F055F938000B
:104F1000F8BD2B00954203D39B1A9BB29342FBD260
:104F2000E28821685204520C5343C8183100FDF73F
:104F3000E5FEA2886B1C9BB252009D4209D99B1AC8
:104F40009BB201272381DDE75100C91B5B189BB28F
:104F5000D3E79342F5DBF2E7F0B54E464546DE4631
:104F60005746E0B589460500140083B0002A6ED08C
:104F7000C068002803D00121494200F04DF92F8973
:104F8000EA796B89BFB29BB2D20942D1AE889F4207
:104F900067D27200D31AFB189BB2002290469E4241
:104FA00031D9F31A1A1C9BB2A34200D9221C93B226
:104FB0009846E8884346FB189BB29B463C00B742A4
:104FC00003D3A41BA4B2B442FBD24004430C180088
:104FD0009A462B6860439C46311B89B26044414528
:104FE0004ED35246434649465A43FDF787FEAB88A7
:104FF0005B00BB4501D39B4503DB5A46D31A9BB2EA
:105000009B465B462B81E868002822D000F0D4F84C
:105010001FE0AA889046944226D29F4244D341463C
:10502000FA1A92B2490012198A4209DB42469A18CA
:1050300092B2171BBFB29346BB423AD97F1ABFB296
:10504000E3199BB246469B46A046E888B6E7002394
:105050009846404603B0F0BCBB46B246A946A046BF
:10506000F0BDFB1A9BB298E7E888A21A4404640CCE
:1050700054434246A144002AC5D046461F0099E742
:105080005346594389B20A0001914946FDF736FE5D
:1050900043469A1B5346A2185A430199286892B274
:1050A0004944FDF72BFEA2E75100CA1ABA1892B282
:1050B000B9E7B942C2DD4646E888A0467EE7C04669
:1050C00010B50400C068002803D00121494200F057
:1050D000A3F82069002803D00121494200F09CF880
:1050E0000023E06863812381002801D000F064F888
:1050F0002069002801D000F05FF8012010BDC046F3
:1051000070B50400C0680D00002803D00121494299
:1051100000F082F82069002803D00121494200F004
:105120007BF87F21E379ED011940E0682943E171C3
:10513000002801D000F040F82069002801D000F0DC
:105140003BF8012070BDC04610B583070AD00300AC
:10515000032102E001330B4205D01A78002AF9D16D
:10516000181A10BD030019680C4A0D4C8A188A439E
:1051700022420FD15968094A04338A188A432242CD
:1051800008D15968054A04338A188A432242F1D06B
:1051900000E001331A78002AFBD1E1E7FFFEFEFEB2
:1051A00080808080F8B5C04601B40248844601BCC6
:1051B000604700BF8D02002001B40248844601BC54
:1051C000604700BFED01002001B40248844601BCE5
:1051D000604700BF690D002001B40248844601BC4D
:1051E000604700BF8D09002001B40248844601BC1D
:1051F000604700BF5103002001B40248844601BC4F
:10520000604700BF690D002001B40248844601BC1C
:10521000604700BFB509002001B40248844601BCC4
:10522000604700BF5D01002001B40248844601BC14
:10523000604700BFED0B002001B40248844601BC6A
:10524000604700BFC100002001B40248844601BC91
:10525000604700BF310B002001B40248844601BC06
:10526000604700BFCD0A002001B40248844601BC5B
:10527000604700BFD90A002001B40248844601BC3F
:08528000604700BF6D0D002026
:105288000D0A54696E795553422057656255534249
:1052980020646576696365206578616D706C650D5D
:1052A8000A00000054696E79555342004D617373CA
:1052B8002053746F7261676500000000303132332B
:1052C80034353637383941424344454600000000FA
:1052D80054696E79555342204465766963650000C8
:1052E800313233343536000054696E7955534220D3
:1052F8004344430054696E79555342204D5343004B
:105308000904000012010002EF020140FECA034036
:1053180000010102030100000902E6000701008004
:1053280032080B0002020200000904000001020218
:1053380000040524002001052401000104240202C0
:10534800052406000107058103080010090401006F
:10535800020A000000070502024000000705820259
:10536800400000080B0202020200000904020001CA
:10537800020200040524002001052401000304247E
:105388000202052406020307058303080010090426
:105398000300020A00000007050402400000070598
:1053A8008402400000080B04020202000009040401
:1053B8000001020200040524002001052401000563
:1053C80004240202052406040507058503080010C5
:1053D80009040500020A0000000705050240000054
:1053E8000705860240000009040600020806500569
:1053F800070506024000000705870240000000007C
:105408004E6F207370696E6C6F636B732061726589
:1054180020617661696C61626C6500004861726444
:105428007761726520616C61726D20256420616C02
:10543800726561647920636C61696D656400000060
:105448000A2A2A2A2050414E4943202A2A2A0A0099
:105458004861726420617373657274006D69737357
:10546800696E6720646F75626C652066756E63741B
:10547800696F6E0052656C6561736500626F6F7469
:10548800325F77323571303830000000312E352EDA
:10549800310000007069636F5F7700007069636FA7
:1054A8002D776966692D616461707465720000000A
:1054B8004E6F76203137203230323300060052509A
:1054C800BBFF3CB69C54001006005250E182887F16
:1054D8008454001006005250D3F075427C540010DA
:1054E8000D0A0000556E68616E646C65642049524F
:1054F8005120307825780A006570202564202573AE
:105508002077617320616C726561647920617661CE
:10551800696C61626C65000043616E277420636F7B
:105528006E74696E75652078666572206F6E206985
:105538006E61637469766520657020256420257323
:10554800000000006F757400696E00005E34001082
:10555800F63500108A3500105E3400106C350010E6
:10556800DE35001000350010AC340010A0340010F7
:105578000A390010643900105A3500104A390010F1
:105588005A350010323900101E3900105A350010F3
:10559800F6380010C23800105A350010E8390010EB
:1055A800CC390010C03900105A3500105A35001097
:1055B800A2390010CC3900105A3500105A350010A5
:1055C8005A3500105A3500105A3500105A35001057
:1055D8005A3500107E390010010800108D0800109F
:1055E800C9080010310A0010450B00100000000027
:1055F80045420010594200106D420010D14200107F
:105608000D44001000000000BC480010A84600101F
:10561800A846001044480010A8460010A8460010EC
:10562800A8460010A8460010A8460010A84600107A
:10563800A8460010A8460010A8460010A84600106A
:10564800A8460010A8460010A8460010A84600105A
:10565800EE470010A8460010A8460010A846001003
:10566800A8460010A8460010A8460010A84600103A
:10567800C847001006490010A8460010A8460010A8
:10568800A8460010A8460010A8460010A84600101A
:10569800A84600107A470010A846001028470010B6
:1056A800AC020010A002001094020010C4540010B4
:0C56B80088020010D0540010DC540010D8
:1056C400F0B5C646150000B504001E000268EFF3ED
:1056D400108172B61368002BFCD0BFF35F8F0423D4
:1056E400E356002B2DDB2268BFF35F8F0020106090
:1056F40081F31088D0221206127852B290469A4250
:1057040003D1002080BCB846F0BD00270BE023681D
:10571400BFF35F8F1F6081F310882800310000F011
:105724008BFE0028EDD12268EFF3108172B6136866
:10573400002BFCD0BFF35F8F23797F2BE7D943463F
:1057440002E0D0231B061B6823712368BFF35F8F1D
:1057540000221A6081F310880120D3E7F0B5C64611
:1057640000B50D00040000F077FEFA2206000F00D9
:10577400002328000021920000F056FE36184F4105
:10578400002F2CDBD0231B061B68002598460BE05A
:105794002368BFF35F8F1D6081F3108830003900E8
:1057A40000F04AFE002818D12268EFF3108172B687
:1057B4001368002BFCD0BFF35F8F23797F2BE7D9CD
:1057C400434623712368BFF35F8F00221A6081F37D
:1057D4001088012080BCB846F0BD0020FAE70126FD
:1057E400014F7642CEE7C046FFFFFF7F0268EFF32A
:1057F400108172B61368002BFCD0BFF35F8FFF23B8
:1058040003710368BFF35F8F00221A6081F310886D
:1058140040BF7047084810B50378002B0AD1802395
:105824000649074A5B051C68CC5004339342FAD1FD
:105834000123037010BDC0464A4000209439001073
:105844000001001010B5024B0133984710BDC0464B
:1058540094390020034B1A68C0239B009343024AE7
:10586400136070470C8001400C900140054B1A688E
:1058740080239B005340C02292001340024A1360CD
:105884007047C0460C8001400C9001401423F0B5D1
:10589400D6464F4646469A46814618880433C0B5D4
:1058A40098460E001B882749140098475346070062
:1058B4001888434624491B8898475346050018888E
:1058C400434622491B8898478046FFF7A3FFB84701
:1058D400A847FFF7CBFF002C1BD0C02122000827CC
:1058E400022049053D008B6A1D4018420BD0002C54
:1058F40009D0131B0D2B1FD84B461B78013C0B669C
:1059040001239C46E1442300002D0CD11343002BBA
:10591400E8D1FFF79FFFC047FFF794FFE0BCBA460A
:10592400B146A846F0BD002AF1D00B6E013A33709F
:10593400130001362343EAE7002DD3D0002AD1D047
:10594400F3E7C046494600004558000046430000BE
:1059540000231C4A10B59360D3601B4A0021936056
:10596400D3601A4A1A489360D3601A4A9360D3608A
:10597400194A9360D360194A9360D360184A9360BC
:10598400D360184A9360D360174A9360D360174A70
:105994009360D360164A9360D360164A9360D360D1
:1059A400154A9360D360154A9360D360144A936098
:1059B400D360F022920000F047FD124B124A1A60A5
:1059C40010BDC046000010500800105010001050C8
:1059D4004C3B00201800105020001050280010509C
:1059E4003000105038001050400010504800105043
:1059F40050001050580010506000105068001050B3
:105A040070001050103F002080011050F0B5574630
:105A1400DE464E464546E0B5234B87B09F6D002FCA
:105A240023D0224B0024994601239846204B01267B
:105A34009A4604E001347600E4B2202C15D03E42AC
:105A4400F8D04B469E65434665086D00A343ED18A8
:105A54006D015544280000F0A1FB00280CD101344D
:105A6400B743E4B27600002FE7D107B0F0BCBB46E1
:105A7400B246A946A046F0BDAB7808229B46EB8A05
:105A8400002103A8019300F0DFFC0723594602AA72
:105A94005371019B117203A80121059300F0A6FB29
:105AA400280000F013FBDAE7000011500030115019
:105AB4000C3B00209823C64A70B5D55880232C008F
:105AC4009B02102684B01C401D4278D0C14BC24CAE
