:020000041000EA
:1000000000B5324B212058609868022188439860DF
:10001000D860186158612E4B002199600221596106
:100020000121F02299502B49196001219960352056
:1000300000F044F80222904214D00621196600F024
:1000400034F8196E01211966002018661A6600F04E
:100050002CF8196E196E196E052000F02FF8012189
:100060000842F9D1002199601B49196000215960AB
:100070001A491B48016001219960EB211966A021F2
:10008000196600F012F800219960164914480160C1
:100090000121996001BC002800D000471248134993
:1000A000086003C880F30888084703B5996A0420EC
:1000B0000142FBD001200142F8D103BD02B5186610
:1000C0001866FFF7F2FF186E186E02BD00000240BE
:1000D000000000180000070000035F00212200005C
:1000E000F4000018222000A00001001008ED00E03C
:1000F00000000000000000000000000074B24E7A12
:1001000000200420F7010010C3010010C5010010F9
:10011000C1010010C1010010C1010010C101001097
:10012000C1010010C1010010C1010010C701001081
:10013000C1010010C1010010C9010010CB01001065
:10014000CD010010CD010010CD010010CD01001037
:10015000CD010010CD010010CD010010CD01001027
:10016000CD010010CD010010CD010010CD01001017
:10017000CD010010CD010010CD010010CD01001007
:10018000CD010010CD010010CD010010CD010010F7
:10019000CD010010CD010010CD010010CD010010E7
:1001A000CD010010CD010010CD010010CD010010D7
:1001B000CD010010CD010010CD010010CD010010C7
:1001C00000BE00BE00BE00BE00BE00BEEFF3058054
:1001D000103800BEF2EB8871C84C0010E44C0010DF
:1001E0003402001090A31AE700201F49086006C8D7
:1001F00081F3088810471D48006800282FD10DA4FE
:100200000ECC002902D000F012F8F9E71849194A7B
:10021000002000E001C19142FCD1174988471749ED
:1002200088471749884700BEFDE701C901C29A42C5
:10023000FBD37047E44C0010C0000020E00E00200B
:10024000045B00100000042000000420045B001088
:10025000001004200010042000000000704709482E
:1002600002F03AF90047000008ED00E0000000D07D
:10027000E00E00200C1C002041230010550300104C
:10028000452400105756000006005250ABB360538F
:100290004C4B001006005250861C03025C4B0010B1
:1002A000060052505422A29D704B0010050052507F
:1002B000DE65F468045B0010F8B5C0460448054BE1
:1002C00010B5834203D0044B002B00D0984710BDDB
:1002D000E00E0020E00E0020000000000648074964
:1002E000091A8B10C90FC91810B5491003D0044B57
:1002F000002B00D0984710BDE00E0020E00E00203B
:100300000000000010B5074C2378002B09D1FFF73F
:10031000D5FF054B002B02D0044800E000BF0123AD
:10032000237010BDE010002000000000984800106D
:10033000054B10B5002B03D00449054800E000BF71
:10034000FFF7CCFF10BDC04600000000E410002005
:1003500098480010F0B5DE4657464E464546E0B593
:1003600093B002F079FD002002F018FF5E4B002BE5
:1003700001D000E000BF5D4B5D4F99466B46DE1D2E
:100380005C4B9A465C4B98460A239B460120002111
:10039000404202F071FF002000F04CF900285CD1CF
:1003A0004B461B78002B23D101F044FB53463C689D
:1003B0001D68002914D0FA220023920002F0FCF8F4
:1003C000001BA842E2D34346641918783C6002F04F
:1003D00045FD434601221B78534042461370D5E742
:1003E000FA21890002F0AAF8001BA842CED3EAE75E
:1003F000002003F03FFD0028D6D04022002002A9B3
:1004000003F046FD4B461B780500002B63D100200E
:1004100000F010F90028C7D0002D1AD002ACA44675
:10042000654402E00134AC4213D0237801223370DA
:100430003100002000F0AAF923780D2BF2D15B46A1
:100440000122310000203370013400F09FF9AC42EA
:10045000EBD1002000F05EF9A6E7002000F004F9DF
:1004600000289DD04022002002A900F00DF94B4643
:100470001B780500002B25D1002000F0DBF80028B8
:100480008ED0002D1AD002ACA446654402E001349F
:10049000AC4213D02378012233703100002000F0E9
:1004A00075F923780D2BF2D15B4601223100002033
:1004B0003370013400F06AF9AC42EBD1002000F057
:1004C00029F96DE7020002A9002003F04FFD00208A
:1004D00003F012FDD0E7020002A9002003F046FD60
:1004E000002003F009FD92E7000000000B1C002033
:1004F000F01B0020E00D0020091C0020FA22024B16
:1005000092001A607047C046E00D0020FA22014BAD
:100510001A607047E00D0020014B024A1A607047D4
:10052000E00D0020C409000010B502F027FE431EB4
:100530009841034B40421840024BFA30186010BDFE
:10054000EE020000E00D0020F0B5050014000120CF
:1005500083B0012912D113785B069B0F012B0FD0BA
:100560000020022B0AD15378012B21D0022B05D178
:10057000537911791B020B43072B20D003B0F0BD38
:1005800053780020222BF9D1E37892781B02134391
:1005900019004A1E91411A4A1170002B1FD1FA22EC
:1005A000184B92001A602100280003F051FBE5E788
:1005B0002F2321002800144A03F062FBDEE76B467C
:1005C000124E9F1D31000222380002F0B3FA3200B1
:1005D000210028003B88083A03F052FBCEE70130A7
:1005E00002F03CFC0122074B52421A6008491F32BC
:1005F000002003F0BBFC002003F07EFCD3E7C046E4
:100600000B1C0020E00D0020DC480010144A0010F4
:100610009848001010B5002901D0002A00D110BD63
:1006200021220249002000F0B1F8F8E7B848001094
:100630007047C04610B5040002F0A0FD002801D1AB
:10064000002010BD02F0A2FD0028F9D1A000001981
:10065000C000044B0019C00018180379012018408D
:10066000EFE7C04600110020020083001B1810B500
:10067000D8008018034BC0001030C01803F046FEAD
:1006800010BDC04600110020F8B5474680468500E1
:100690002C18E4004444CE46E400260080B51A4BF2
:1006A0001A4F1036BE199A4200D9194A300092B238
:1006B00003F0B0FE8146300003F046FE3F2804D828
:1006C0004846C0BCB946B046F8BD4544ED00454477
:1006D000ED007D190020E97803F06CFA0028EFD0D6
:1006E000300003F031FE3F2808D92200C8324023F1
:1006F000E978BA18002003F085FAE1E7E9780020EC
:1007000003F06CFADCE7C046FEFF00000011002099
:10071000FFFF0000F8B5050002F030FD002801D110
:100720000020F8BD02F032FD0028F9D1AB005B19C2
:10073000DC006419E4002500134E2435AD192800AF
:1007400003F0E4FD0028EBD037190020B97803F05E
:1007500031FA0028E4D00934FF34A419210028001C
:10076000402203F057FEB978051E08D0030022008E
:10077000002003F047FA0028D2D02800D1E700205B
:1007800003F02CFACCE7C0460011002070B58400BD
:100790002418E40024180C4BE4002434E4180B4B18
:1007A00005009A4200D90A4A200092B203F0ECFEFA
:1007B0000600200003F0AAFD3F2801D8300070BDDC
:1007C0002800FFF7A7FFF9E700110020FEFF000057
:1007D000FFFF0000A42270B5184C82B00021200059
:1007E000520002F0A1F9FF236371E1235B020025AF
:1007F000A360210008232000A37340223831009514
:10080000073B103003F04AFD2600012321002000A1
:10081000402278310093B836243003F03FFD300099
:1008200000F086FD26622600C0363000E56100F04B
:100830007FFD2663656302B070BDC04600110020D5
:1008400010B5094C05220021200002F06DF92000AE
:100850002434103003F04CFF200003F049FF012145
:10086000200003F065FF10BD00110020F0B54B79AA
:10087000060083B0022B02D18B79022B03D0002516
:10088000280003B0F0BD2F4FBB78002BF7D18B7839
:1008900009253B700C780C196378242B0BD1082A9E
:1008A00002D80FE0AA420DD32378E418ED1863783C
:1008B000ADB2242BF6D0052B1FD0042B02D16379C7
:1008C0000A2B2DD0204C200003F03EFD3F28D7D925
:1008D0002600103E0020F17803F06CF90028CFD0FC
:1008E000200003F031FD3F2815D922004023F17884
:1008F000B832002003F086F9C2E72100300003F08F
:100900003FF90028BBD0A3787B702378ED18E4185A
:100910006378ADB2D1E7F178002003F05FF9AFE77B
:100920000A4B2778019301330093022202233000FF
:10093000E11903F0D7F80028A1D00E35ED19ADB2BA
:10094000C0E7C04600110020101100200211002055
:10095000F8B5602314001278050013400020202B06
:1009600012D12F4A6379277916781B023B439E42A6
:100970000AD16378222B28D007D8202B17D0212B1F
:1009800002D101293ED00120F8BD232BFCD1012941
:1009900040D00329F7D1234B002BF4D0E178A37882
:1009A00009020020194300E000BF0120ECE7012903
:1009B00028D00329E7D11C4B002BE4D008320020BB
:1009C000110000E000BF0120DEE7012922D0032949
:1009D000D9D101252E00A378E478023924021C43E2
:1009E0001471264024321000714003F0A1FE0F4B19
:1009F000002BC8D06208002031002A40FFF70AFE11
:100A00000120C1E7072321002800094A03F038F933
:100A10000120B9E72100280003F01AF90120B3E70B
:100A2000001100200000000000000000150600106A
:100A300008110020F8B557464E464546DE46E0B55B
:100A4000484F8046FA780C001E008A4263D19AB261
:100A500010233D009B46C835BB442900584603F08F
:100A600093FD414BD946002B18D07B79D946FF2BFB
:100A700014D0002E12D0AA19924603E00135554534
:100A80000CD07B792A789A42F8D1484603F054FC7E
:100A90000028F3D1797900E000BFEFE7334B002B5A
:100AA00004D0484603F048FC002851D0484603F0E3
:100AB0004BFC3F2834D84A46103A9378A34207D0DB
:100AC00001242000F0BCBB46B246A946A046F8BDB2
:100AD000274B002B02D0002000E000BF0020FFF7D2
:100AE00019FE0028ECD1234D280003F00FFC00284C
:100AF000E6D1002EE4D0B306E2D1243D4046A978E9
:100B000003F058F8041EDBD0002300224046A978E9
:100B100003F078F8D5E7BB788B42D9D00024D0E732
:100B20004D46103D0020E97803F044F8002801D13B
:100B3000AB78C3E7484603F007FC3F280BD94A4689
:100B400040230020E978B83203F05CF8AB78B5E7D1
:100B5000FFF76EFDAAE70020E97803F03FF8AB78D5
:100B6000ACE7C04600110020000000003106001074
:100B7000000000002411002000487047F8490010D0
:100B800000487047944900100048704758490010C9
:100B9000F0B5DE4657464E464546E0B58DB00028D6
:100BA0002DD0032837D0052800D983E0454B80009D
:100BB000C558280003F0E0FD0400202800D977E0A4
:100BC000002800D178E0404B98469A1C0023E95C4D
:100BD0000133118002329C42F9D8C02301349B00BA
:100BE00064001C43A3B2039343464046039A1A8011
:100BF0000DB0F0BCBB46B246A946A046F0BD324B94
:100C00000222981C98462F4B196801F093FFC123CC
:100C10009B000393E8E72D4B002B3FD004AD102140
:100C2000280002F007F98446102801D910239C46B9
:100C3000002841D063469A00C02302329B00134330
:100C40009BB203930F22002691461F4B01969846B4
:100C50009C1C009508AB18001D4F62CF62C04D462A
:100C60003968029001600099194E087805405D5D71
:100C7000834665801D0007CE07C53D68029A156052
:100C80005A461111595C019A2180009901320131B3
:100C90000192009104346245DDD3A5E70D4B0E4A65
:100CA00004AD049205930D4B039308239C46C9E7BA
:100CB000202485E700209BE7094B0393024B9846CD
:100CC00092E7C046E40D00205C120020352E001093
:100CD0000C49001089ABCDEF0123456722030000CA
:100CE00002030000024B18688007C00F7047C0461F
:100CF00000C0064070B5EFF3108C72B60D4D2B6836
:100D0000002BFCD0BFF35F8F0724CB08C618C05C54
:100D100001230C40A3401C000440034207D10343BD
:100D20003370BFF35F8F2C608CF3108870BD1000A0
:100D300001F08CFB2C0100D0F8B54746CE46884622
:100D400080B5EFF3108C72B6214D2C68002CFCD0CE
:100D5000BFF35F8F9A422CD8D4080727055D061988
:100D600001241740BC402C421FD00721012789468F
:100D700009E0D408055D06194C4639001440A1402D
:100D80000C00294211D001329342F2D2012040429C
:100D9000BFF35F8F00220E4B1A608CF3108800287F
:100DA0000FDBC0BCB946B046F8BD2C431000347010
:100DB000EEE7BFF35F8F00232B608CF310880120D8
:100DC00040424346002BECD0089801F03FFBC04660
:100DD0002C0100D00021044B044ABFF35F8F02C3F3
:100DE0009342FAD17047C046000100D0800100D084
:100DF000044A1078431CDBB2172B00D91023137060
:100E00007047C046FC0D002000B5054B83B00100C3
:100E1000009318221F230348FFF78EFF03B000BD85
:100E2000C04A00105016002001238340002904D03E
:100E3000034A1360034A13607047034A1360FBE7D9
:100E400080E200E000E100E080E100E0024B1030D1
:100E50009B688000C058704700ED00E070B50D0041
:100E6000EFF3108672B60F4A1368002BFCD0BFF365
:100E70005F8F0D4B10309B6884001B590B4A9342C7
:100E800003D09D4201D001F0F9FA074B9B681D5138
:100E9000BFF35F8FBFF35F8F0022024B1A6086F3B0
:100EA000108870BD240100D000ED00E0CD010010DD
:100EB000F0B557464E46DE464546E0B585B00600DD
:100EC00002911700EFF3108B72B6674A1368002B7C
:100ED000FCD0BFF35F8F0025644B5D579A46002D11
:100EE00000DAA4E06B00624C03935B199B00984608
:100EF000A146C1444B4652469B79103613705D4B58
:100F0000B2009B68019299580B1B2F2B34D95A4B76
:100F1000994200D0A4E0039B584A9C46584B654434
:100F2000AD006353434602336519E418554B012164
:100F3000043B1B1B1B055B0D13436B80524BEF7176
:100F4000AB80FF23AB71029BAB604B460B43190098
:100F5000484B019A9B689950BFF35F8FBFF35F8F37
:100F60000022414B1A608BF3108805B0F0BCBB46E1
:100F7000B246A946A046F0BD01200A008243D379BB
:100F8000BB422FD845464E46130040491B1B5B41D0
:100F90005943090D3A4B63533A4B02356519043BEB
:100FA0005B1B1B05354D5B0D2B4373800426B4463C
:100FB000E0444444131F1B1B4C46A17102991B05BE
:100FC000A16049465B0D2B43A380314BE771014380
:100FD0001360BDE75800C01880002018C679BE42D3
:100FE0002BD902000623D356002BF3DA101D8246BC
:100FF0002848804604267642B446E14450464E4690
:10100000361A3005400D824656461C4895710643F7
:101010009680039A944665441D4AAD006419226087
:101020004246A371029BA280E771A36090E701F0A2
:1010300025FA002553465D5754E7101D82469088D7
:101040004005001584464046D444664604302018C6
:10105000301AE0260005400D360230438046C9E7CD
:1010600001F00CFA57E7C046240100D0081C00200C
:10107000000E002000ED00E0CD01001000E0FFFFB9
:1010800000A1FFFF300E002001BDFFFFAAAA000053
:101090000148804701BD0000F0B5DE4657464E4688
:1010A0004546E0B50C0083B0EFF3108972B6584A9C
:1010B0001368002BFCD0BFF35F8F564B9A68030078
:1010C00010339F00D559544A9046954232D0A542DC
:1010D00043D0524EAA1B2F2A2CD80122824092467E
:1010E00051464F4A12681140019151464D4A1160D4
:1010F000BFF35F8FEFF305829346002A33D10123BC
:101100002A009A4393689C4208D177E04B005B1811
:101110009B00F3189968A1422AD01A000621515663
:101120000029F3DA019B002B19D052463E4B1A607E
:101130003B4B1A60374B9B68DD51BFF35F8FBFF3AA
:101140005F8F0022324B1A6089F3108803B0F0BC25
:10115000BB46B246A946A046F0BD1500EAE7524696
:10116000304B1A60E6E79342C9D001F087F9C6E731
:1011700006215956002921DB4A00501880003418F6
:101180008046A0689860E079D87106202056987152
:10119000002824DBA488F01A6405241544440019AF
:1011A000E0240005400D24022043988052181F4B74
:1011B0009200B6181A781970B271B3E7594600292F
:1011C0000FD1FF3191711A49918018490A789A71AB
:1011D000184A9B1B5B415A43120D0A70A2E716483E
:1011E000E3E7164A1649D21A083A5002400D014365
:1011F0009980144952080A43DA8093E70621515630
:1012000013000029B8DA5A46002AEAD14546DCE73D
:10121000240100D000ED00E0CD010010000E002000
:1012200000E100E080E100E080E200E0081C002036
:1012300001BDFFFFAAAA000001BD00003A0E002078
:1012400000F0FFFF00F8FFFF70B5EFF30581012408
:101250000443EFF3108C72B6214A1368002BFCD0C4
:10126000BFF35F8F1F4B05001F4AED1A6D416A43A4
:10127000120D1E4D8900AE6852B27658A6421CD09F
:101280000621595691421CD012215956914222D022
:101290001E215956914220D02A21595603249142A9
:1012A00010D0134B19781A708171BFF35F8F002231
:1012B0000B4B1A608CF3108870BDAB680D4C5C5002
:1012C000EFE700246100091989005B18FF2199717B
:1012D00009499980E5E70124F4E70224F2E7C046D2
:1012E000240100D0000E0020AAAA000000ED00E0BA
:1012F000081C0020CD01001001BDFFFF054B064A70
:101300001360064A136053609360D36013615361A6
:10131000936170478080808000E400E004E400E096
:10132000024B9C46614489000160704740000034D4
:1013300010B50400FFF75CFD01002000FFF7F0FF8F
:10134000FF232371BFF35F8F10BDC04610B50400AB
:10135000FFF74EFD01002000FFF7E2FFFF23A3800F
:10136000BFF35F8F10BDC04610B504000120FFF72A
:101370004BFD044B9C46604480002060BFF35F8FB0
:1013800010BDC0464000003483680B4810B5844649
:1013900061446244090112019A18591854684B6853
:1013A00001209C4201D802D00020C0B210BD1268BA
:1013B0000B689A42F9D8F7E7FFFFFF0F0A4B19684D
:1013C000EFF3108072B60A68002AFCD0BFF35F8F7B
:1013D0001B68BFF35F8F00221A6080F3108840BF44
:1013E000002000217047C046EC1B0020F8B557468E
:1013F0004E464546DE46E0B599460CAB1C780DAB33
:101400001B78060090469A460768002C11D1BC7BD9
:10141000002C42D065003B682D19033D59194B78CB
:10142000BB73002B00D1FB7300238B704B700B70D0
:1014300004E065003B682D19033D5919B2682A4B39
:1014400094464246E3181B0163441A604A465A60B8
:101450000A9A9A600B9ADA6000238B704B700B70BB
:101460007B7B9B46002B2BD022005946B8687B68BB
:1014700098473A68002816D05B4658465B005B44A4
:101480005519033BA870D118D35C002B00D06B70AA
:101490005B460C707B73A34513D0F0BCBB46B246D1
:1014A000A946A046F8BD5B465B005B44033BD318EE
:1014B0009C705119525D002A00D05A705B460B7027
:1014C0007C7342464B46307D00F004FB051E06D07F
:1014D0005346002B03D12100306800F01FFD0E9B06
:1014E000002BDAD01D70D8E7FFFFFF0FF0B5DE4606
:1014F00057464E4645460023E0B58BB00893674BF0
:101500008200D45800239B46099000F093FA626849
:1015100006000F00EFF3108572B61368002BFCD0A5
:10152000BFF35F8F23689C465B7B9946002B00D1FD
:1015300069E0A2685A4B90464B441B0198444346CD
:101540001A685B6810001900801BB941002900DC93
:1015500063E0099800F0BEFA0023002298460023B9
:101560000692079300239A466368BFF35F8F5A463B
:101570001A6085F310885346002B08D10028C4D187
:101580000BB0F0BCBB46B246A946A046F0BD089BD6
:10159000414618024B461843D047626806000F00C8
:1015A000EFF3108572B61368002BFCD0BFF35F8F8A
:1015B000002F50DB33003B4302D02369002B61D165
:1015C0002368D97B002907D04A00521819688C4635
:1015D00049466244033A51709A7B002A01D14A4637
:1015E0009A734A46DA734B46E168013BCA5C0132A2
:1015F000CA545B4623616368BFF35F8F5A461A6023
:1016000085F3108881E70023002298460023069284
:101610000793002300209A46A6E7002902D100285C
:1016200000D096E70021604600F0F6FB43461A68BA
:101630005B680692079343469B689A464346DB687D
:101640009846E3684B44013B1B7808931B02034315
:101650002361002088E72369002BB1D0069A079BFD
:10166000921BBB41002B15DB5946049101210391CC
:101670004946029141460191514620000091FFF7F1
:10168000B5FEB6E700F0D6F932003B0012184B4128
:10169000002BE9DA0122034B5242E5E7D01A002081
:1016A000FFFFFF0FFFFFFF7F10B5144C6368002B97
:1016B00004D00A211248FFF733FE10BD2300114A5F
:1016C0001021206800F0C2FA032000F0A7F90320DF
:1016D00000F06AFA03200C4900F0B6F9FFF788FB26
:1016E0000A4B9C4603232375D0231B061B686044CA
:1016F0006375074B80006060DC60DAE7480E00200D
:10170000EC1B002089130010ED1400104000003481
:10171000D01A0020F0B54E464546DE465746E0B5A5
:1017200085B0019310AB1B78060003930023994604
:10173000984600927268EFF3108B72B61368002B14
:10174000FCD0BFF35F8F3568AC7B002C3DD06700C9
:101750002B683F19033FDB195A78AA73002A00D17E
:10176000EA73B168474A8C4600980199A2181201A1
:101770006244106051600E9991600F99D1604246A9
:101780009A705A701A706B7B9A46002B67D02200B1
:101790001900A8686B6898472A68002852D05346F9
:1017A00050465B005344D719033BB870D118D35C43
:1017B000002B00D07B7053460C706B7354454FD098
:1017C000F3681B19013B187800E000207368BFF331
:1017D0005F8F42461A608BF31088002C4FD04B4627
:1017E000002B08D10002204305B0F0BCBB46B24636
:1017F000A946A046F0BD039B002B3ED00E9B0020C7
:101800000F999847030004000D000B4335D00029C1
:101810000ADA009A019B121BAB4100920193002B44
:101820000ADB039B994685E700F004F924184D4133
:1018300000940195002DF4DA0123134C5B420093D0
:101840000194EEE753465B005344033BD3189C706E
:10185000D119D25D002A00D05A7053460B706C73B8
:10186000307D009A019B00F035F981460028A7D011
:101870002100306800F052FBA2E70020B4E701200D
:101880004042B1E7FFFFFF0FFFFFFF7FF0B5EFF32F
:101890000583CE46474680B505000C0085B0002B79
:1018A00012D02C4A0020536A9C4203D8926A01301D
:1018B000AA4204D305B0C0BCB946B046F0BDE01A98
:1018C000421E9041C0B2F5E7234E02930193234B91
:1018D0000200009330000B00FFF71CFF031EE0DD49
:1018E00020BF7168EFF3108772B60A68002AFCD037
:1018F000BFF35F8FDAB294463068427B62451DD0F9
:10190000FF221A40510089460168914488464946A1
:10191000414403398978002913D0F1681B0A8846AD
:101920004244013A1278DBB29A420FD07368BFF397
:101930005F8F00221A6087F31088B2E7FF221A40F7
:10194000EBE732699342F1D13161EFE7614600F094
:10195000E5FAEBE700400540480E0020BD130010FB
:10196000F0B5EFF30582D6464F4646461000C0B5A7
:101970001038EFF3108872B6214C2368002BFCD08E
:10198000BFF35F8F0123190081401E4D1F00696363
:10199000AA461D4D29601D4D2E78AC463500C54028
:1019A0002F402B4209D1BFF35F8F276088F3108847
:1019B000E0BCBA46B146A846F0BD5346144D5F6A36
:1019C00083005D59AF420ED3124A8E439B58624644
:1019D0001670BFF35F8F0022226088F31088002BFF
:1019E000E6D09847E4E70C4B92009C4662441368AB
:1019F0001360BFF35F8F0023236088F31088D7E75D
:101A0000280100D0004005403C7005400A1C002021
:101A1000F41B002040150020D03F054010B5010008
:101A2000024A0348FFF766F910BDC046DC4A0010C1
:101A3000071C0020034B596A0A00986A596A8A42B7
:101A4000FAD170470040054070B504000D00EFF377
:101A5000108672B61A4A1368002BFCD0BFF35F8F52
:101A6000002D1BD02000FFF7F1F9164981420AD062
:101A70002000FFF7F3F901212000FFF7D5F901233A
:101A8000A340114A1360114BA400E550BFF35F8FD0
:101A900000220B4B1A6086F3108870BD0B4BA2001E
:101AA000D5500122A2400A4920000B7893430B70C5
:101AB0000449FFF7F1FA00212000FFF7B5F9E5E747
:101AC000280100D061190010386005404015002041
:101AD0000A1C0020F0B54F46D6464646C0B5070062
:101AE0002C4C616A0D00A66A616AA942FAD18B4248
:101AF00008D805D00120E0BCBA46B146A846F0BDE2
:101B0000B242F7D9EFF3108A72B623480168002970
:101B1000FCD0BFF35F8F0125BD4020491D4C884696
:101B2000097889462943C9B28C4641466046087007
:101B3000391D1B48890065630A51B9000B50216AA1
:101B40000020294219D0616A0800A66A616A8142B0
:101B5000FAD18B4219D801D1B24216D8CC4516D051
:101B60000C4B1F201D625D6301230740BB400D4AE3
:101B70001E38136043464A461A70BFF35F8F002237
:101B8000054B1A608AF31088B5E70020F5E70120BD
:101B9000F3E7C04600400540280100D00A1C0020A1
:101BA000F41B002080E200E0EFF3108C72B60A49CB
:101BB0000B68002BFCD0BFF35F8F01238340074AE3
:101BC0000748136202789A430270BFF35F8F0023C5
:101BD0000B608CF310887047280100D0004005404E
:101BE0000A1C002070B5050014001600002915D04D
:101BF0000C00002A12D080686B689847296800287A
:101C00000ED073009B196200033B1219CB18033AE4
:101C10009C7088188A5C002A15D10670200070BD5F
:101C200063001B197200033B9219CB18033A9E7094
:101C300088188A5C002A02D104703400EEE75A70DA
:101C400004703400EAE75A700670E7E730B5836045
:101C50000023CCB243730133047342608373C473B3
:101C60000D000068012C06D9421C0133DBB2137051
:101C700003329C42F9D1FF2129404B00591800231F
:101C800040180338437030BDF8B5CE4647460600CD
:101C90000C0080B5002907D04D0003686D18033D86
:101CA0005A195778002F04D12000C0BCB946B0465D
:101CB000F8BD7900C91903398846434459788946E3
:101CC00000215970517073683A002100806898476C
:101CD0003368002814D042469A18947059195B5DF5
:101CE000002B00D053700F70270049463000FFF7DB
:101CF000CBFF390002003000FFF774FF0400D3E788
:101D0000424641465D19AF709A185B5C002B00D0CB
:101D10006B701470E9E7C046F0B557464546DE469D
:101D20004E46E0B50D006B0001685B19DF1E040034
:101D3000C85D83B00192CA19002850D043001B1817
:101D4000033BCB185E78B446002E1AD1019E002EBC
:101D500042D0E67B002E04D073009B19CB18033BC6
:101D60005D70A37B002B00D1A573E57300282FD1F4
:101D70000023537003B0F0BCBB46B246A946A04650
:101D8000F0BD72006244033A89184A7890460022F6
:101D90004A7091465A70010032002000FFF722FF7E
:101DA00043468246002B07D05B0021684344033B37
:101DB000CB185A78002A16D1424651462000FFF728
:101DC00011FF2168019BCA19002BC2D10028CFD076
:101DD00043001B18033BCB1800219970C8E7019BF7
:101DE000002BB6D1C4E75000801803380918487892
:101DF000834648464870587041462000FFF7F2FE7F
:101E0000594680462000FFF73FFF41460200200070
:101E1000FFF7E8FE8046CFE7F0B557464546DE4679
:101E20004E46E0B583B00191457B04006B0000682D
:101E30005B19DF1EC15DC219002952D04B005B182F
:101E4000033BC3185E78B446002E1CD1019E002EC1
:101E500044D0E67B002E04D073009B19C318033BCB
:101E60005D70A37B002B00D1A573E573002931D1F0
:101E7000002328005370617303B0F0BCBB46B24628
:101E8000A946A046F0BD72006244033A8018427829
:101E900090460022427091465A7020003200FFF7AF
:101EA000A1FE43468246002B07D05B0021684344D5
:101EB000033BCB185A78002A17D1424651462000DE
:101EC000FFF790FE019B01002068C219002BC0D1D2
:101ED0000029CDD04B005B18033BC318002098703D
:101EE000C6E7019B002BB4D1C2E75000801803382D
:101EF0000918487883464846487058704146200083
:101F0000FFF770FE594680462000FFF7BDFE4146B0
:101F100002002000FFF766FE8046CEE770B50400A1
:101F200000292CD0437B8B422ED0056848004018F6
:101F3000033828188278002A21D053009B18033BCD
:101F4000EA5CEE188A4202D11BE0002A08D0530056
:101F50009B18033BEB185A788A42F6D142785A70A4
:101F600000230122837043702000FFF7D5FE617BC0
:101F700002002000FFF736FE6073012000E0002021
:101F800070BD43783370EBE701221900FFF7C4FE00
:101F900060730120F4E7C04630B50C2083B000F038
:101FA000B3F9FEF79FFE00280ED0994B994A1A60AC
:101FB0005A609A60DA601A615A619A61DA611A624B
:101FC000954A5A6203B030BD944CA06700F0A4F962
:101FD0000122934B1A60636C012BFCD10322914BBD
:101FE0001A608E4A936B012BFCD1013301218E4A7A
:101FF0008E480093043300F037F905238C4A009390
:1020000001218C4800F030F98B4B5A68FF2A02D826
:10201000802252005A6080227D4C824B216912013D
:10202000854D1A60002907D0606900F087FA431CCB
:102030005800C0180338FDD2E0217F4B02201A68F7
:102040001140802252012A4311601968484003213F
:102050000140116004219A681142FCD08022802145
:1020600092012A4309011160802252005A60734B89
:102070002361734B5968FF2900D85A600321684ACD
:102080006F4B116002399A681142FCD0E0201A6847
:102090001040802252011A43106018684840032102
:1020A00001400220116066498A681042FCD08022FB
:1020B00092011343802212011A608022614B520068
:1020C0004A606361604B5968FF2900D85A608022DA
:1020D0005E4BE16912015C4D1A60002907D060690E
:1020E00000F02CFA431C5800C0180338FDD2E0223F
:1020F00055490B681A4080235B012B431A608023EB
:1021000080229B012B4312011A608022414B520016
:102110004A60E3614E4B5968FF2900D85A6080221B
:102120004C4B216A12014A4D1A60002907D06069A0
:1021300000F004FA431C5800C0180338FDD2E02216
:1021400043490B681A4080235B012B431A608023AC
:1021500080229B012B4312011A60802380225B00A6
:102160004B602C4BD20223623B4B5968914200D208
:102170005A608022394B616A1201374D1A6000297A
:1021800007D0606900F0DAF9431C5800C018033822
:10219000FDD2E02230490B681A4080235B012B43BB
:1021A0001A60802380229B012B4312011A60802336
:1021B000DB024B60184B6362294B5A68FF2A02D836
:1021C000802252005A608022264BA1691201244DC0
:1021D0001A60002907D0606900F0B0F9431C58006C
:1021E000C0180338FDD2E0221D490B681A40802335
:1021F0005B012B431A60802380229B012B43120139
:102200001A6080235B004B600E4BA361DAE6C04688
:1022100054160020006CDC021BB700000080004058
:102220003CB0004030B00040002F685900800240B0
:10223000008C864700C0024030800040001BB70081
:102240003C800040405973075480004054B0004027
:102250006080004060B000406C8000406CB0004086
:102260004880004048B00040F8B5040021481D00F7
:1022700017000E0000F062F90100380000F05EF96E
:10228000069B29041B0319432368002B20DB1A4BF0
:102290001A4DE21853425A4180235B019C461203B7
:1022A000174B62441A60174B1A601700AB689F43C4
:1022B000FBD1C022231D92011A4321232660A06076
:1022C00013602368002BFCDA0823E1601360F8BD7B
:1022D0003F2322681340B342D9D1A3681B051B0DCD
:1022E0008342D4D1EE22E368D20213408B42CED196
:1022F000EDE7C046001BB7000040FDBF00C0004036
:1023000000E0004000F000408023024A9B000343AD
:10231000D362704700800540AA23064A1B01136060
:102320002F230549D360054B19605368002BFCDA55
:102330007047C0460040024000B0FA000060024012
:102340002C4B2D4A70B51A602C4A2D4B2D491A6022
:1023500014008B689C43FBD12B4D2C4EB54208D208
:10236000013E761BB60808CD984723000134B342DE
:10237000F9D1FFF711FE264A214B1A60214A9368D2
:10238000DB43DB01DD09002BF9D14022214B224C3C
:10239000224E9A675A671A67DA66B44208D22368EF
:1023A0002000002B20D00834FEF7D0FFB442F6D333
:1023B0001B4E1C4CC022A168300000F0BBFBA66085
:1023C000FEF708FDFEF79AFFFFF76EF9164C174E61
:1023D000B44208D2013E361BB60808CC98472B0001
:1023E00001359E42F9D170BD0834FEF7A1FFB44219
:1023F000D5D3DDE700E00040BFCDFBFEFE7F3C0013
:1024000000F0004000C00040C80E0020D80E0020A0
:10241000FFFFFF0100F00140B80E0020C80E0020B1
:102420000000002000ED00E0D80E0020E00E0020AB
:1024300010B5034800F050F8002103000020984731
:102440005542000010B5FFF7F3FFC0460FB400B5CA
:10245000084883B000F0A0FC049B002B07D005A91E
:102460001800019100F018F8034800F095FC0120D5
:10247000FFF7DEFF004B0010D848001010B50148F0
:10248000FFF7E4FF104B001010B5002800D110BD7D
:1024900000F036FCFBE7C04610B5094A030014689B
:1024A00084B0002C08D0012200910648524203A9B2
:1024B000A047012004B010BD00F06EFC0020F9E739
:1024C000C81A00208924001001480421014B184734
:1024D000700E0020F9240010142310B50100188894
:1024E00004331B88984710BD162310B501001888C7
:1024F00002331B88984710BDF8B54746CE4680B5D5
:102500000F1E19D014239946043304000025012618
:1025100098464B461888434621681B88984701C453
:10252000431E9841013540420640AF42F1D1300090
:10253000C0BCB946B046F8BD0126F8E7114A936F12
:102540009B0813D210665166002905D0FFE7FFE70C
:10255000FFE7516F106F704704B5002801D00020CD
:10256000C04302F061F9002104BDC046F0B5146E0D
:10257000556E576F166FFFF7E5FF14665566576780
:102580001667F0BD000000D094464A4A926F920848
:10259000624601D228E0C046F0B5464E346E756EF4
:1025A000776F366F00F020F89446424A14665566FD
:1025B000576716676246F0BD94463E4A926F92088E
:1025C000624601D254E0C046F0B53A4E346E756EA4
:1025D000776F366F00F04CF89446364A14665566AD
:1025E000576716676246F0BD002B24DB11D0002927
:1025F0003EDA00B5C943404200D1013100F038F85D
:10260000C943404200D10131DB43524200D1013382
:1026100000BD002AEBD1002801D1002905D00020FF
:10262000C90FC90701D1C043410800B502F0E4F861
:102630000022002300BD00B500290ADBDB43524223
:1026400000D1013300F014F8C943404200D10131F8
:1026500000BDC943404200D10131DB43524200D1A9
:10266000013300F005F8DB43524200D1013300BDD5
:10267000002923D1002B18D1002A0CD0BC460D4FC5
:1026800038667A6600210023FFE7FFE7FFE77A6FED
:10269000386F67467047002801D00748010000B531
:1026A00002F0AAF80022002300BD02000B00002067
:1026B00000217047000000D0FFFFFFFF002B00D07B
:1026C000BFE0130C28D1002AE7D080B4114F39663F
:1026D0007A66FFE7FFE730B4040C7B6F396F1B04A9
:1026E00023433B667A66FFE7FFE7FFE7C04684B215
:1026F0007B6F3D6F1B0423433B667A66FFE7FFE772
:10270000C04600232C042D0C7A6F386F00196941E4
:10271000B0BC7047000000D0F0B594460025140E00
:1027200001D112020835140F01D112010435940FA2
:1027300001D192000235D40F01D152000135D40BE2
:102740000134254F7C66254C3C660E0C93B2FFE7A6
:10275000FFE7FFE73C6F6643360C7703BE467343E3
:10276000DF0B5B04C01AB941130C7343DB18C91AA1
:10277000CE086643360CB64493B273431F0F1B0159
:10278000C01AB941130C73431F0B1B05C01AB94182
:10279000860D8F023E436643360C092D24DB520A18
:1027A0007243801A7703460A6643360C16235B1B76
:1027B000DE40DF40BF1964466643821B7046043525
:1027C00006330100D940A840C01900D30131A2420C
:1027D00006D20023F0BD0000000000D0FFFFFFFF85
:1027E000121B0130F3D3F1E709277F1BFE4064463B
:1027F000A2B27243801A00D20139220C7243130C28
:102800001204821A99410B007046043513370100F7
:10281000F940A840801900D30131002B02D1A24217
:102820000AD2F0BD013000D30131121BFAD2013BB4
:10283000F8D1A24200D2F0BD013000D30131121B09
:10284000F7E7F0B51C0C00D080E00CB400251C0AA2
:1028500004D11B02160E3343120208351C0B04D19F
:102860001B01160F3343120104359C0B04D19B004E
:10287000960F334392000235DC0B02D192185B4174
:1028800001351C00971864410134464F7C66464C64
:102890003C660E0CFFE7FFE7FFE7C0463C6F664370
:1028A000360C7703BE4697B27743C01B00D201397E
:1028B000C01B00D201399FB27743C91BC91B170C3B
:1028C00077437E04FF0B801BB941CE086643360C6C
:1028D0000C2D33DBB644120B1F053A431B0B97B28A
:1028E0007743C01B00D201399FB27743C91B170C35
:1028F00077433E043F0C801BB941860D8F023E4357
:10290000664329277F1BFE400C3D7746AF40BF1929
:1029100030BCA2B2ABB272437343801A9941220C0D
:102920007243130C1204801A994102000B00013704
:10293000001BA941F9D2781E0021F0BD0C277F1B96
:10294000FE4077467F0BAF40FF19E0E700245D1C97
:1029500007D0144F7D663966FFE7FFE7FFE7FFE723
:102960003C6F95B29EB265436643401BB141150C66
:102970001E0C6543664336042F0C3E432D04401B5A
:10298000B141994204D202000B0020000021F0BDA9
:1029900001D19042F7D3801A994101349942F2D380
:1029A000F6E70000000000D0FFFFFFFF10B5014870
:1029B000FFF74CFD1C4B0010132370B51D78012D43
:1029C00011D035DD1C48FFF78FFD1C4C0100802223
:1029D000200000F0AFF8022D27D01948FFF77CFD4A
:1029E000184B186070BD184B144C23606360A360D3
:1029F000E36023616361A361E36123626362A362B5
:102A0000E36223636363A363E36323646364A36494
:102A1000E36423656365A365E36523666366A36674
:102A2000E36623676367A367E367084BA364D4E7A0
:102A3000024C064BA364D0E753440000E00F002093
:102A40004C330000E81A0020AD290010512A001074
:102A500007B5604601880A0A0230DF2AFAD1C9B2F6
:102A6000820804D3028840880004104300E0006814
:102A7000014A5050039007BDE00F002051434343EB
:102A8000C9188C46110C83B24B4310B4040C61433B
:102A900092B280B2504362431C041B0C001910BC5C
:102AA00059411304120CC018514161447047000091
:102AB00010B50148FFF7CAFC1C490010132310B5DC
:102AC00010481C78FFF710FD0100012C0AD003DD2F
:102AD00080220D4800F02EF80C48FFF7FDFC0C4B4F
:102AE000186010BD084C5422200000F023F8230089
:102AF000084A80332168002900D122600434A342AF
:102B0000F8D1E9E753460000EC1A00204C330000EE
:102B1000E81A0020B12A001001480421014B18478F
:102B2000800E0020F9240010014B1B68184700009C
:102B3000800E0020014B5B6818470000800E0020CB
:102B4000030010B5080011001B68984710BDC0466F
:102B5000F0B546464F46D646C0B5437D80460E008A
:102B60001700002B46D0002A3FDD4B1E9946244B10
:102B70000125002400209A460DE04B461B5D0D3BCD
:102B80005A425341325DDBB20A2A0BD02B0001348A
:102B900001359F421ADD002CEFD14346325D1B7D8B
:102BA0000A2AF3D1002BF1D1A04204DA4346211ABC
:102BB0001B6830189847434650461B6802219847C7
:102BC000013428002B0001359F42E4DC874204DDFC
:102BD0004346391A1B6830189847F619013E337876
:102BE0000D3B5A42534142461375E0BCBA46B146CA
:102BF000A846F0BD0368110030009847F5E7C046CD
:102C0000A04B0010F0B5DE4657464E464546E0B5AF
:102C100085B017001C0006000D00FEF70BFF002317
:102C2000304A12184B41002B58DB2F4908008A46C6
:102C300001F012FE01906B1C03D1300001F09CFDED
:102C40000500002C25D1294B9846294B1C68002CE7
:102C500015D0002F20D1274F02E02469002C0ED080
:102C60002368002BF9D03B68002B01D0A342F4D19C
:102C700020002A003100C0472469002CF0D1019BBC
:102C8000002B27D105B0F0BCBB46B246A946A046F2
:102C9000F0BD194B9846D8E7164B994602ABDF1D9D
:102CA0000A239B4602E02469002CE8D02368002B0D
:102CB000F9D04B461B68002B01D0A342F3D12A0068
:102CC00031002000C0475B460122390020003B70E4
:102CD000C047E8E7504601F087FDD3E70122074BE4
:102CE0005242A2E740420F00C00E0020512B0010BC
:102CF000BC160020C4160020412B0010FFFFFF7FF0
:102D0000F0B5CE46474680B583B06B460600DD1D64
:102D10002870FEF78FFE00231A4A12184B41002B31
:102D20002BDB19490800884601F096FD174B8146B8
:102D30001C68002C14D0164F02E02469002C0FD020
:102D40002368002BF9D03B68002B01D0A342F4D1BB
:102D5000200001222900FFF7FBFE2469002CEFD19F
:102D60004B46002B05D1300003B0C0BCB946B0467D
:102D7000F0BD404601F038FDF5E70122054B524217
:102D8000CFE7C04640420F00C00E0020BC16002016
:102D9000C4160020FFFFFF7F70B5040001F0ECFCBB
:102DA00000230100050001222000FFF72BFF084B44
:102DB0001C68002C06D06368002B05D09847246956
:102DC000002CF8D1280070BD2469002CF3D1F9E75C
:102DD000BC16002010B5024800F00CF810BDC0462B
:102DE000E01A002010B508220149FFF7A3FE10BD2C
:102DF000E01A002030B5002589B004000922002126
:102E000001A80095FFF790FE0922002105A804956E
:102E1000FFF78AFE4B236A466846137004A90D2209
:102E200001F0DAFC1521082220006944FFF782FE38
:102E300009B030BD30B583B0050068460C00FFF71F
:102E4000D1FF072C00D90824220069462800FFF78B
:102E500071FE200003B030BD7047C0467047C046C9
:102E600010B501210520FDF7DFFF10BD10B50022D0
:102E70000021024800F05AF910BDC046E8160020B3
:102E80008022024B5202DA647047C0460020115083
:102E9000F0B5C64600B5060000F022F90C231B4D24
:102EA000FF22AB6705201A49FEF702F84023984637
:102EB000184C402200212000FFF736FE4346012730
:102EC000238321210023144A6770A2601360635496
:102ED0005F31618441462187053963540F4A1049A7
:102EE0006360E260A1620B606362E26201F0ACFCCD
:102EF00080239B052F64EB6490230A4A3000EA503C
:102F0000FFF7BEFF80BCB846F0BDC04600001150C0
:102F1000B5040020C8160020840010500001105095
:102F20008000105010D001000B785B0602D14B7866
:102F3000052B00D070478A78014B1A60FAE7C0462B
:102F400000001150F0B5C64600B54B790C791B0254
:102F500088782343CC787F21A4070140C509A20FBC
:102F60004F001400324E7A195201B21890700120AD
:102F70006840507000205B055B0DD0701383D476E1
:102F80008046CA00012D33D02A4884468801624415
:102F90008446B4446046826040461060002933D0C5
:102FA000254AC90090466246414451603F223F3362
:102FB0009343022C00D15B0020487A19016852012A
:102FC000B218D1601E4ACB18036051405340802292
:102FD00088465201934228D84346A4061C438023C6
:102FE0007F197F011B06F6191C4373681C6011E0F2
:102FF00014488446880162448446B4446046826230
:1030000040461060002909D100236D0176197360D4
:103010000D4BF360012080BCB846F0BD084AC900E2
:103020009046624641445162C0E7FFF727FAD3E772
:10303000C81600208400105004001050CC1A002044
:1030400000001050800010500001105010B501F029
:10305000FBFB10BD10B57F200C0020404000E409B0
:10306000110000191A00034B4001C01800F05EF86F
:10307000012010BDC81600207F22130010B50B40A0
:103080000A420BD0C9098022580040180649400165
:1030900040181201002101F0F7FB10BD0222034885
:1030A000C909521A8266EEE7C816002000201150A6
:1030B0007F22100010B508400A4200D110BD002345
:1030C000C90940004018044940010818002203497A
:1030D000C37001F0D9FBF1E7C8160020FFF7FFFF2E
:1030E00080220D4B520410B51A600C4B0C491A602B
:1030F00010008B689843FBD10A4C9C2200212000D1
:10310000FFF712FD8022002152010748FFF70CFD56
:103110000923636710BDC04600E0004000F0004096
:1031200000C00040000011500000105070B5837EB8
:1031300004000D001600002B17D10023E382013399
:103140002000A682A376256101F05EFB002804D052
:1031500080219023084A8902D150200001F05CFBB5
:10316000002805D00123237770BD01F085FBE4E73B
:10317000200001F079FBF7E700201150024B58784E
:10318000431E9841C0B27047E8120020024B1878E5
:103190004007C00F7047C046E8120020F8B5474608
:1031A000CE4680B52A4F06003B780120FF2B03D086
:1031B000C0BCB946B046F8BD532200212548FFF7F0
:1031C000B3FC254C2000FEF7B3F8244B1C60244CC4
:1031D00020001430FEF7C8F8200001F089FA214BD6
:1031E000214D1C60214B002B04D0280000E000BFC3
:1031F0001F4B18601F49002489461D49002288463C
:103200002B7811E042461268630094461B19DB00DC
:103210006344002B19D01B6898472B780134E4B223
:10322000591C2200A14207DBA342EBD8D21A53005B
:103230009B18DB004B44EEE730003E70FFF728FEA2
:103240003000FFF70DFE0120B2E70020B0E7C046D6
:10325000B40E0020E8120020A01200203C13002031
:10326000980E002040130020041C002000000000E5
:10327000FC100020984C0010F0B5DE4657464E4634
:103280004546E0B5CC4B8DB09B461B78FF2B00D15B
:1032900014E1CA4E09AC35686A69EFF3108172B661
:1032A0001368002BFCD0BFF35F8FA96128002100B9
:1032B00001F060F86A69AB69BFF35F8F00211160AC
:1032C00083F31088002800D1F8E06378082BE2D857
:1032D000BB4A9B00D3589F466368002BDBD0A06895
:1032E0009847D8E77F232179B64D0B405800CA098B
:1032F0002D18AD182A0001273032D078B843D0708D
:10330000D0780337B843D070002B00D1F5E0AE4A37
:10331000EB7C1278934200D3CDE05A00D218AB4B2D
:10332000D2001B689B18002B00D1C7E01D69627991
:103330002078A368A847AEE70122A24D01212B788F
:10334000042013432B703323EA5C8A43EA54EA5C7B
:103350008243EA540133EA5C8A43EA54EA5C8243DA
:10336000EA54237800209A4600F0F2FC6022237988
:103370001A40602A0DD0402A00D1C4E0DB06DB0EE3
:10338000012B00D1D5E0022B00D12DE1002B00D183
:1033900005E120780021FFF76FFE80212078FFF7FC
:1033A0006BFE78E7874D2B78DB0700D473E7884BFB
:1033B000002B00D16FE728780007C00FFDF7ACF8AD
:1033C00069E78449804F23788A4680499846894630
:1033D00039003B78002247460025884613E04A46DC
:1033E00012686B0094465B19DB006344002B59D0D4
:1033F0005B683800984743461B780135EDB2591C8D
:103400002A008D423DDCAB42E9D8D21A53009B180A
:10341000DB005344ECE76B4D2B78DB0700D43AE735
:103420006D4B002B00D136E7FDF77EF833E7694995
:10343000654F23788A4665499846894639003B7826
:10344000002247460025884613E04A4612686B0072
:1034500094465B19DB006344002B4CD05B6838005A
:10346000984743461B780135EDB2591C2A008D421E
:103470002BDC9D42E9D3D21A53009B18DB00534446
:10348000ECE7504D532200212800FFF74DFB10229E
:10349000FF21E81CFFF748FB28002022FF21133002
:1034A000FFF742FB00F04AFC4C4B002B00D1F2E648
:1034B000FDF72CF8EFE6501C984233DA0DB0F0BC63
:1034C000BB46B246A946A046F0BD3E4D5322002160
:1034D0002800FFF729FB1022FF21E81CFFF724FB3F
:1034E00028002022FF211330FFF71EFB00F026FCEE
:1034F0002379AB70CFE6334DF8E762792078A36883
:1035000000F03AFCC7E63648002800D141E700F059
:103510001FFC012150460AAAFDF716F8002800D02A
:10352000B9E636E79B1A5A00D2182A4BD2009B18EC
:10353000FCE6237A0F2B00D92BE7234AEB18DB7824
:103540001278934200D3C3E0204A5D00EB1815685F
:10355000DB00ED18002D00D11BE7E86800F0F8FB58
:1035600001215046EB680AAA9847002800D092E64D
:103570006022150023791D401A4200D009E76379C3
:103580000A3B012B00D904E700F0E2FB63790A2B28
:1035900000D198E150460AA900F05AFB7BE6202AA8
:1035A0004DD0002A00D0F4E66379092B00D9F0E66B
:1035B0000C4A9B00D3589F46B40E002040130020B5
:1035C0000C4C0010E8120020041C0020FC1000200D
:1035D00019050010984C0010290500100D05001069
:1035E00049050010304C00107023217A0B4200D0A6
:1035F000CFE60F330B405B00E818CF090193B64BC1
:10360000C0191B78C07C9C46984235D2430098462E
:10361000B24B40441B68C00098468044002A3BD00F
:103620004346002B00D1B4E64346D86800F090FB37
:10363000434601215046DB680AAA98476EE7237A81
:103640000F2B00D9A5E6A44AEB18DB781278934239
:1036500049D3511C994200DA9BE69B1A5D00EB1896
:103660009F4DDB00ED18E86800F072FB0121504629
:10367000EB680AAA984751E701236344834200DAC2
:10368000FAE06346C01A43009846954B404498467A
:10369000C0008044002AC7D163791A0099460223EA
:1036A0009A43012A00D1C4E04B46002B00D070E6BB
:1036B000019B08AAEB18DF193037FB7802329B0711
:1036C000DB0F1380504602230AA900F0D9FAE2E585
:1036D000511C994200DA5CE69B1A5D00EB18804DA4
:1036E000DB00ED1839E77D4A5D00EB181568DB005B
:1036F000ED18002D00D14CE6B5E7A37902931A002E
:103700006B789A420CD06B78002B00D05FE1029B63
:10371000002B00D0F0E0734B002B01D0FCF7F6FE3D
:10372000029B50460AA96B7000F092FAB3E56B78E1
:1037300008AA02321370504601230AA900F0A0FA29
:10374000A9E50220297808AB9A1C8B068908DB0FB3
:1037500001400B43B5E7E088030AC0B20F2B00D944
:1037600017E661499A008A5897460AA800F0F6FAC7
:103770005046A179FFF77AFB02222B7813432B7076
:1037800089E5E388012B00D003E608222B78504618
:1037900013430AA92B7000F05BFA7CE5E388012B48
:1037A00000D0F6E508222B78504693430AA92B70E7
:1037B00000F04EFA6FE54D4B002B00D1E9E5FDF727
:1037C000E3F9021E00D1E4E5D37891781B020B43A4
:1037D00050460AA900F054FAA0E6454B002B00D150
:1037E000D7E500E000BF021E00D1D2E550461378B5
:1037F0000AA900F045FA91E62189FDF7C9F9021EF0
:10380000F4D1C6E5022B00D122E13A4B002B00D1C6
:10381000BFE500E000BF0200002A00D1B9E5D3E710
:10382000FDF7AAF9122302000AA9504600F028FA6F
:1038300074E6E288002A09D14B46012B22D0019B75
:10384000EB18DF193037FB789B072FD54346002B49
:1038500000D120E5D86800F07BFA43460121DB68FF
:103860000AAA50469847002000F072FA3423EB5C15
:10387000DB0700D50FE58DE6002A00D089E500239F
:10388000984609E7019BEB18DF193037FB789B0757
:10389000DCD55B461878FFF70BFC0222FB789343DC
:1038A0004A46FB70FB789343FB70CFE75B46187882
:1038B000FFF7E2FB0222FB7813430122FB70FB7847
:1038C0001343FB70C2E708AB9A1C504601230AA9B8
:1038D000157000F0D5F9DEE4041C0020FC10002077
:1038E000984C00100D050010584C0010890B00106A
:1038F0000000000000000000581EC0B2FDF740F9B3
:10390000002800D145E543780693022B00D040E51E
:10391000C179013B8A1149111A400B4030215201F3
:103920001B0113432A788A4313432B7009239946BA
:1039300081444F46A946C37882781B021343C318BB
:103940000493049BBB4200D886E001227B7801925D
:103950000B2B04D1FB7801933B78FF187B78042B69
:1039600000D016E50022049BB846DB1B9BB20593F2
:10397000574B17001B7803921EE0564B7D001B68C7
:10398000ED199C46ED0065440793002D00D100E53C
:1039900041465046059AAB6898478446082802D9A4
:1039A000059A824260D24A4B01371B78FFB25A1CFB
:1039B0000397974200DDECE4BB42DED8039AD31AAA
:1039C0005D00ED18444BED009C466544E0E7504631
:1039D000FFF73CFBAB783F49019389460023290060
:1039E0003B4F1D0088463A7812E04A4612686B0049
:1039F00094465B19DB006344002B27D05B6850467C
:103A000098473A780135EDB2511C2B008D4209DC04
:103A10009542EAD39A1A53009B182F4ADB0094462A
:103A20006344EBE74546532200214046FFF77CF80C
:103A30001022FF21E81CFFF777F840462022FF21E3
:103A40001330FFF771F8019BAB7060E64546FAE76B
:103A5000FDF796F80200DFE6204B4D46002B00D123
:103A60005EE6FCF74BFD5BE63B0047469846019B54
:103A7000012B25D0019B002B10D000234546B9789F
:103A8000CA18D2B24A44D078FF2800D081E4D57059
:103A90000133019ADBB29342F2D3A8464846654609
:103AA000624643463900133000F0DEFBAC46084B5B
:103AB000039A1B7867440133934200DB41E768E4D3
:103AC000074BAA689A42D8D1069B0193D5E7C04616
:103AD000041C0020FC100020984C0010FD04001075
:103AE0006D080010F8B557464E46DE4645460C00B8
:103AF000E0B516001F00002A3CD0702398461E4BEC
:103B000000259B461D4B9A461AE05B461B78200019
:103B100099465346997800F06BFB00281CD0210091
:103B20004846FFF70FFA002816D0A378DA09012AD1
:103B300019D00A9A013513702378E418B54219DABE
:103B40006378052B08D1E3789B079B0FBB4203D119
:103B50004246A3781A42D8D00020F0BCBB46B246F9
:103B6000A946A046F8BD0B9A013513702378E418D6
:103B7000B542E5DB0120F0E7B40E0020E81200209A
:103B8000702270B58B780C001A4201D0002070BDF5
:103B9000064B20001D78064B997800F029FB002881
:103BA000F4D021002800FFF7CDF9F0E7B40E002093
:103BB000E8120020074B080019687F2310B5034066
:103BC000C0095B0033301818034B181800F0CCFA0A
:103BD00010BDC0463C130020E8120020074B08002F
:103BE00019687F2310B50340C0095B0033301818F3
:103BF000034B181800F0E0FA10BDC0463C1300203B
:103C0000E81200207F2070B508400F4C4000CD091D
:103C1000241864193034E5780020ED0700D570BD14
:103C20000126E578094835430078E570FFF712FA78
:103C30000028F4D10122E3789343E370E378033260
:103C40009343E370EBE7C046E8120020B40E002077
:103C500070B50A4E0500300008220C00FEF76AFF1E
:103C600000237F21F3602278B36091425B412800FA
:103C7000D90100220023FFF7C5FF70BD48120020C4
:103C8000F8B5CE46474691462A4E80B50822070031
:103C900030000D009846FEF74DFF4B46B360002301
:103CA000F381EC79A97924020C43231C444500D903
:103CB00043469AB29046B381002C13D0002A1FD0FD
:103CC0004B46002B34D0131C402A1FD89BB2984679
:103CD00033787F2B20D80021174A43463800FFF75E
:103CE00091FF09E07F222B7838009A42644100233B
:103CF0000022E101FFF786FFC0BCB946B046F8BD1F
:103D000033787F2B11D980210022E6E740239BB234
:103D1000984633787F2BDED9074C4246494620002F
:103D2000FEF708FF80212200D7E700210022D4E718
:103D30000020E1E748120020A812002010B514224C
:103D400000210248FEF7F0FE10BDC04648120020D8
:103D5000014B18617047C0464812002010B5054C51
:103D6000010008222000FEF7E5FE0023A360E360C7
:103D700010BDC04648120020F8B53B4C1D0023780A
:103D80000600DA09C9098A4213D00020002D00D0AC
:103D9000F8BD364B002B03D021003000FFF7C4F8EC
:103DA0002369002B44D022000321300098470120D2
:103DB000EEE77F2B06D8A068002837D02A002C49D0
:103DC000FEF7B8FEA368E28959195219E38892B246
:103DD000E281A160934214D03F2D12D9A589A81A7F
:103DE000071C80B240282FD82378BFB27F2B2DD854
:103DF0000021AA4235D01E4A3B003000FFF702FFE7
:103E0000C6E72369002B05D0220002213000984725
:103E100000280FD07F220021237830009A424941A8
:103E200000230022C901FFF7EDFEB1E70020AFE754
:103E30000120ADE700213000FFF71EF9300080219E
:103E4000FFF71AF90120A3E74027CDE7AA4207D0E0
:103E5000074C3A002000FEF76DFE80212200CBE7E0
:103E600080210022C8E7C04648120020292F0010F8
:103E7000A812002083001B1810B51B01181A80001F
:103E8000024B0430C01800F041FA10BD04140020A9
:103E9000F0B5C646840024182401241A154FA40046
:103EA000251DED1900B5280092B200F0B3FA3B19B8
:103EB0000600997800209846FFF77CFE002803D181
:103EC000300080BCB846F0BD280000F03DFA3F2825
:103ED00009D922004346BC329978D21940230020E8
:103EE000FFF790FEECE7434600209978FFF776FE57
:103EF000E6E7C04604140020F8B50500FFF73EF9D8
:103F0000002801D10020F8BDFFF740F90028F9D1C1
:103F1000AC0064192401641BA4002500124E18355E
:103F2000AD19280000F0F2F90028EBD03719002075
:103F30007978FFF73FFE0028E4D0FC34A419210073
:103F40002800402200F066FA7978051E08D00300A8
:103F500022000020FFF756FE0028D3D02800D2E729
:103F60000020FFF73BFECDE70414002070B584006D
:103F700024182401241A0A4BA4001834E41805005C
:103F800092B2200000F000FB0600200000F0BEF915
:103F90003F2801D8300070BD2800FFF7ADFFF9E7DA
:103FA000041400209E2270B5144C82B00021200021
:103FB0005200FEF7B9FD00252100012340222C31DB
:103FC000201D009500F06AF9260021002000012341
:103FD00040226C31AC360095183000F05FF93000AB
:103FE000FDF7A6F966612600B43630002561FDF7BD
:103FF0009FF96662A56202B070BDC046041400203D
:1040000010B5054C0023200008C000F071FB200013
:10401000183000F06DFB10BD04140020F0B5C6464A
:1040200000B54B7907000E0082B0FF2B04D00020B2
:1040300002B080BCB846F0BD274D6B78AC78234306
:10404000F5D18B780C782B7008790C19002824D0C6
:104050006378052B08D0A21804E0217864186178F1
:10406000052901D09442F8D31C4B020098460193D5
:1040700001330093210002233800FFF733FD0028AD
:10408000D5D03279D3009B1AE418434659785F1E85
:10409000002909D16B78002B02D1A01B80B2C7E7A1
:1040A0000020FFF729FFF8E70020FFF783FD002835
:1040B000F0D04346D81C00F047F93F2807D94246C4
:1040C0004023B978BB320020FFF79CFDE2E7B978C6
:1040D0000020FFF783FDDDE7041400200514002015
:1040E00070B51E4CA2788A4211D0627800258A42AF
:1040F0000BD11B4A002A04D01B040020190C00E03D
:1041000000BF0020FFF7F8FE0125280070BD210048
:104110009AB2BC31201D00F037FA124B002B02D0AE
:10412000002000E000BF0020A178FFF743FD051E3E
:1041300001D10125E9E7201D00F006F93F2807D944
:1041400022004023A178BC320020FFF75BFDDCE7B2
:10415000A1780020FFF742FDD7E7C04604140020F5
:104160000000000000000000037870B5DB070400C9
:104170000E00DD0F002B17D103785B0701D5280057
:1041800070BD01213000494200F056FB2378DB0767
:10419000DD0F002B0AD123785B0708D40422237893
:1041A00001251343237002E00025E8E700253000D5
:1041B00000F01AFBE3E7C04670B50D0001210400D2
:1041C0004942280000F038FB23785B07DE0F002B04
:1041D00004DB280000F008FB300070BD2378DB070B
:1041E00004D40422237893432370F2E70026F0E7F7
:1041F00010B5437904791B0223435B055A0DC3783C
:104200009B079B0F022B05D0032B15D00020012B01
:1042100008D010BD02291CD0002040239342404109
:10422000C0B2F6E702394B4259410D4B9C466144FE
:1042300091424041C0B2ECE702394B425941F02370
:10424000002049429B001940403191424041C0B298
:10425000DFE7044BD3185A425341D8B2D9E7C046DE
:10426000FF03000000FEFFFF8A1870B5914207D2DD
:104270007F264C78052C04D00C7809198A42F8D88E
:1042800070BD34008D782C4064000419ED0963552D
:104290000C7809198A42ECD8F2E7C046F0B5C64658
:1042A00000B5040006A805788020884617001E0087
:1042B0000002824227D8E068002803D00121494249
:1042C00000F0BAFA2069002803D00121494200F029
:1042D000B3FA4346236073045B0CED031D430023D4
:1042E000E0686381A780E5802381002801D000F089
:1042F0007BFA20690124002801D000F075FA200023
:1043000080BCB846F0BD0024F9E7C04610B504896A
:1043100041898288A3B288B28C4207D31B1A9BB210
:10432000101C9A4200D9181C80B210BD5100091A05
:104330005B189BB2F4E7C046030000895B89C01A92
:1043400043425841C0B2704710B504894189828800
:10435000A3B288B28C4207D31B1A9BB200209A42A8
:1043600001D9D31A98B210BD5100091A5B189BB23B
:10437000F4E7C04670B5040000690E00002803D0C1
:104380000121494200F058FA25896089A288A9B222
:1043900083B285422CD3CD1AADB2002D2ED0AA42C5
:1043A00008D2914231D38B1A9BB263819A4203D8CF
:1043B0009B1A9BB29A42FBD9E28821685204520CA4
:1043C00053433000C918FEF7B5FB618901254B1C2A
:1043D0009BB2A288994214D9002352009B1A9BB227
:1043E00020696381002801D000F0FEF9280070BD2B
:1043F0005500ED1A4D19ADB2002DD0D100256389BD
:104400009BB252009342EBDBE8E789188BB26381E1
:10441000CCE7C046F0B546464F46D646C0B5060086
:10442000006989469046002803D00121494200F0E6
:1044300003FA31897289B5888BB294B2914257D30D
:104440001F1BBFB2002F4DD0BD4205D2AB4254D28C
:104450005B199CB22F0074814346B84540D89FB287
:10446000A54203D8641BA4B2A542FBD9F288281B3D
:104470005204530C19009846336861439C4680B23D
:104480006144874226D94346584383B21A004846BE
:104490009A46FEF74FFB434648467D1B64195C4332
:1044A00031685044A2B2FEF745FB7189B588CB193B
:1044B0009BB26A00994217D99B1A9BB230697381EB
:1044C000002801D000F090F93800E0BCBA46B146AF
:1044D000A846F0BD424648467A43FEF72BFBE4E788
:1044E0003B1CBCE773899BB26A009342E6DBE3E7BF
:1044F0006F003F1BDF19BFB2A4E75B1B9CB2A9E7AB
:10450000F8B50400C0680E00002803D0012149421C
:1045100000F092F9258920896189A288ADB283B221
:104520008FB2884228D3DB1B9BB29A4209D8E77925
:10453000FF0906D1E068002801D000F055F93800E5
:10454000F8BD2B00954203D39B1A9BB29342FBD23A
:10455000E28821685204520C5343C8183100FEF718
:10456000E9FAA2886B1C9BB252009D4209D99B1AA2
:104570009BB201272381DDE75100C91B5B189BB269
:10458000D3E79342F5DBF2E7F0B54E464546DE460B
:104590005746E0B589460500140083B0002A6ED066
:1045A000C068002803D00121494200F045F92F8955
:1045B000EA796B89BFB29BB2D20942D1AE889F42E1
:1045C00067D27200D31AFB189BB2002290469E421B
:1045D00031D9F31A1A1C9BB2A34200D9221C93B200
:1045E0009846E8884346FB189BB29B463C00B7427E
:1045F00003D3A41BA4B2B442FBD24004430C180062
:104600009A462B6860439C46311B89B26044414501
:104610004ED35246434649465A43FEF78BFAAB887F
:104620005B00BB4501D39B4503DB5A46D31A9BB2C3
:104630009B465B462B81E868002822D000F0D4F826
:104640001FE0AA889046944226D29F4244D3414616
:10465000FA1A92B2490012198A4209DB42469A18A4
:1046600092B2171BBFB29346BB423AD97F1ABFB270
:10467000E3199BB246469B46A046E888B6E700236E
:104680009846404603B0F0BCBB46B246A946A04699
:10469000F0BDFB1A9BB298E7E888A21A4404640CA8
:1046A00054434246A144002AC5D046461F0099E71C
:1046B0005346594389B20A0001914946FEF73AFA36
:1046C00043469A1B5346A2185A430199286892B24E
:1046D0004944FEF72FFAA2E75100CA1ABA1892B25B
:1046E000B9E7B942C2DD4646E888A0467EE7C04643
:1046F00010B50400C068002803D00121494200F031
:104700009BF82069002803D00121494200F094F869
:104710000023E06863812381002801D000F064F861
:104720002069002801D000F05FF8012010BDC046CC
:1047300070B50400C0680D00002803D00121494273
:1047400000F07AF82069002803D00121494200F0E6
:1047500073F87F21E379ED011940E0682943E171A5
:10476000002801D000F040F82069002801D000F0B6
:104770003BF8012070BDC04610B583070AD0030086
:10478000032102E001330B4205D01A78002AF9D147
:10479000181A10BD030019680C4A0D4C8A188A4378
:1047A00022420FD15968094A04338A188A432242A7
:1047B00008D15968054A04338A188A432242F1D045
:1047C00000E001331A78002AFBD1E1E7FFFEFEFE8C
:1047D00080808080F8B5C04601B40248844601BCA0
:1047E000604700BF8D02002001B40248844601BC2E
:1047F000604700BFED01002001B40248844601BCBF
:10480000604700BF690D002001B40248844601BC26
:10481000604700BF8D09002001B40248844601BCF6
:10482000604700BFB509002001B40248844601BCBE
:10483000604700BF690D002001B40248844601BCF6
:10484000604700BF5D01002001B40248844601BCFE
:10485000604700BF5103002001B40248844601BCF8
:10486000604700BFC100002001B40248844601BC7B
:10487000604700BF310B002001B40248844601BCF0
:10488000604700BFCD0A002001B40248844601BC45
:08489000604700BFD90A0020B7
:104898000D0A57656255534220696E7465726661E8
:1048A800636520636F6E6E65637465640D0A00004E
:1048B8000D0A54696E795553422057656255534223
:1048C80020646576696365206578616D706C650D37
:1048D8000A0000002F03016578616D706C652E7405
:1048E800696E797573622E6F72672F77656275735B
:1048F800622D73657269616C2F696E6465782E68C4
:10490800746D6C00303132333435363738394142C2
:10491800434445460000000054696E7955534200EF
:1049280054696E7955534220446576696365000081
:1049380054696E79555342204344430054696E7953
:104948005553422057656255534200000904000040
:10495800050F3900021810050038B60834A909A057
:10496800478BFDA0768815B665000101011C10056E
:1049780000DF60DDD88945C74C9CD2659D9E648A5E
:104988009F00000306B20002000000000902620056
:104998000301008032080B00020202000009040033
:1049A8000001020200040524002001052401000181
:1049B80004240202052406000107058103080010EB
:1049C80009040100020A0000000705020240000075
:1049D800070582024000000904020002FF000005EA
:1049E800070503024000000705830240000000009D
:1049F80012011002EF020140FECA1140000101023B
:104A0800030100000A00000000000306B2000800CD
:104A180001000000A800080002000200A000140025
:104A2800030057494E5553420000000000000000A3
:104A380000008400040007002A0044006500760096
:104A480069006300650049006E007400650072002B
:104A58006600610063006500470055004900440096
:104A68007300000050007B00390037003500460015
:104A780034003400440039002D0030004400300078
:104A880038002D0034003300460044002D00380063
:104A98004200330045002D0031003200370043004A
:104AA80041003800410046004600460039004400F5
:104AB8007D000000000000004E6F207370696E6C6E
:104AC8006F636B732061726520617661696C6162E6
:104AD8006C650000486172647761726520616C6181
:104AE800726D20256420616C726561647920636C45
:104AF80061696D65640000000A2A2A2A2050414E27
:104B08004943202A2A2A0A00486172642061737383
:104B1800657274006D697373696E6720646F75627E
:104B28006C652066756E6374696F6E0052656C659E
:104B380061736500626F6F74325F77323571303838
:104B480030000000312E352E310000007069636F8F
:104B58005F7700007069636F2D776966692D6164FE
:104B680061707465720000004E6F76203135203216
:104B78003032330006005250BBFF3CB6544B001095
:104B880006005250E182887F3C4B001006005250CC
:104B9800D3F07542344B00100D0A0000556E686161
:104BA8006E646C65642049525120307825780A007B
:104BB80065702025642025732077617320616C72ED
:104BC8006561647920617661696C61626C65000079
:104BD80043616E277420636F6E74696E7565207803
:104BE800666572206F6E20696E61637469766520F0
:104BF8006570202564202573000000006F7574001F
:104C0800696E0000963200102E340010C233001076
:104C180096320010A43300101634001038330010F8
:104C2800E4320010D8320010423700109C370010D0
:104C38009233001082370010923300106A37001048
:104C480056370010923300102E370010FA36001035
:104C5800923300102038001004380010F837001084
:104C68009233001092330010DA3700100438001025
:104C780092330010923300109233001092330010D8
:104C8800923300109233001092330010B6370010A0
:104C9800D5070010410800106D08001051090010D8
:104CA800350A001000000000A53F00100140001068
:104CB8001D40001049050010E140001000000000F0
:104CC800AC020010A0020010940200107C4B0010EF
:0C4CD80088020010884B0010944B001064
:104CE400F0B5C646150000B504001E000268EFF3D7
:104CF400108172B61368002BFCD0BFF35F8F0423BE
:104D0400E356002B2DDB2268BFF35F8F0020106079
:104D140081F31088D0221206127852B290469A4239
:104D240003D1002080BCB846F0BD00270BE0236807
:104D3400BFF35F8F1F6081F310882800310000F0FB
:104D440047FE0028EDD12268EFF3108172B6136894
:104D5400002BFCD0BFF35F8F23797F2BE7D9434629
:104D640002E0D0231B061B6823712368BFF35F8F07
:104D740000221A6081F310880120D3E7F0B5C646FB
:104D840000B50D00040000F033FEFA2206000F0007
:104D9400002328000021920000F0FAFD36184F414C
:104DA400002F2CDBD0231B061B68002598460BE044
:104DB4002368BFF35F8F1D6081F3108830003900D2
:104DC40000F006FE002818D12268EFF3108172B6B5
:104DD4001368002BFCD0BFF35F8F23797F2BE7D9B7
:104DE400434623712368BFF35F8F00221A6081F367
:104DF4001088012080BCB846F0BD0020FAE70126E7
:104E0400014F7642CEE7C046FFFFFF7F0268EFF313
:104E1400108172B61368002BFCD0BFF35F8FFF23A1
:104E240003710368BFF35F8F00221A6081F3108857
:104E340040BF7047084810B50378002B0AD180237F
:104E44000649074A5B051C68CC5004339342FAD1E7
:104E54000123037010BDC046061C0020501500102D
:104E64000001001010B5024B0133984710BDC04635
:104E740050150020034B1A68C0239B009343024A39
:104E8400136070470C8001400C900140054B1A6878
:104E940080239B005340C02292001340024A1360B7
:104EA4007047C0460C8001400C9001401423F0B5BB
:104EB400D6464F4646469A46814618880433C0B5BE
:104EC40098460E001B88274914009847534607004C
:104ED4001888434624491B88984753460500188878
:104EE400434622491B8898478046FFF7A3FFB847EB
:104EF400A847FFF7CBFF002C1BD0C02122000827B6
:104F0400022049053D008B6A1D4018420BD0002C3D
:104F140009D0131B0D2B1FD84B461B78013C0B6685
:104F240001239C46E1442300002D0CD11343002BA4
:104F3400E8D1FFF79FFFC047FFF794FFE0BCBA46F4
:104F4400B146A846F0BD002AF1D00B6E013A337089
:104F5400130001362343EAE7002DD3D0002AD1D031
:104F6400F3E7C046494600004558000046430000A8
:104F740000231C4A10B59360D3601B4A0021936040
:104F8400D3601A4A1A489360D3601A4A9360D36074
:104F9400194A9360D360194A9360D360184A9360A6
:104FA400D360184A9360D360174A9360D360174A5A
:104FB4009360D360164A9360D360164A9360D360BB
:104FC400154A9360D360154A9360D360144A936082
:104FD400D360F022920000F0EBFC124B124A1A60EC
:104FE40010BDC046000010500800105010001050B2
:104FF40008170020180010502000105028001050EE
:10500400300010503800105040001050480010502C
:10501400500010505800105060001050680010509C
:1050240070001050CC1A002080011050F0B5574683
:10503400DE464E464546E0B5234B87B09F6D002FB4
:1050440023D0224B0024994601239846204B012665
:105054009A4604E001347600E4B2202C15D03E4296
:10506400F8D04B469E65434665086D00A343ED1892
:105074006D015544280000F0A1FB00280CD1013437
:10508400B743E4B27600002FE7D107B0F0BCBB46CB
:10509400B246A946A046F0BDAB7808229B46EB8AEF
:1050A400002103A8019300F083FC0723594602AAB8
:1050B4005371019B117203A80121059300F0A6FB13
:1050C400280000F013FBDAE7000011500030115003
:1050D400C81600209823C64A70B5D55880232C00E2
:1050E4009B02102684B01C401D4278D0C14BC24C98
:1050F4009A6AC24B00261A603B23E35C022B00D160
:10510400D7E07B23E35C022B00D119E2BB23E35CF1
:10511400022B00D102E2FB23E35C022B00D1EBE182
:105124003C23FF33E35C022B00D1D0E17C23FF332B
:10513400E35C022B00D1B5E1BC23FF33E35C022B1B
:1051440000D19AE1FC23FF33E35C022B00D17FE121
:10515400AB4BE35C022B00D136E1AA4BE35C022BA0
:1051640000D11DE1A84BE35C022B00D104E1A74B65
:10517400E35C022B00D1EBE0A54BE35C022B00D1F6
:10518400D2E0A44BE35C022B00D1B9E0A24BE35C78
:10519400022B00D19EE0A14BE35C022B00D1E1E1A4
:1051A400002E08D19E4B1B78002B04D180219D4AF0
:1051B40090338902D15001AE8D4B0C220021300076
:1051C4009C6C00F0F5FB03236405640D73703000E0
:1051D40002940121802400F019FB934EA402EB06F3
:1051E40063D480235B021D4214D01C43012223217B
:1051F400814B5A54DA70C0238C4ADB00019302AB12
:1052040003CA03C3012101A800F000FB8022854BDF
:1052140092021A6580235B011D422FD18023DB019A
:105224001D421AD180231B021D4204D1AC4200D07E
:10523400B2E104B070BD01AE0C22002130001C4369
:1052440000F0B6FB052301217370300000F0DEFA94
:105254008022744B12011A65E8E701AE0C2200218A
:1052640030001C4300F0A4FB0423012173703000C0
:1052740000F0CCFA10226B4B1A65D3E700221C43D2
:105284005B4B01AE1A60FFF773FE0C220021300065
:1052940000F08EFB012301217370300000F0B6FA98
:1052A4008022604B12031A65B8E7FFF7BFFE340093
:1052B40097E73833E65C002E00D122E70233E25C44
:1052C400002A00D11DE700222000E254203000F023
:1052D4003FFA16E7564BE35C002B00D15BE7EF2364
:1052E4009B00E25C002A00D04EE14C4BE35C022BB5
:1052F40000D060E74F4BE35C002B00D037E15AE766
:105304004D4BE35C002B00D140E7DF229200A15C0F
:105314001E00002900D139E70023A354D8239B00A1
:10532400E01800F015FA31E7444BE35C002B00D1A0
:1053340027E7CF229200A15C1E00002900D120E7BC
:105344000023A354C8239B00E01800F001FA18E7D7
:105354003B4BE35C002B00D10EE7BF229200A15C23
:105364001E00002900D107E70023A354B8239B00A3
:10537400E01800F0EDF9FFE6324BE35C002B00D1BE
:10538400F5E6AF229200A15C1E00002900D1EEE6F2
:105394000023A354A8239B00E01800F0D9F9E6E603
:1053A400294BE35C002B00D1DCE69F229200A15C38
:1053B4001E00002900D1D5E60023A35498239B00A6
:1053C400E01800F0C5F9CDE6204BE35C002B00D1DA
:1053D400C3E68F229200A15C1E00002900D1BCE626
:1053E4000023A35488239B00E01800F0B1F9B4E62D
:1053F4000000115000400540C8160020C0160020CF
:105404003B0200007B020000BB020000FB02000024
:105414003B0300007B030000BB030000FB03000010
:10542400051C002000301150100002000000105034
:10543400BA030000FA0300007A0300003A030000F4
:10544400FA020000BA0200007A0200003A020000E8
:10545400F933FF33E35C002B00D179E6FE225200DE
:10546400A15C1E00002900D172E620000023E13077
:10547400A354FF3000F06CF96AE6B933FF33E35C00
:10548400002B00D15EE6DE225200A15C1E00002942
:1054940000D157E620000023A130A354FF3000F0D0
:1054A40057F94FE67933FF33E35C002B00D143E631
:1054B400BE225200A15C1E00002900D13CE620005F
:1054C40000236130A354FF3000F042F934E639334D
:1054D400FF33E35C002B00D128E69E225200A15C3E
:1054E4001E00002900D121E6200000232130A3540E
:1054F400FF3000F02DF919E6F833E35C002B00D1FE
:105504000EE6FC22A15C1E00002900D108E600235F
:105514002000A354E03000F01BF901E6B833E35C4B
:10552400002B00D1F7E5BC22A15C1E00002900D1AC
:10553400F1E500232000A354A03000F009F9EAE5C6
:105544007833E35C002B00D1E0E57C22A15C1E00F3
:10555400002900D1DAE500232000A354603000F0D4
:10556400F7F8D3E50F4BE35C002B00D118E6FF23DB
:105574009B00E25C002A00D11DE60022E2541C3BA1
:10558400E01800F0E5F816E60022E254E8239B0058
:10559400E01800F0DDF8A8E621000348694000F0B7
:1055A4001FFAC046FA030000A44B0010084A030087
:1055B400126C0020920703D49A78D209012A00D0F1
:1055C4007047D87E023843425841C0B2F8E7C0461B
:1055D4000000115010B5FFF7E9FF00280CD007496F
:1055E400074B8C46074A9B6A126863449B1A002047
:1055F400C6229A424041C0B210BDC046E0FCFFFF43
:1056040000400540C0160020F8B5028B838A0400D0
:105614000F00161C9A4200D91E1C8025B6B29B1B93
:10562400E2789BB2ED00A3823543002A02D0902594
:10563400AD01354301214A40E2706278002A09D065
:10564400002B02D18023DB011D43002F00D02D0449
:105654002800F8BDE368B8019C4632006044216923
:1056640000F09EF923699C46802366441B021D4377
:105674002661A38AE4E7C046836870B504001D6808
:10568400002900D02D0C6378AD05AD0D002B09D198
:10569400E38AEB18E382238BAB4201D90023A38274
:1056A400280070BDE36889019C462A002069614492
:1056B40000F076F9E38AEB18E38223695B1923612E
:1056C400E9E7C04610B50400836800211B68FFF7B2
:1056D400D3FF63681B685B0002D5238B834200D031
:1056E40010BD01212000FFF7C7FFF9E700238376EF
:1056F400436103617047C04610B58368002901D037
:105704001C682140002A11D08024E4001143224265
:105714000CD01A6822420BD10A4A0A401A60FFE7E9
:10572400FFE7FFE7FFE7FFE7FFE78368196010BDC6
:105734007F2281780448CB091140044A9B009A587F
:1057440000F04EF9FFFBFFFFB84B0010900E002055
:10575400436870B5002180251E680400FFF754FFDC
:10576400134B6D011B6C05439B070FD5A3785B0698
:105774000FD0104B1E4080239B05334362680021E9
:10578400136020002A00FFF7B7FF70BDA378DB0980
:10579400EFD0A38A002BECD001212000FFF734FFC7
:1057A400A023054ADB05324005431343E6E7C04620
:1057B40000001150FFFFFFAFFFFFFFDF70B5857ED4
:1057C4000400002D13D0FFF77DFFA38A002B01D125
:1057D400280070BD2000FFF7FDFE051E03D0012345
:1057E40000252377F4E72000FFF7B2FFF0E77F22DC
:1057F40081780448CB091140034A9B009A5800F071
:10580400EFF8C046D84B0010900E0020F0B5C64605
:1058140000B54378050084B0042B00D17FE04ED856
:10582400022B00D18DE0032B5DD1524A00240023CA
:105834009046514E514F3178A1422DD93A686300B8
:1058440094461B19DB006344002B2AD10134E4B2D3
:105854004A1C2300A242EFDA494B1A7852075AD560
:1058640004211A7801A88A431A7000210C2200F03E
:105874009FF86A462B78137105235371414B1C68BA
:105884006269EFF3108172B61368002BFCD0BFF38A
:105894005F8FA16101A933E05A1A53009B18DB0002
:1058A40043445B69002BD1D06968287898473178E4
:1058B4000134E4B24A1C2300A242BDDACCE7052B32
:1058C40011D12F4B1A78D20725D504211A788A438F
:1058D4001A702C4B1C686269EFF3108172B613685E
:1058E400002B09D1FBE7274B1C686269EFF3108199
:1058F40072B61368002BFCD0BFF35F8FA16129003F
:10590400200000F05DF86269A369BFF35F8F002196
:10591400116083F3108804B080BCB846F0BD184B06
:105924001A78D207F7D504211A780A431A70154B4E
:105934001C686269EFF3108172B61368002BDBD127
:10594400FBE701200E4A11788143117011789943C5
:10595400002311700421537013788B431370094B87
:105964001C686269EFF3108172B61368002BC3D10F
:10597400FBE7C046984C0010041C0020FC100020DB
:10598400E8120020401300207047C04600000000C9
:1059940001B40248844601BC604700BF7D2A001060
:1059A40001B40248844601BC604700BF352B001097
:1059B40001B40248844601BC604700BF292B001093
:1059C40001B40248844601BC604700BF0145001091
:1059D40001B40248844601BC604700BF8D18001022
:1059E40001B40248844601BC604700BF4D24001046
:1059F40001B40248844601BC604700BF351A001058
:105A0400FA000000544900102049001028490010F1
:105A14000000000038490010444900101000000044
:105A24000000000000000100000000000000000071
:105A3400000002000000000000000000000003005D
:105A440000000000000000000000FF000000000053
:105A540001B5486801318E4600477046093801494E
:105A6400884701BD49120010600E002000000000AC
:105A7400E00E00207C160020000000000000000062
:105A84008C16002000000000000000001000000040
:105A9400503300004C3300005433000052330000F4
:105AA4004D5300004D4300005334000043340000C4
:105AB400044C0010084C00104413002010000C008B
:105AC40000000000000000000000000000000000D2
