:020000041000EA
:1000000000B5324B212058609868022188439860DF
:10001000D860186158612E4B002199600221596106
:100020000121F02299502B49196001219960352056
:1000300000F044F80222904214D00621196600F024
:1000400034F8196E01211966002018661A6600F04E
:100050002CF8196E196E196E052000F02FF8012189
:100060000842F9D1002199601B49196000215960AB
:100070001A491B48016001219960EB211966A021F2
:10008000196600F012F800219960164914480160C1
:100090000121996001BC002800D000471248134993
:1000A000086003C880F30888084703B5996A0420EC
:1000B0000142FBD001200142F8D103BD02B5186610
:1000C0001866FFF7F2FF186E186E02BD00000240BE
:1000D000000000180000070000035F00212200005C
:1000E000F4000018222000A00001001008ED00E03C
:1000F00000000000000000000000000074B24E7A12
:1001000000200420F7010010C3010010C5010010F9
:10011000C1010010C1010010C1010010C101001097
:10012000C1010010C1010010C1010010C701001081
:10013000C1010010C1010010C9010010CB01001065
:10014000CD010010CD010010CD010010CD01001037
:10015000CD010010CD010010CD010010CD01001027
:10016000CD010010CD010010CD010010CD01001017
:10017000CD010010CD010010CD010010CD01001007
:10018000CD010010CD010010CD010010CD010010F7
:10019000CD010010CD010010CD010010CD010010E7
:1001A000CD010010CD010010CD010010CD010010D7
:1001B000CD010010CD010010CD010010CD010010C7
:1001C00000BE00BE00BE00BE00BE00BEEFF3058054
:1001D000103800BEF2EB887150F500106CF500107D
:1001E0003402001090A31AE700201F49086006C8D7
:1001F00081F3088810471D48006800282FD10DA4FE
:100200000ECC002902D000F012F8F9E71849194A7B
:10021000002000E001C19142FCD1174988471749ED
:1002200088471749884700BEFDE701C901C29A42C5
:10023000FBD370476CF50010C0000020600F002059
:100240000C04011000000420000004200C04011024
:10025000001004200010042000000000704709482E
:100260000BF06EFB0047000008ED00E0000000D03E
:10027000600F0020604D0020A9B700105504001049
:10028000ADB800105756000006005250ABB3605393
:10029000C4F3001006005250861C0302D4F3001071
:1002A000060052505422A29DF8F30010050052504F
:1002B000DE65F4680C040110F8B5C0460448054B2F
:1002C00010B5834203D0044B002B00D0984710BDDB
:1002D000600F0020600F0020000000000648074962
:1002E000091A8B10C90FC91810B5491003D0044B57
:1002F000002B00D0984710BD600F0020600F002039
:100300000000000010B5074C2378002B09D1FFF73F
:10031000D5FF054B002B02D0044800E000BF0123AD
:10032000237010BD601100200000000080E000106C
:10033000054B10B5002B03D00449054800E000BF71
:10034000FFF7CCFF10BDC046000000006411002084
:1003500080E00010074B0F22838300238361253345
:10036000C254054BC384054B4361054B0361002018
:100370007047C046EA05000045580000B103001070
:10038000A903001010B50C0005490DF061FD002314
:10039000002802D1034B23600123180010BDC04682
:1003A00080E00010C0A8070110B508F0BBF810BD30
:1003B00010B50C000CF014F9002802D108204042BE
:1003C00010BD0CF015F90028F8D120890DF086F940
:1003D000002805D10120002140420CF07FF9E9E717
:1003E000200000210DF080F90020E9E7F8B50D4E5E
:1003F000050033680C000020002B00D0F8BD002958
:1004000001D10120FAE7C1220020520001F0E4FDF1
:10041000071EF6D02200290040680BF0BFFD012026
:100420003760EBE7AC45002010B504000A890800EE
:100430000023210002F022F810BDC04610B5044C84
:100440002068002803D001F029FF0023236010BD9D
:10045000AC450020F0B5CE46474680B597B00BF0CE
:100460002FFF00200CF0CCF84B4B002B01D000E00C
:1004700000BF01F047FA494B062298462423414623
:100480004046CA541E3046490BF088FD232243469D
:1004900001219B5C40464B4041468B54414B424AB4
:1004A0000293424B4249019300230093414B01F0D8
:1004B000B9FC01F01DFD25234246D35C3E4CDB0711
:1004C00000D4FEE7200000F01DFE0028FAD13B4DCD
:1004D0003B4C2A003521200000F026FF0028F8D1EF
:1004E00009F0EEFD0A2317259946364F6D44012089
:1004F000002140420CF0F2F83868002843D0414611
:1005000009F03AFA386801F0C9FE00233B600CF0AC
:10051000F1FE06F079FA002000F098F80028E6D005
:100520004022002006A900F0A1F80600002000F0FB
:1005300073F80028DBD0002E1AD006ACA44666441F
:1005400002E00134B44213D0237801222B70290039
:10055000002000F00DF923780D2BF2D14B4601223B
:10056000290000202B70013400F002F9B442EBD1D5
:10057000002000F0C1F80120002140420CF0AEF84C
:1005800038680028BBD106F03FFA002000F05EF882
:100590000028ACD0C4E7C04600000000B4370020FB
:1005A000580E0020498B0010D4E0001055030010B5
:1005B000D0E00010CCE00010B4E000108503001083
:1005C000A0E40010AC4500207047C0467047C0460C
:1005D00010B5002901D0002A00D110BD2122024906
:1005E000002000F0C5F8F8E78CE000107047C04626
:1005F000002070477047C04610B50AF04FFC002934
:1006000005D0FA22002392000BF00AFA10BDFA215D
:1006100089000BF0C7F9F9E710B504000BF0E0FF13
:10062000002801D1002010BD0BF0E2FF0028F9D115
:10063000A0000019C000044B0019C000181803796D
:1006400001201840EFE7C04680110020020083001F
:100650001B1810B5D8008018034BC0001030C0180C
:100660000DF060F910BDC04680110020F8B5474676
:10067000804685002C18E4004444CE46E400260061
:1006800080B51A4B1A4F1036BE199A4200D9194A32
:10069000300092B20DF0CAF9814630000DF060F9D9
:1006A0003F2804D84846C0BCB946B046F8BD4544CA
:1006B000ED004544ED007D190020E9780CF0ACFC1C
:1006C0000028EFD030000DF04BF93F2808D9220068
:1006D000C8324023E978BA1800200CF0C5FCE1E7E5
:1006E000E97800200CF0ACFCDCE7C046FEFF00001F
:1006F00080110020FFFF0000F8B505000BF070FF2F
:10070000002801D10020F8BD0BF072FF0028F9D1BC
:10071000AB005B19DC006419E4002500134E24359E
:10072000AD1928000DF0FEF80028EBD03719002095
:10073000B9780CF071FC0028E4D00934FF34A41916
:100740002100280040220DF071F9B978051E08D06B
:100750000300220000200CF087FC0028D2D02800E3
:10076000D1E700200CF06CFCCCE7C04680110020E3
:1007700070B584002418E40024180C4BE4002434E1
:10078000E4180B4B05009A4200D90A4A200092B2A5
:100790000DF006FA060020000DF0C4F83F2801D83D
:1007A000300070BD2800FFF7A7FFF9E78011002097
:1007B000FEFF0000FFFF0000A42270B5184C82B0BD
:1007C0000021200052000BF0E3FBFF236371E123C3
:1007D0005B020025A360210008232000A3734022B0
:1007E00038310095073B10300DF064F826000123E6
:1007F00021002000402278310093B83624300DF0DB
:1008000059F8300009F0C8FF26622600C0363000D3
:10081000E56109F0C1FF2663656302B070BDC046A3
:100820008011002010B5094C0522002120000BF09A
:10083000AFFB2000243410300DF066FA20000DF0DC
:1008400063FA012120000DF07FFA10BD8011002015
:10085000F0B54B79060083B0022B02D18B79022BC5
:1008600003D00025280003B0F0BD2F4FBB78002B2C
:10087000F7D18B7809253B700C780C196378242B01
:100880000BD1082A02D80FE0AA420DD32378E4182E
:10089000ED186378ADB2242BF6D0052B1FD0042BB6
:1008A00002D163790A2B2DD0204C20000DF058F88E
:1008B0003F28D7D92600103E0020F1780CF0ACFB81
:1008C0000028CFD020000DF04BF83F2815D922008A
:1008D0004023F178B83200200CF0C6FBC2E72100BB
:1008E00030000CF07FFB0028BBD0A3787B7023780E
:1008F000ED18E4186378ADB2D1E7F17800200CF080
:100900009FFBAFE70A4B2778019301330093022244
:1009100002233000E1190CF017FB0028A1D00E359E
:10092000ED19ADB2C0E7C046801100209011002043
:1009300082110020F8B560231400127805001340DE
:100940000020202B12D12F4A6379277916781B02B9
:100950003B439E420AD16378222B28D007D8202B14
:1009600017D0212B02D101293ED00120F8BD232B25
:10097000FCD1012940D00329F7D1234B002BF4D01F
:10098000E178A37809020020194300E000BF0120AC
:10099000ECE7012928D00329E7D11C4B002BE4D038
:1009A00008320020110000E000BF0120DEE701292D
:1009B00022D00329D9D101252E00A378E478023969
:1009C00024021C43147126402432100071400DF0A3
:1009D000BBF90F4B002BC8D06208002031002A4021
:1009E000FFF7F6FD0120C1E7072321002800094A8F
:1009F0000CF086FB0120B9E7210028000CF068FB11
:100A00000120B3E78011002000000000000000007A
:100A1000D105001088110020F8B557464E464546CE
:100A2000DE46E0B5484F8046FA780C001E008A4248
:100A300063D19AB210233D009B46C835BB442900C0
:100A400058460DF0ADF8414BD946002B18D07B79B4
:100A5000D946FF2B14D0002E12D0AA19924603E0DB
:100A6000013555450CD07B792A789A42F8D1484611
:100A70000CF06EFF0028F3D1797900E000BFEFE7BA
:100A8000334B002B04D048460CF062FF002851D0B5
:100A900048460CF065FF3F2834D84A46103A937810
:100AA000A34207D001242000F0BCBB46B246A946B1
:100AB000A046F8BD274B002B02D0002000E000BF6D
:100AC0000020FFF719FE0028ECD1234D28000CF080
:100AD00029FF0028E6D1002EE4D0B306E2D1243D60
:100AE0004046A9780CF098FA041EDBD000230022BF
:100AF0004046A9780CF0B8FAD5E7BB788B42D9D03C
:100B00000024D0E74D46103D0020E9780CF084FA2F
:100B1000002801D1AB78C3E748460CF021FF3F28FD
:100B20000BD94A4640230020E978B8320CF09CFAF1
:100B3000AB78B5E7FFF75AFDAAE70020E9780CF09B
:100B40007FFAAB78ACE7C0468011002000000000BF
:100B5000ED05001000000000A411002000487047BF
:100B600038E10010012803D8024B8000C0587047BC
:100B70000020FCE730E10010F0B5DE4657464E4657
:100B80004546E0B58FB0032863D0052830D0002853
:100B900027D0062800D9B9E05D4B8000C558280051
:100BA0000DF09AF90400202800D9A7E0002800D110
:100BB000A8E000235748821CE95C0133118002320F
:100BC0009C42F9D8C02301349B0064001C43A3B2AB
:100BD000059303800FB0F0BCBB46B246A946A046C1
:100BE000F0BD4D4B4B484380063BFF3B0593F0E780
:100BF0004A494B4B0C78474822099A5C42800F22A5
:100C000014401C5D84804C78250914405D5D1C5D9A
:100C1000C58004818C78250914405D5D1C5D45818B
:100C20008481CC78250914405D5D1C5DC5810482FA
:100C30000C79250914401C5D5D5D848245824979EB
:100C40000C090A401C5D9B5CC4820383354B0593F1
:100C5000BFE7354B002B47D006AD102128000BF025
:100C60001DFB8046102801D910239846002849D042
:100C700043469A00C02302329B0013439BB2059364
:100C80002A4A244894460F2241460026914680462F
:100C9000841C0AAB0296019504911900674625CF82
:100CA00025C13A6803910A6001990878834648464D
:100CB0005D462840185C65466080180046CD46C0F9
:100CC0003868039A10605A4612119A5C0199228082
:100CD0000131029A01910499013202920434914245
:100CE000DBD84046059B74E7114B124A06AD0692CD
:100CF0000793114B059308239846C1E72024002849
:100D000000D056E70D4B0348059362E7002061E7EA
:100D100078E20010DC12002009040000580E0020C8
:100D2000D8E000101A0300009DC20010D8E00010A7
:100D300089ABCDEF012345672203000002030000C9
:100D4000F0B5CE46474680B51F0035230425037015
:100D5000343B83B0437099463533C3700B9B04001A
:100D60008170057101A916000530042201930BF072
:100D700015F9332363720A9B20001B0EE3720A9B52
:100D800004221B1423730A9BA5721B1263730A9B14
:100D90002574A3734B46E3730D9B113001A9019396
:100DA0000BF0FCF80C9B002B1ED125001535002EF6
:100DB0000FD030000DF090F80F232B70AB1C99462C
:100DC000687080460200310018004D460BF0E6F8CE
:100DD0004544002F16D1FF232B700135281B03B08B
:100DE000C0BCB946B046F0BD03232000A575250060
:100DF00063750C9B042201A9173001931B350BF07E
:100E0000CDF8D4E706232B70023B6B70A81C04229C
:100E100001A9019706350BF0C1F8DCE7F0B5DE4615
:100E200057464E464546E0B58BB014AB1B8806913D
:100E30000793D07B160001F061F881230590728939
:100E4000A94F9B009A4200D91A00716838000BF034
:100E5000A5F8F123A54989244D1CAC468A25F85CE8
:100E6000002202300300804664006D0006E01A0094
:100E700063469B5C9B180233AB4205DA88188A5C98
:100E8000352A0BD0A342F2DB300001F007FA0BB099
:100E9000F0BCBB46B246A946A046F0BD43468046DC
:100EA000180043469B78012B17D0032BECD18922E5
:100EB0008A240023B44652004D1C640005E0030060
:100EC000285CC0180230A04205DACE18CB5C322B69
:100ED00063D09042F3DB6646D6E7854B1B689846A5
:100EE0001B690493002BCFDD43465B69B3469A46EA
:100EF0001C00804B00251E0005E0049B01351034CA
:100F00009D4200D1D9E0062231002000A1460DF01B
:100F10006FF80028F1D102233B700023BB604B46E1
:100F20009B683C003B61744BF0341A68EC23FA5028
:100F3000142200212000FF320BF02AF843464246DB
:100F400005999B684868D268049003904046006801
:100F50005E4602900968200001914946C9680091E7
:100F60000221FFF7EDFEC1228121362052008900C7
:100F700001F032F8041E00D186E781223900920088
:100F800040680BF00BF82100079B5C4A069805F0BF
:100F9000A1FF200001F082F976E7B24653465B7864
:100FA0006646042B00D06FE702239C46504BE24478
:100FB0001B6899461B699846002B18DD4B465C69F7
:100FC0004C4BB34600251E0004E001351034454566
:100FD00000D187E00622310020000DF009F800283A
:100FE000F3D10622002120005E460AF0D1FF042240
:100FF000514609A80AF0D2FF4B461A690999002AFE
:1010000000DC41E75C69002304E0013310349342C3
:1010100000D139E7A0688142F7D106222100384883
:101020000CF0E6FF051E00D02EE7380004225146E2
:1010300010300AF0B3FF02233B702F4BBD601A68DB
:10104000EC233D00FA501422F03500212800FF3235
:101050000AF09EFF4B464A4605999B684868D2684D
:1010600004900390484600680290096828000191A6
:10107000E16800910521FFF763FEC122812136203E
:101080005200890000F0A8FF051E00D1FCE63900DF
:10109000062220001C310AF081FF81223900686895
:1010A00092000AF07BFF2900079B144A069805F07E
:1010B00011FF280001F0F2F8E6E60024104D2600AA
:1010C00054469A4603E001361034564508D00622AD
:1010D00021002800A1460CF08BFF0028F3D11AE76D
:1010E0005E46D1E65E4682E708170020F81700202A
:1010F0009816002024170020600E0020A4E40010A1
:1011000094E2001070B5060005F0B2FC124C2068A5
:10111000002803D005F022FF0023236005F03CFFE8
:101120002060002815D0B2880C4905F0BDFD051ED1
:10113000206807D0002803D005F010FF00232360AB
:10114000280070BD0022064905F002FF054B1E6015
:10115000F6E701256D42F3E768380020A0E40010AF
:101160001D0E001098160020F0B54E46DE4657467C
:101170004546E0B587B0019310AB1B880091029300
:10118000538916000C2B0BD95468A3787F2B07D8F2
:10119000607923790002184300F062FA012809D02F
:1011A000300001F07BF807B0F0BCBB46B246A94660
:1011B000A046F0BD0C34039475890C3D002DEFDD85
:1011C000002398469946554B47469B46B046230018
:1011D0001BE04B463800002B03D05B462E2201302B
:1011E000DA55A54200DA96E027187F2F00DD92E05D
:1011F0002200310058440AF0D1FE012294463319EE
:101200002D1BE144002D00DC85E01C785E1C013DB7
:10121000002CDED1B2464646B8461F00032DBFDD86
:1012200043463E4D02225146EC5405A80AF0B6FE54
:1012300004AB9A888023F91CEA5205A802220AF01E
:10124000ADFE04AB9A888223EA52039B0537FF1A4E
:10125000A6D4334B28001B6805A9984700289FD0C7
:10126000C1223C001C373620B9B2520000F0B4FE57
:101270000C34051E00D193E77168220040680AF023
:101280008DFE80236F685B42BA7801201343BB70E8
:1012900000F0E6F96B68B8719C46000AF8712148C5
:1012A000644400F0DDF92070000A6070012000F055
:1012B000D7F9A070000AE070012000F0D1F9207188
:1012C000000A6071202000F0CFF9020AA071E271DB
:1012D000020C000E22726072042000F0C1F904AB0F
:1012E0001B79A072237304AB05331B78000A637368
:1012F00004AB06331B78E072A37304AB07331B788F
:101300002900E373019A029B009805F0E3FD280091
:1013100000F0C4FF44E7464642E7C046803800205C
:10132000043900200CC00000F8B505000F001600BD
:1013300005F09EFB124C2068002803D005F00EFE3D
:101340000023236005F028FE2060002815D0290026
:101350003A0005F0A9FC051E206807D0002803D03C
:1013600005F0FCFD002323602800F8BD002205499C
:1013700005F0EEFD044B1E60F6E701256D42F3E734
:101380006C380020691100100439002000B5904B22
:1013900083B018600368082B0DD88E4A9B00D35881
:1013A0009F468D4B0360102343600023C3600821D8
:1013B0008A480BF0AFFF03B000BD894B01220360E8
:1013C000342343600023026182610262854A4361E3
:1013D000C360C36142628362C362036308217F48C2
:1013E0000BF098FFE7E7C3687F4A934238D04CD8A8
:1013F0007E4A94466344152B00D980E07C4A9B00CA
:10140000D3589F467B4AC368026010224260002284
:10141000C260794A9342CAD04AD8784A934253D19B
:101420000100436908310422C91875480AF0B6FD65
:10143000BDE7744B082103601023436000238360E1
:101440000133C36065480BF065FFB4E76E4A934211
:1014500006D03CD96D4A934202D06D4A93424ED198
:101460006C4A002302601C224260183A02610C326E
:101470004261C360019318300C3A01A90AF08EFD55
:10148000082156480BF046FF95E7634A9342DDD8A2
:10149000624A934200D984E0614A9342E0D0614AB3
:1014A00094466344042B2AD85F4A9B00D3589F4636
:1014B0005B4A934200D17AE75C4A934200D176E7D7
:1014C0005B4A934200D172E75A4BC3606FE75A4AB6
:1014D00093427AD0594A93420ED1002301934D4B47
:1014E000042203601C234360183B03610C334361F7
:1014F000534BC3601830C0E74C4A9342EDD0454B84
:101500000821036018234360002303611033436103
:10151000484BC36031480BF0FDFE4CE7494B01934B
:101520003C4B042203601C234360183B03610C33D3
:1015300043610023C36018309FE7434BEFE7354B0F
:101540000822036020234360183B03610833436192
:1015500000233E49C36018300AF020FD08211F48CF
:101560000BF0D8FE27E73A4BD9E73A4BD7E7244BA5
:101570001B68D4E780235B01D1E7264B5822036028
:1015800070234360183B0361483B436100233249A9
:10159000C36018300AF002FD082110480BF0BAFEB3
:1015A00009E71C4B062203601E234360183B0361BE
:1015B0000A33436100232949C36018300AF0EEFC66
:1015C000082106480BF0A6FEF5E60123A7E7C04672
:1015D000141900209CE2001008000080640E002016
:1015E000020000801606000002020100FFFEFEFF5E
:1015F000C0E20010050000800F0101000E01010093
:10160000643800200600008001010201020102018D
:101610000301020104000080020101010001010137
:101620001B020100FFFEFDFF18E300100301010192
:1016300012010100010000C00401010105010101C6
:10164000BB0000C0EA050000FFFFFF00ECE0001057
:10165000C0D40100DC0500002CE30010580E00206F
:1016600040BA80B27047C04600BA7047F0B5C6466F
:10167000040000B50800884616000CF02DFC05009B
:101680002000002D1AD02378002B1AD0A619621939
:10169000964216D34246177806E063780134002B51
:1016A0000FD0621996420CD39F42F6D12A004146D0
:1016B00020000CF03FFC0028EFD1200080BCB84691
:1016C000F0BD0020FAE7C046F0B583B06B469D1D23
:1016D00000232B8001331F000740184205D000294A
:1016E00030DD037801396B70013001292ADD8E1E4F
:1016F00034000121821C8C43141903000022198834
:10170000023352189C42FAD171084B1C5B0049000D
:10171000C018711A012901D103782B702B889B18EE
:101720001A0C1B041B0CD218100C1204120C80187B
:10173000002F04D0030600041B0C000E184380B2D7
:1017400003B0F0BD0022E5E7F0B54F46D646464669
:10175000C0B591461A68089B8A46196804000B04B4
:101760001B0C090C5B181104090C5918130C5B189D
:10177000180C1B041B0CC318180C1B041F0CC719D6
:10178000002C21D0FF23002601259846618960683E
:10179000FFF79AFFC019030C0004070CDF196389D7
:1017A0001D4207D042463B06380A1B0C104003433B
:1017B0001F006E402468002CE8D1002E04D03B06A8
:1017C0003F041B0C3F0E1F43534698B2FFF748FFE0
:1017D00004004846FFF744FF2018C019030C00041A
:1017E000000C1818030C0004000C1818C04380B239
:1017F000E0BCBA46B146A846F0BDC04610B582B0BE
:10180000049C0094FFF7A0FF02B010BDF0B583B0B8
:101810006B469D1D00232B8001331F00074018429B
:1018200005D0002932D0037801396B7001300129CD
:101830002EDD8E1E34000121821C8C4314190300FE
:1018400000221988023352189C42FAD171084B1CAD
:101850005B004900C018711A012901D103782B706F
:101860002B889B181A0C1B041B0CD218100C12048A
:10187000120C8018002F03D1C04380B203B0F0BD1A
:10188000030600041B0C000E1843F5E70148F5E7BA
:101890000022E1E7FFFF0000F0B5C646040000B5F6
:1018A00000282AD0FF2300260027012598466189B9
:1018B0006068FFF709FFC019030C0004070CDF196B
:1018C00063891D4207D042463B06380A1B0C104074
:1018D00003431F006E402468002CE8D1002E09D07D
:1018E0003B0638041B0C000E1843C04380B280BC7A
:1018F000B846F0BDF84380B2F9E70148F7E7C046C3
:10190000FFFF000010B500F001FE00F00BF800F042
:10191000FBF900F085FA05F0ABF800F081FE05F068
:1019200037F810BD03220B4B0021033393430A4ABF
:101930000A481360C822D200197199180160012069
:101940001A6008710649995006490B60AA23064996
:10195000CA52704710390020083900200C39002085
:1019600040064006882100208C210020F0B5DE468C
:1019700057464E464546E0B583B000282BD0830736
:1019800020D103003F4A083B12689A421AD83E49C8
:101990000C300C68844215D31979002912D0C82163
:1019A0001888C90088420DD85E8801968E4209D8F1
:1019B0009D1AAFB29119BB468C46B74212D0098826
:1019C000B9420FD0FEF714FEB02230498B5A0133D2
:1019D0008B52FEF70FFE03B0F0BCBB46B246A946E1
:1019E000A046F0BD1618B44202D071885945E9D11D
:1019F000002119712649009109688846994202D947
:101A0000984600990B6021498A46AC218946514687
:101A10004D464F46495B5546091A5944E953B3426E
:101A200014D03179002911D1B4420FD0464520D0CD
:101A3000C8243088E40018803188A14206D05C4672
:101A400051184C805988019151188C466345C2D079
:101A5000614609790029BED143450ED06146088010
:101A6000C8211B88C9008B42B5D0D218019B538076
:101A7000B1E7009998460B60DAE7644600990C607C
:101A8000ECE7C046083900200C3900208C210020EA
:101A900088210020F0B5D6464F464646494BCA1C21
:101AA0000400C0B513400B2B4AD9C822D200934280
:101AB00049D8994247D8444A1268A24245D8434976
:101AC0000968A14241D9082149428C46A444604694
:101AD000078861463E00891A083EB0B289B2451AAD
:101AE000ADB282469D422ED320009D4237D0D619FA
:101AF000B1463679002E37D148460088344F8046AB
:101B000008003D680830181880B24D4556D01518A9
:101B1000464600272E8066462F71C8276980308090
:101B20002D88FF00BD4201D052195080AC2255468D
:101B30002848491B865A76189B19835220000EE0CC
:101B40000C239942B7D9002009E0FEF751FDB022DD
:101B500020498B5A01338B52FEF74CFD2000E0BC2C
:101B6000BA46B146A846F0BD1426B046984446464B
:101B7000B6B2B542F3D30800154E08301818B04677
:101B800080B236681518AE4201D946463560002647
:101B90002E7166462F80C827698030802D88FF000F
:101BA000BD4201D052195080AC2255460948491B0C
:101BB000865A71185B1883522000D0E715183D60D3
:101BC000A6E7C046FCFF0000083900200C390020C1
:101BD000882100208C210020F0B5CE46474680B5F4
:101BE00000283CD04349C31C19400B2934D9C823D1
:101BF000DB00994233D8884231D83F4BC8229946FE
:101C00001B68D2009C463D4B521A1D6863465B1B05
:101C10009EB21B0490461B0C934213D208277F42AE
:101C200008E00488FB1A1B198B421AD223002600F5
:101C3000984507D9E8180279002AF2D006883300BF
:101C40009845F7D8A82200202D498B5A01338B5292
:101C5000C0BCB946B046F0BD0C218842CDD90020A9
:101C6000F6E71427B84688444746BFB2BB421ED3A6
:101C70000B000833F3189BB2EF183A7101223C8035
:101C8000C8247E80038002713A88E400A24201D019
:101C9000AA185380AC241A4B1A5B08328918AE225A
:101CA00089B219539C5A8C420FD299520DE00123EC
:101CB000AC21134A0371535AE3189B1B9BB2535236
:101CC0000231545A9C4200D25352844501D008300C
:101CD000BEE70C4B1968030004E01B88EB181A7967
:101CE000002A05D08B42F8D14B4608301960AFE787
:101CF0001900F9E7FCFF00008821002008390020C6
:101D00008C2100200C3900201F4BF0B500224546E5
:101D1000984624235746DE464E469B46924603325B
:101D200004249146194BE0B5194F9C46194D1A4BA6
:101D3000BB4451463A682960494603338B43002C23
:101D40000BD096880021002200E0030001321960C8
:101D5000981919002B60A242F7DB634662465C804B
:101D60004346043704C39846BB4506D03A68116819
:101D7000D5688C469368D488DBE7F0BCBB46B24696
:101D8000A946A046F0BDC04640220020843700206E
:101D900014E40010B0370020A036002070B50828E9
:101DA00018D8104B8000C558FEF722FCEB681C6861
:101DB000002C11D022681A602A689388D1880133D8
:101DC0009BB29380994203D3FEF714FC200070BDB0
:101DD000D380F9E70024F9E72A68138801331380D8
:101DE000F2E7C04614E4001070B50C00082810D8C3
:101DF00000290ED0074B8000C558FEF7F9FB2A6872
:101E00009388013B9380EB681A6822601C60FEF7A0
:101E1000F1FB70BD14E400100C2040427047C04636
:101E20007047C04630B50D002E490400096883B0E4
:101E300000292CD100282AD00799002927D0002D6D
:101E400047D0002A48D0002B49D0274800212061E4
:101E5000002021606160A160A18325316054069952
:101E6000A1612821605412680899E1602968002A5C
:101E700000D062601B68002B00D0A360002909D14C
:101E80002000079B9847002801D1200000E0002097
:101E900003B030BD2B68002BF2D0019300236846BD
:101EA00001A9009301F0ECFC01A9684605F082F855
:101EB00025232A682260E15C203B0B40052BDFD103
:101EC000002ADDD00B07DBD52100200006F0FEFB49
:101ED000D6E7064D002AB6D1044A002BB5D1034BF4
:101EE000B3E7C046E0370020191E0010A0E4001040
:101EF000014B18607047C046E0370020021E0DD02D
:101F0000074B1868002808D02823C35C0133DBB2D4
:101F10009B1A5A4253415B42184070470020FCE72D
:101F2000E0370020F0B5C6460500002600B50028C1
:101F300029D00F230227984607E028002B699847ED
:101F40000136F6B2002C1ED02500FEF751FBAC7B0B
:101F5000013CE4B2AC73FEF74DFB002C13D16B7B5C
:101F60002C681F42E9D142462B7B1340022B0ED036
:101F7000012B11D0002BE3D128000136FFF7F6FC2E
:101F8000F6B2002CE0D1300080BCB846F0BD29008C
:101F90000820FFF729FFD3E729000720FFF724FFD8
:101FA000CEE7C04610B5FEF723FB0022084B1A709F
:101FB000FEF720FB074B1868002803D107E0C06834
:101FC000002804D0436F002BF9D001F0A7FC10BD0E
:101FD0005A4D0020D8460020F0B5C1234F46464652
:101FE000D6468046C0B50D00170084B25B009A4209
:101FF0003FD00CD81400433BFF3B9C43012C29D01D
:1020000000263000E0BCBA46B146A846F0BDA02389
:102010009B009A42F4D1E31C0324CA1CA343A243AD
:102020009B189BB21800103080B29342E8D38242D2
:10203000E6D8FFF7D1FD061EE3D000230360434638
:10204000C71813372B4B2904A7430D4347608560FE
:10205000C360D6E70720FFF7A1FE061ED1D00023FC
:1020600029040D4303604360856007734373C48193
:10207000C7E700239846204B00269A4600230327F3
:10208000994607E043466D1AADB21860002DB8D0EE
:10209000804600240820FFF781FE00281BD052460E
:1020A000E31CBB43D31A1A1C9BB2AB4200D92A1CB7
:1020B0004B46041903601334104BBC4391B2446087
:1020C00005814281C360002EDCD16D1AADB20600DD
:1020D000002DDDD195E7FEF78BFA0122084B1A702F
:1020E000FEF788FA002E00D18AE73000FFF71AFFCA
:1020F00086E7C04680000100EC0500008200010078
:102100005A4D002070B5032604AC20CC0330B043F8
:1021100024880E18A6420FD8002D00D02D181800C4
:10212000002303600B04194302234373013B456002
:1021300081600273C38170BD0020FCE770B50400AC
:102140000089884226D9638999422CD92181246843
:10215000CB1A9DB26389081A80B2AB4208D2228999
:10216000ED1A821822812468ADB26389AB42F6D39E
:10217000227B120704D19D4202D0637B9B070AD5C4
:102180002B0420682B43A360002801D0FFF7CAFE70
:102190000023236070BD63682000191B691889B291
:1021A000FFF778FCECE70D00E2E7C046030030B52E
:1021B00000281CD080225202914218D2002918D047
:1021C00002898CB2A21892B2944210D8057B0120E9
:1021D0007F2D0DD95D68691A1D001035A94207D3FE
:1021E00059605989002064185C811A8100E001203F
:1021F00030BD0020FCE7C04610B5002814D0802375
:102200005B02994210D2002910D043898AB29A42C7
:102210000AD844689B1AA4464381038961449A1AE8
:1022200041600281002000E0012010BD0020FCE799
:1022300010B500291DDB002819D000292BD00389F7
:102240008AB2D3189BB29A4211D8047B7F2C08D84B
:102250004468611A4160418903815218428100201B
:1022600006E04468611A04001034A142F2D2012051
:1022700010BD49420028FAD043898AB29A42F6D862
:1022800044689B1AA4464381038961449A1A4160B9
:1022900002810020ECE70020EAE7C04610B50028E4
:1022A00002D0FFF73FFE10BD0020FCE70300002036
:1022B000002B04D01B68013080B2002BFAD170478C
:1022C00010B5041E06D0FEF793F9A37B0133A37368
:1022D000FEF790F910BDC04610B5002811D00029B6
:1022E0000FD00368002B07D002890C8912190281D4
:1022F00018001B68002BF7D10A89038901609B181D
:10230000038110BD10B50C00002819D0002916D08B
:102310000368002B07D00289218952180281180016
:102320001B68002BF7D12289038904609B18038165
:10233000FEF75EF9A37B0133A373FEF75BF910BDD3
:102340000029FCD0F4E7C046F0B54646D6464F46D5
:102350009246C0B581460E1E984600D17FE00B899B
:10236000934200D27BE0002800D178E04346028906
:1023700053449A4200DA72E0002744890BE07289E4
:1023800033899A4244D04B465C891B899C4234D0A5
:102390005346002B49D042467389A41ADB1B9C424A
:1023A00000D91C005546A24500D925004B46586867
:1023B00073682A00D919404409F0F0FD5346A84437
:1023C0007F195D1BABB29A464B465C897389BB4251
:1023D00003D836680027002E1ED04445CFD14B4687
:1023E0001B689946002B22D0002E2ED10023984640
:1023F0004B465C891B899C42CAD14B461B68002B0B
:10240000C6D006204042E0BCBA46B146A846F0BD60
:102410003368002BF5D1B6E75346002B1FD1444556
:1024200016D04B461B899C42E7D00020EBE7534671
:10243000002B14D1002EF8D0328973899A42F4D13E
:102440003368002BDDD10020DDE70023984696E7B6
:102450004B461B689946002BC8D10020D3E71020BB
:102460004042D0E710B5002904D000230A89FFF7C5
:102470006BFF10BD10204042FBE7C046F0B5C646DA
:102480000500884616001900002700B5002828D04E
:102490004346002B25D0002A05D122E02D68091BD8
:1024A00089B2002D1DD06C89002901D0A142F5D23E
:1024B000641AA4B2321CA64200D9221C4346D81981
:1024C0006B6894B29C46361B22006144E719B6B291
:1024D00009F064FDBFB22D68002E02D00021002D4E
:1024E000E1D1380080BCB846F0BDC0460B0070B5E5
:1024F000150011891A00FFF76FFD041E04D0002398
:1025000029002A89FFF720FF200070BD7047C046D0
:1025100010B5037D0400042B05D0072B0FD000203D
:10252000032B00D010BD200003F02EFB00280AD1A1
:1025300005232375200003F0EFFD0020F2E703F0F0
:1025400023FB002807D0431CECD10822638B00201A
:1025500013436383E6E709232375EBE770B50600B1
:10256000806F002803D0FFF799FE0023B367746FD4
:10257000002C18D06068256800280CD0FFF78EFE6C
:1025800021000320FFF730FC002D0AD02C006068EA
:1025900025680028F2D121000320FFF725FC002D3B
:1025A000F4D1002373670123F46E5B423386002C61
:1025B00016D06068256800280CD0FFF76FFE210058
:1025C0000320FFF711FC002D0AD02C00606825685D
:1025D0000028F2D121000320FFF706FC002DF4D1E2
:1025E000346F002C16D06068256800280CD0FFF7E7
:1025F00055FE21000320FFF7F7FB002D0AD02C0029
:10260000606825680028F2D121000320FFF7ECFB69
:10261000002DF4D100236822F3663367B35270BDF6
:102620007047C04610B501000120FFF7DDFB10BD6B
:10263000F8B5CE46474680B5002963D0002866D05D
:10264000037D002B60D1002A2BD0324E370010378B
:1026500033681B68002B03D113E0DB68002B10D01C
:10266000DC8A9442F9D11C68002C04D00D68002D3E
:1026700001D0AC42F1D108204042C0BCB946B046BE
:10268000F8BD0436BE42E3D10B68002B00D00360D6
:10269000214BC2821A681860C26004F041F9002020
:1026A000EBE71E4B802698461A881D4B194F9C4617
:1026B00010239946F601B944013292B2624514D012
:1026C0003D002B681B68002B03D111E0DB68002B59
:1026D0000ED0DC8A9442F9D1013EB6B2002EEBD185
:1026E000434602201A804042C7E7C0221202E7E7B1
:1026F00004354D45E5D143461A80002AC4D1022055
:102700004042BAE7074999E706204042B5E7102062
:102710004042B2E748E40010DC460020700E002082
:10272000FFFF0000A0E4001070B5041E30D0037D50
:10273000002B2DD10220FFF731FB051E28D00122EE
:1027400023690361E38A0275C382627D4275A268D0
:10275000826022680260002B0CD0124A13689C42EF
:1027600004D11CE0DA68944214D01300002BF9D194
:102770000023E36021000120FFF736FB0A4BAB6129
:102780000A4B1A681D60EA6004F0CAF8280070BDA0
:102790000025FBE7E268DA600023E360EAE7E3682C
:1027A0001360E5E7DC460020712F0010E4460020AE
:1027B0000300F0B5C16A058D476A5C8E0A4E681A3F
:1027C000C019221CB44200D9321C92B2821A01D420
:1027D0005D85F0BDC91B02D400205985F9E70022B0
:1027E00000205A85F5E7C046DA020000F8B5002857
:1027F00019D0028D184B511889B299421AD9190073
:10280000476A458E154EC46A0185FB182A1CB542DD
:102810000AD892B212199A1A10D4B62241851B1BFB
:10282000520093420ED8F8BD321C92B212199A1A75
:10283000F3D503E08A42E2D80B00E1E7E41B08D4B9
:102840004485F0E70222438B1343438303F064FC87
:10285000E9E700234385E6E7B4050000DA0200005B
:10286000C74BF0B545469846DE46424657464E466B
:102870001B68E0B501331360C24B87B09B465A46D4
:102880001B7801331370C04B1C68002C00D1A1E0F1
:1028900000239A465B46A27F1B789A4200D152E100
:1028A000A3774223227DE35C022A00D122E10B2B95
:1028B00000D91CE19923E55C002D00D146E10133EC
:1028C000E35C0B2B00D912E19820B04B5D19013D60
:1028D0002978235C8B4200D272E16023E15A0029FF
:1028E00000D0A1E0200003F0D7FE002800D1A1E035
:1028F000227D01270025062A00D1ABE0082108002F
:10290000637A18400590194220D0042A00D053E180
:102910004346226A1B68FA219B1A99469423E6587B
:102920009B4B4900F01809F03DF8814500D939E189
:102930009B27FA21E35D974849005843801909F025
:1029400031F800230593814500D940E1676F002FDE
:102950000BD04346226A1B689A1A4023E15E4B0063
:102960005B185B009A4200D388E0237D032B00D1E3
:1029700096E0092B00D0C4E04346226A1B689B1AEC
:10298000F02B00D893E09023E5582000FFF7E6FDF8
:102990005346002B00D1C2E0E268DA60059B002BB1
:1029A00000D0C3E02369210001209946E668FFF7C3
:1029B0001BFA0023784C2370002D07D00D214846C8
:1029C0004942A8472378002B00D05CE73400002C54
:1029D00000D05FE7714F00253C68002C04D11CE05B
:1029E0002500E468002C18D04346226A1B689B1A15
:1029F000F02BF5D9237D012B04D90A2B02D020001E
:102A0000FFF7ACFD002D00D123E1E668EE60210068
:102A10000120FFF7E9F9341EE6D107B0F0BCBB4650
:102A2000B246A946A046F0BD200002F0DFFF002814
:102A300000D11EE198230022E2549932A35C062BB8
:102A400000D955E70133A354227D01270025062A2A
:102A500000D053E7638BDB0606D54346226A1B682A
:102A60009B1A282B00D93D00002305936EE73900FF
:102A70000320FFF7B9F9002E0CD0370078683E68C4
:102A80000028F4D0FFF70AFC39000320FFF7ACF967
:102A9000002EF2D100236367237D032B00D068E76B
:102AA0004346226A1B689B1A282B00D96BE7002D2E
:102AB00000D068E7237F627F0133DBB2E5682377CC
:102AC0009A4211D80023344A237713708C33E35889
:102AD000002B6BD02100206998472F4B1B78002BCF
:102AE00000D0D0E6002861D0A2462C006FE7022774
:102AF000012500E7052B00D8DCE60023012505931E
:102B000024E7002DD6D09022A558012B00D83FE70E
:102B10000A2B00D039E75346002B00D03CE71A4B74
:102B2000E2681A60059B002B00D13BE7238B626AA9
:102B3000216D0293E38A20000193231D009323005B
:102B400003F0A0F92EE7A246E46840E73023E15EF7
:102B50001348238E834202D8013319B221864023C1
:102B6000E35E01278B4200DDC5E6200003F0D0F8CC
:102B7000002839D0236F002B33D0227DBBE6C0461E
:102B8000E84600205E4D0020D846002058E40010A2
:102B9000B84C0A00F82401005C4D0020EC460020EF
:102BA000FE7F000001233D000593CFE62000A246F2
:102BB00003F0B2FA2C000AE7072A00D1A8E653E78F
:102BC0000133DBB223548B4200D292E685E620002B
:102BD00003F000FD002800D0B8E6E35D0133E355C3
:102BE000B4E6E36E002BC8D0237D022B13D03C2229
:102BF000A35E3E21625EDB109B184222A15C0A1C90
:102C00000C292DD81E49D2B28A5C93401D4A9342AA
:102C100024DC4022A3520023482123866033E25A59
:102C2000605A131C824217D84A209BB25B08235279
:102C3000618E4A0092B2934200D22252482300226F
:102C4000E1522233E252200003F06EFC0127227D84
:102C500051E6E6683E60DAE6031CE5E70A4BD8E792
:102C60000C220749D2B28A5C9340064A9342D0DDD7
:102C7000F4E7200003F050FA002800D0DAE637E647
:102C800038E40010FE7F0000FF7F000070B5041ED6
:102C900016D06068256800280CD0FFF7FFFA2100E5
:102CA0000320FFF7A1F8002D0AD02C0060682568EA
:102CB0000028F2D121000320FFF796F8002DF4D16F
:102CC00070BDC04610B5041E08D04068002801D071
:102CD000FFF7E4FA21000320FFF786F810BDC04695
:102CE000002800D04175704770B505000320FFF73C
:102CF00055F8041E06D01022290009F04FF960682B
:102D0000FFF7DEFA200070BD002800D00161704797
:102D1000002801D08423C1507047C046002801D04C
:102D20008023C1507047C046002801D09023C15075
:102D30007047C046002802D0037D012B00D07047A9
:102D40008161FCE7002802D08C23C1504277704794
:102D500010B5002806D0037D012B03D90A2B01D022
:102D6000FFF7FCFB10BDC046036810B50C008B429A
:102D700004D125E0DA68A2421AD01300002BF9D161
:102D80000023E360237D002B0BD00A2B0CD0012BFA
:102D90000AD02000FFF7E2FB237D0A2B04D0012B91
:102DA00002D0638BDA0713D400232375E38210BDAE
:102DB000E268DA600023E360237D002BE5D1F0E7D1
:102DC000CB6803600023E360237D002BDDD1E8E7BF
:102DD000022213432000638303F09EF9E4E7C04618
:102DE000F0B54E464546DE465746E0B505000E00B6
:102DF00087B0002861D0037D0A2B00D19EE0026DD0
:102E00009246426A05929022825893460269914600
:102E1000002B60D1C38A00269846002B64D04D4A0F
:102E20001368834254D1C368136000232C6F984603
:102E30000026EB60002C5AD1EC6E002C16D0606896
:102E4000276800280CD0FFF729FA21000320FEF79D
:102E5000CBFF002F0AD03C00606827680028F2D121
:102E600021000320FEF7C0FF002FF4D16C6F002C6F
:102E700016D06068276800280CD0FFF70FFA2100F1
:102E80000320FEF7B1FF002F0AD03C0060682768DE
:102E90000028F2D121000320FEF7A6FF002FF4D175
:102EA000002E3ED129000120FEF79EFF5B46002B3D
:102EB00003D00D2148464942D84707B0F0BCBB4675
:102EC000B246A946A046F0BDDA68AA423FD0130038
:102ED000002BF9D1A9E7C38A01001F489846FFF7E4
:102EE00043FF01221D4B1A702C6F002CA4D0606888
:102EF000276800280CD0FFF7D1F921000320FEF746
:102F000073FF002F98D03C00606827680028F2D13A
:102F100021000320FEF768FF002F00D18CE73C0062
:102F2000F2E72B8B51460293434601932B1D0093EE
:102F300028002B00059A02F0A5FFB3E7010008481E
:102F4000FFF712FF29000120FEF74EFFB5E7EA6800
:102F5000DA606AE7DC460020D84600205C4D00209D
:102F6000EC46002010B50121FFF73AFF10BDC04626
:102F7000080010B50121FFF733FF0D20404210BDBE
:102F8000F0B5C646050000B50120FEF707FF041E98
:102F900024D09C220021200008F0FAFF64236B4A11
:102FA0006575E2526A4B4022A362FF23E372F93B4C
:102FB000A352E387674B684A2363684B1B6823620D
:102FC000674B1B78A377674BA3648423E250664A60
:102FD0001033E250200080BCB846F0BD0827634E95
:102FE0003468002C0AD02000438BE4681F42F8D0DC
:102FF000BB434383FFF78CFA002CF4D15C4B186879
:10300000002812D0554B1C68036AE11AC368002BD4
:1030100008D01A6AA21A8A4201D311001800DB688C
:10302000002BF6D10121FFF7DBFE0120FEF7B6FEF3
:10303000041E06D0B8234F4AD2581388013B138090
:10304000A7E73368002B16D0444A0021106802E03D
:10305000DB68002B09D01A7D092AF9D11A6A821A75
:103060008A42F5D311001C00F2E7002C03D00021A6
:103070002000FFF7B5FE0120FEF790FE041E07D0EA
:10308000B8233C4AD2581388013B9BB21380D5E742
:103090003368002B16D0314A0021106802E0DB684B
:1030A000002B09D01A7D082AF9D11A6A821A914296
:1030B000F5D811001C00F2E7002C03D000212000FD
:1030C000FFF78EFE0120FEF769FE041E07D0294B94
:1030D000B8229A581388013B9BB21380D4E76BB295
:1030E000002B30DB002D21D02A003368013AD2B208
:1030F000002B1BD019490F680021884607E0186A89
:103100003A1A90461C000A00DB68002B08D0597D53
:103110008A42F4D8F8D1186A3E1A4645F4D3EFE74C
:10312000002C03D001212000FFF75AFE0120FEF7FA
:1031300035FE041E00D14DE7B8220E4B99580A887F
:10314000013A0A80C4E77F22CFE7C046680B00003F
:10315000B405B405FFFF18029D340010E8460020B6
:103160005E4D00200100680B00DD6D00D846002098
:10317000EC4600208C210020F8B50120FEF70EFE61
:10318000041E22D09C220021200008F001FF4022D2
:10319000642364496275E152634BA362FF23E372C7
:1031A000F93BA352E387614B614A2363614B1B6880
:1031B0002362614B1B78A377604BA3648423E250A6
:1031C0005F4A1033E2502000F8BD08265D4D2C68A0
:1031D000002C0AD02000438BE4681E42F8D0B34391
:1031E0004383FFF795F9002CF4D1574B186800285A
:1031F00012D0504B1C68036AE11AC368002B08D038
:103200001A6AA21A914201D811001800DB68002B3B
:10321000F6D10121FFF7E4FD0120FEF7BFFD041EFA
:1032200006D0B823494AD2581388013B1380A9E736
:103230002B68002B16D03F4A0021106802E0DB68A3
:10324000002B09D01A7D092AF9D11A6A821A8A42FA
:10325000F5D311001C00F2E7002C03D00021200060
:10326000FFF7BEFD0120FEF799FD041E07D0B8232D
:10327000364AD2581388013B9BB21380D5E72B689E
:10328000002B16D02B4A0021106802E0DB68002BCF
:1032900009D01A7D082AF9D11A6A821A8A42F5D30E
:1032A00011001C00F2E7002C03D000212000FFF7E2
:1032B00097FD0120FEF772FD041E07D0234BB822B4
:1032C0009A581388013B9BB21380D4E72B68002BDC
:1032D0001AD0184A00253F21166806E0186A110026
:1032E0001C00351ADB68002B08D05A7D9142F5D8B6
:1032F000F8D1186A371ABD42F4D8F0E7002C03D091
:1033000001212000FFF76CFD0120FEF747FD041EA0
:1033100000D158E7B8220D4B99580A88013A0A8023
:10332000CDE7C046680B0000B405B405FFFF1802E6
:103330009D340010E84600205E4D00200100680B1F
:1033400000DD6D00D8460020EC4600208C210020D6
:1033500030B50400037D85B0002903D0042B0CD0C8
:10336000072B0AD0012B5ED0022B4FD0002B37D079
:103370002000FFF7CDF805B030BDA26F002A03D1C1
:103380003F4A218D9142EDD0238B20000293E38AA6
:10339000626A0193231D0093216D230002F072FDE8
:1033A000237D012B04D90A2B02D02000FFF7D6F889
:1033B000344A1368A34204D158E0DA68A24252D0DA
:1033C0001300002BF9D100230122E3602E4B1A7069
:1033D0002E4B1B68A34213D101F03EFF0020CAE729
:1033E000E38A002B0CD02A4A1368A34204D143E09D
:1033F000DA68A2423DD01300002BF9D10023E3602C
:1034000001202100FEF7F0FC0020B4E721001D4858
:10341000FFF7AAFC01221C4B012021001A70FEF7C5
:10342000E3FC0020A7E71B4A002110000C30536882
:103430001B68002B05D0DD6FAC420FD0DB68002B82
:10344000F9D104329042F2D121001348FFF78CFCED
:1034500002202100FEF7C8FC00208CE7D967DB685A
:10346000002BE8D1EDE7E268DA60ACE7E3681360CF
:10347000A9E7E268DA60C1E7E3681360BEE7C04627
:10348000B4050000D84600205C4D0020E046002036
:10349000DC46002048E40010E4460020F8B50C00AB
:1034A0001500002946D0002A25D01389098D234A0A
:1034B000CB189BB293421AD91300616A668E8C4670
:1034C0001F4FE06A23856244311CBE4200D9391C7B
:1034D00089B20918511A25D46385B623121A5B00E4
:1034E0009A4217D82800FEF7D9FE0020F8BD99426D
:1034F000E2D81A00E1E70020002BF7D10B7D012B69
:1035000003D010224B8B13434B8301212000FFF784
:103510001FFFEBE70222638B20001343638302F05B
:10352000FBFDDFE76346C01A01D46085DAE70023BC
:103530006385D7E710204042D8E7C046B4050000B5
:10354000DA020000F8B5CE464746040080B50028F0
:1035500064D00023856F6F7B83678433C658002E49
:103560000FD0010000232A000069B047002829D0AD
:103570000D303CD00520A5674042C0BCB946B046DE
:10358000F8BD018D2B89274ACB189BB2934231D9C4
:103590001300616A668E8C462349B146E06A238532
:1035A00062448E4200D98946494689B20918511AA7
:1035B00024D46385B623121A5B009A4223D82800CC
:1035C000FEF76CFEBB0610D5238D164A934201D040
:1035D000013323858423E558002D06D000230022E3
:1035E00021002069A8470D3001D00020C5E70D203B
:1035F0004042C2E79942CBD81A00CAE76346C01AD4
:1036000009D46085DBE70222638B200013436383C8
:1036100002F082FDD3E700236385D0E7102040420B
:10362000ABE7C046B4050000DA020000F0B54F4633
:103630004646D646C0B5204D204F2B7801332B701F
:103640001F4B9946012398464B461C68002C1BD003
:1036500008262B78A27F9A421BD04246A377638B21
:103660001A421ED11E4216D1E3689A46A36F002B60
:1036700007D0002320003B70FFF764FF3B78002B4E
:10368000E2D15446002CE4D1E0BCBA46B146A8468B
:10369000F0BDE468F6E7B34320006383FEF738FF2C
:1036A000E2E7022213436383200002F035FD032288
:1036B000638B93436383D5E75E4D00205C4D002010
:1036C000D846002010B5FFF7B1FF054A1378013343
:1036D000DBB21370DB0700D410BDFFF7C1F8FBE7C6
:1036E0005D4D002030B5040085B0002800D195E084
:1036F000037D012B49D01021428B0A434283042BC6
:103700000FD1A26F002A11D1464A218D91420DD1CD
:10371000022B5AD0002B60D02000FEF7F9FE05B036
:1037200030BD072BF4D1A26F002AEDD0238B2000EF
:103730000293E38A626A0193231D0093216D2300A3
:1037400002F0A0FB237D012B19D8374A13689C4255
:1037500004D156E0DA68944250D01300002BF9D11E
:1037600000230122E360314B1A70314B1B689C42ED
:103770004AD001202100FEF737FB0020CFE70A2BBB
:10378000E3D02000FEF7EAFEDFE72A4A002110001E
:103790000C3053681B68002B05D0DD6FAC420FD096
:1037A000DB68002BF9D104329042F2D1210022488B
:1037B000FFF7DAFA02202100FEF716FB0020AEE741
:1037C000D967DB68002BE8D1EDE721001648FFF749
:1037D000CBFA0122154B1A70CBE7E38A002BC8D035
:1037E000164A13689C4204D115E0DA6894420FD05F
:1037F0001300002BF9D10023E360BAE7E268DA6036
:10380000AEE7E3681360ABE701F026FD002086E732
:10381000E268DA60EFE7E3681360ECE7102040420B
:103820007DE7C046B4050000D84600205C4D00206E
:10383000E046002048E40010E4460020DC4600207A
:10384000034B044A10681A68944660441860704735
:103850006C0E0020E846002000290AD08B8B002B3C
:1038600007D0282B06D9283B1A1C9BB2834203D8C9
:1038700090B270470020FCE7021C90B2F9E7C04606
:1038800070B504000D00002802D00368002B00D1A1
:1038900070BD1F4A1068002805D00268934226D0E8
:1038A000C0680028F9D11B4B1868002806D023688F
:1038B00002689A4224D0C0680028F9D1002DE7D0D0
:1038C0002B68002BE4D0144B1A68002AE0D0236840
:1038D0001168994205D0D268002AD9D0116899425E
:1038E000F9D12B681360D268002AF0D1D0E7C668FE
:1038F0000121FFF775FA002ED5D030002368CCE700
:10390000C6680121FFF76CFA002ED7D03000CEE751
:10391000D8460020DC460020E446002070B5446F05
:103920000600002C18D06068256800280CD0FEF72F
:10393000B5FC21000320FEF757FA002D0AD02C0019
:10394000606825680028F2D121000320FEF74CFAB8
:10395000002DF4D10023736770BDC046F0B5454615
:10396000DE4657464E46564BE0B51D88002D46D0E4
:10397000544B994600234A461380534B00221E683D
:10398000524B1F881B7898464146C943504B8A4684
:103990001B6850499C468B460023002E1FD0140004
:1039A00014346444954200D87EE0531C9BB2974285
:1039B0002BD85146C918C9B2715C012928D00229F7
:1039C0002AD0002919D09F4252D963441B7D012B74
:1039D00000D871E0D218012392B2002EDFD111007D
:1039E0001431614495425FD90C78531C9BB2012C71
:1039F00050D0022C4BD0002CE7D14A461380F0BCAB
:103A0000BB46B246A946A046F0BD21780129D6D1D1
:103A10001A0001340123C5E7911C89B29F4222D9C3
:103A200063441B7D042B44D14B1CAB4241DAD31CB5
:103A30009BB2002E32D08F421FD84446091BC9B218
:103A4000715C0432090292B29F421DD844461B1B8E
:103A5000DBB2F35C0B43591E89B2594500D91E4BAA
:103A600043860123B9E744461B1BDBB2F35CD9E76D
:103A700041465B1ADBB2F35CA9E76144097D04327D
:103A8000090292B29F42E1D963441B7DE2E7911C97
:103A900089B2C5E71A0001310123A3E76144097D1A
:103AA0000432090292B2EFE7002BA8D04B461A80ED
:103AB000A5E74B461980A2E74B4602321A809EE7E3
:103AC0004E4D00204A4D0020F44600204C4D002071
:103AD000F0460020B3050000B4050000F0B5D6465E
:103AE0004F464646C0B5C3680500587B1A7B0002A6
:103AF00010430C00FDF7B4FDC30751D401239A46CF
:103B0000FE339846294E336899462B894B449C4690
:103B1000E36858791A799979000210430904084337
:103B20006146DA791206024320898018081A2DD4DA
:103B3000587B1A7B00021043FDF792FD5346034267
:103B400007D127682000FFF7BDF8002F17D03C00F1
:103B5000D9E7EB6801201F7B5B7B1B021F43FDF74E
:103B60007FFD41463843EA6883B2276808401B0A54
:103B7000107353732000FFF7A5F8002FE7D100243E
:103B80002C60E0BCBA46B146A846F0BD531AF7D542
:103B90004B46D21A91B268682981FEF7CFFAEFE757
:103BA0002000FFF773F80024EAE7C046BC45002078
:103BB000F0B5DE4657464E464546E0B5A94B0400F3
:103BC0001B7883B0DB0654D4A74BA84E9B463088A5
:103BD0001A6800280ED1636AD11A45D4D243218DC8
:103BE000CB18D34240D403B0F0BCBB46B246A94682
:103BF000A046F0BD277D062FEDD8636A991A0129EA
:103C000000D5B1E1DD43AD18C54200D5ACE1984D1A
:103C100089B22B8968685B1A02892B814389521A01
:103C200092B2994208D90027478102810068C91AD7
:103C3000438989B28B42F7D3FEF7DEFA5A46636AAC
:103C40001360EA68190A51711902090E9171190E6F
:103C50001371D171228DD218DB43DA4200D48EE287
:103C6000200002F0EBF9BEE70222638B134363836B
:103C7000B9E76023C35A7C4A9C46836D93469846B5
:103C80001268436D077D991A13D4934200D1B4E1B1
:103C9000784B99461D686346C246A8451CD1764BB1
:103CA0001968CB7B887B1B0203439C450AD3634680
:103CB00012E0704B99461D686F4B1968CB7B887B6F
:103CC0001B020343602163520231605A984200D2C2
:103CD00048E1AA466265A565616C481B32D4634E13
:103CE0003088002800D132E1636B002B00D182E7DD
:103CF000A16B4D1B00D46CE79BB299463C23E55E5B
:103D00004B465E49EF100988BFB28C46C91BC91AE1
:103D100089B24D192DB20BB2A587002B04DA634688
:103D2000FF1A3B004B4499B23E27E35FED109F1012
:103D3000DB1BCB1840219BB2E3875B196352002346
:103D4000636346E7CB43EB4200D55EE1236D5B1B2B
:103D500000D55AE10423628B134208D09A43628350
:103D60004633E05A023BE05200202233E0523C202E
:103D7000235EE08FDB101B184020235242230020DB
:103D8000E0526564032F1ED90633E05A0233E35A2A
:103D9000691A89B2834200D8E4E180231B011340F1
:103DA0005A425341628E013353431A1C9BB28B42D9
:103DB00000D90A1C821893B2984200D825E3012248
:103DC00048235242E252266F2D4F002E00D1B2E11D
:103DD000B846AA46270017E070683468FEF766FA0E
:103DE0006622BB5A1B1ABB524246338912883000E6
:103DF0009B1842461380FEF765FF002C00D198E126
:103E00004B461B6826009A46F1684B7908798A79F7
:103E10001B020343C8791204134300061843FDF73D
:103E200023FCF3680400587B1A7B00021043358999
:103E3000FDF716FC03231840431E984153466519AD
:103E40004019181AC8D53C0047466623E56E9A46C5
:103E50002667002D00D13DE35B46B846A34600939C
:103E600028E0C046584D0020BC450020504D0020A1
:103E70005C21002090140020F0460020E84600203D
:103E8000484D002068682C68FEF710FA52465B46E1
:103E900051469B5A5A461B1A535242462B89128846
:103EA00028009B1842461380FEF70CFF002C00D11F
:103EB00089E225004B46E9681E684B7908798A79C2
:103EC0001B020343C8791204134300061843FDF78D
:103ED000CBFBEB680400587B1A7B000210432F8950
:103EE000FDF7BEFB03231840431E9841341BE71B1C
:103EF0003F1AC7D55C46009B266F9B4673427341B1
:103F00005B42238600234746E5662377642239888F
:103F1000A35A5B18A352638B1A0579D5002E00D1E2
:103F200064E2F1684A7908798B7912020243C87910
:103F30001B041A4300061043FDF796FBE36CC01AFE
:103F400066D4638BCD4ACE4E1340638361E06746EF
:103F500053444744BB4200D1D2E0636B002B00D1F5
:103F600039E6C5E66352B4E6D11A00D5C3E0D143C1
:103F700088464046218DC918C14200D570E693425B
:103F800000D1FBE0656F0027531E002D00D13FE2FA
:103F9000B44601940093E96848790B790002034321
:103FA000994648468B791B040343C87900060343AE
:103FB000934200D1C1E0002F32D0F8680479A246C4
:103FC00044792402A14654464E463443A14684799E
:103FD000C0792404A2464C4656460006344320438A
:103FE000009C201A03D44046C34200D41BE2286838
:103FF0002F00002822D00500CDE7A24B1D6899466E
:1040000043465B1B00D446E656E6200002F016F855
:104010009B4E636B002B68D15B4630881A68D8E5ED
:10402000D01AE4D59848019CFEF75EFE002800D126
:1040300016E660672900FFF751FD11E66646019C10
:104040009B1A00D40CE6487B0B7B00021843FDF75B
:1040500007FBC30700D503E68B48FEF745FE286043
:10406000002800D1FCE55B46E8681A6843790179CD
:104070001B020B43817909040B43C17909061943DB
:104080002B895B18D31A00D583E2636A3188591AE9
:10409000238DC918891A00D4E2E52B68DB68587BA8
:1040A0001A7B00021043FDF7DBFAC30700D580E25C
:1040B0002B685A46218D12685868891A626A94469C
:1040C000614489B21981FEF739F82B681D89DB68D4
:1040D000587B1A7B00021043FDF7C2FA032303400A
:1040E0005A1E9341EB183380BAE54A4615685A4682
:1040F00030881268FCE50222638B13436383AFE5CB
:104100003027E35F002B00DA27E7A94200D024E73D
:104110004321635CFF2B00D1D1E10133DBB2635457
:10412000032B00D9CBE100D017E7200001F07EFE81
:104130006FE73C004746002687E653482B890289F3
:10414000019C9A4200D88BE52B68002B00D187E5B3
:10415000FEF7CAFD002800D182E5002F00D168E7F4
:10416000386067E76A22A35A591889B28B4200D98E
:1041700041E1884200D83FE1A15224E6424DEB687C
:104180002F89587B1A7B00021043FDF769FA03233D
:1041900003405A1E9341FB189AB23280238D9342FA
:1041A00000D261E1636F002B00D177E0EB68587BB0
:1041B0001A7B00021043FDF753FAC3076AD4676FF6
:1041C000002F00D1EEE101239846013399465B466A
:1041D0000095A3461C0009E03B6838009A46FEF7AC
:1041E00071FD5346002B00D1ACE15746236832885D
:1041F0009A469446D4446546FB6859791879090271
:104200000143987900040143D879000601433889B5
:104210004018281A00D563E1587B1A7B000210432E
:10422000FDF71EFA43460342D6D0009BDB68587B5D
:104230001A7B00021043FDF713FA4B460342CBD121
:10424000009DEA68537B107B1B0203439A460120C2
:10425000FDF706FA5346FF21EA68034398B20B4084
:104260001373030A53732B899A46FDF7F9F9032355
:1042700003405A1E934153443380ADE7FFF7FFFFDD
:10428000504D0020901400205C21002003686367DB
:10429000FEF718FD606F0028F8D132885B461B6876
:1042A0009C46944463466362238D20009A1A2285BB
:1042B000FEF77EFA6B681A89002A03D0C84A136099
:1042C00000236B60EB68587B1A7B00021043FDF7FC
:1042D000C7F9C30704D52021C24A13780B431370D2
:1042E000656F002D65D0BE4B03269846BD4F1DE07F
:1042F000FDF7F2FF00236B60EB68587B1A7B00022E
:104300001043FDF7ADF9C30708D520223B781343CE
:104310003B70237D042B01D1033323752B682800C8
:104320006367FEF7CFFC656F002D42D0E9684879DE
:104330000B798A79000218431204CB791043626A20
:104340001B060343934234D15A4613602B89487BA2
:1043500099460B7B00021843FDF782F93040431E5B
:104360009841636A4B44C018EB686062587B1A7BC3
:1043700000021043FDF774F92B899946EB68587BCE
:104380001A7B00021043FDF76BF93040431E984141
:10439000238D4844181A20852000FEF709FA696821
:1043A0000B89002BA8D0434618680028A0D11960BB
:1043B000A0E70122638B1A4230D0934302221343B9
:1043C0006383FFF710FC4746A046009B5C469B4674
:1043D0004346266FE366734273415B42238643463E
:1043E0002377682300220025E2528FE5002D00D1BB
:1043F000A8E5E96896E57C496A23091AE152638ECB
:10440000C3189BB2984200D9D9E44822A352DAE4F7
:104410007648FEF769FC6067FFF722FC0122134330
:104420006383FFF7E0FB7148019CFEF75DFC061E0D
:1044300001D1FFF715FC5B46F868196842790379EA
:1044400012021A4383791B041A43C3791B061343D0
:104450003A89D2188A1A00D594E0290030003E60CB
:10446000FFF73CFBFFF7FCFBEB68587B1A7B000275
:104470001043FDF7F5F8C3076FD4EB68587B1A7B40
:1044800000021043238D2B81FDF7EAF82989830769
:1044900002D5013989B229816868FDF74FFEEB68C2
:1044A0002F89587B1A7B00021043FDF7D9F80323AC
:1044B00003405A1E9341FB189AB2328072E6482399
:1044C000E25A638ED3189BB29A4200D9464B4822D7
:1044D000A3522AE6734273415B422386257780E725
:1044E00023005C469B466346009DCB1A01D4676758
:1044F000D8E65346C91AEB682981587B1A7B00021B
:104500001043FDF7ADF8830702D52B89013B2B81C2
:1045100029896868FDF712FE2B899846EB68587B5D
:104520001A7B00021043FDF79BF8032303405A1E39
:10453000934143449AB25B461B6832809C4667674E
:104540009444AFE623005C469B461B6800279C46CC
:104550003288009D94446767A4E6EB685F7B1A7B12
:104560003F0217433800FDF77BF83E231840FDF764
:1045700077F81F4B1F400743EB68B8B2020A1F735E
:104580005A737FE7C91A89B278683981FDF7D6FD79
:1045900063E7511A89B268682981FDF7CFFD5B4650
:1045A0001A6872E55B461B6832889C4667679444CC
:1045B00078E62B68DB685F7B1A7B3F021743380085
:1045C000FDF74EF83E231840FDF74AF8084A2B68DD
:1045D00017403843D96882B2120A08734A7368E5F3
:1045E000B04500205B4D0020FFFF00005C21002053
:1045F000FFC0FFFFF0B557464546DE464E469222C5
:10460000E0B5CA4CCA4FA35A05000133A352436810
:104610008DB03B604389132B11D89A22A35A0133E2
:10462000A3529622A35A0133A3522800FDF736FE67
:104630000DB0F0BCBB46B246A946A046F0BDBD4B8E
:1046400019685869984604F00DFD002816D14246B5
:10465000F02352691340E02B10D0414643461431F9
:104660002A892800009110330621FDF7C7F8061E9D
:1046700009D09822A35A0133A352D2E7A022A35A09
:104680000133A352CDE73B68587B1A7B00021043ED
:10469000FCF7E6FF010B8900C9B21329BDD92B89AC
:1046A0008AB28B42B9D31300A348143B9BB2038058
:1046B0008146A248066082466889904200D29AE10B
:1046C0009F4A28001380FDF797FD3E687078337885
:1046D00000021843FCF7C4FF3070000A70703E6897
:1046E000F078B37800021843FCF7BAFFB070000A04
:1046F000F0703E6873793079B2791B020343F07928
:104700001204134300061843FCF7AEFF030A73714B
:10471000030CB371030EF3718A4B30713E6818605D
:10472000737A307AB27A1B020343F07A120413438D
:1047300000061843FCF798FF030A7372030CB37268
:10474000030EF372804B30723E681860F07BB37BCF
:1047500000021843FCF784FF3B68B073000AF07353
:10476000587B1A7B00021043FCF77AFFC3B2079311
:104770003F23764A0340069313702B899A4683079A
:1047800000D15AE153465A1C93B2714A0A930892D7
:1047900013809A4500D940E76E4B1E680B96002E99
:1047A00001D100F0E1FB43465B6800209946434697
:1047B0001B693968059343465B69099328239C4626
:1047C0004B46A946049305E0F3683000002B00D166
:1047D00099E01E00327A002A06D06546049B5B5D94
:1047E0000133DBB29A42EFD14B780D78328B1B024A
:1047F0002B439A42E8D18B78F28A9B465D46CB7870
:104800001B022B439A42DFD17368059A9342DBD196
:104810003368099A9342D7D14D46002801D100F060
:104820009FFCF368C3600B9BF3604A4B1E604A4BCE
:104830005046984600234246136010815560D1606F
:10484000464A13609146464A13709246454A138081
:10485000079B93461B0703D501226B7B13436B73A6
:10486000B36F002B10D03000FEF76CFE0D3000D17E
:10487000BEE1B36F002B04D0089B1B88002B00D037
:10488000B6E1324B1B780693069904230A00364C96
:104890001A4026600B4200D17DE1337D022B00D10E
:1048A00047E3284A736A1268934200D147E3D11A5A
:1048B00007D4318D9B1AD94203D40222738B134340
:1048C000738353461B781A0700D4C8E19023F3582A
:1048D000002B03D00E213069494298471D48310012
:1048E000FEF742FA3000FDF79DFE00254B461D60A5
:1048F000434658682560002800D199E6FDF7CEFCB4
:1049000043465D6094E64D46184B1868002800D178
:104910009AE043465B689C4643461B6966469A4656
:1049200043465B69AC469B4625E0C0468C2100208F
:10493000F04600206C2100204E4D0020F44600205F
:104940004C4D0020BC45002090140020584D002004
:10495000504D0020D84600205C210020B0450020AA
:104960005B4D0020484D0020E0460020EC46002032
:10497000C068002867D0057A002D05D02823F35C95
:104980000133DBB29D42F3D14B780D781B022B43F0
:10499000058B9D42ECD18B7899464A46CB781B0219
:1049A0001343C28A91469A42E2D143685345DFD10C
:1049B00003685B45DCD1079B2E0065465A0700D58E
:1049C00033E69B0701D400F0E9FBD44B1A68436A35
:1049D000D11A05D4018D9B1AD94201D400F013FCE1
:1049E0000A9B002B00D120E60223428B1343438312
:1049F00001F092FB19E614212800FDF7FDFB6E89FA
:104A0000C74B31001E804B461B88280099469B1BD4
:104A10009BB29B46FDF7F0FB286843895B4500D2BB
:104A2000FBE55346426859461A60FDF7E5FB2B89C2
:104A3000F6184B46F61A2E8147E65246B94B0A92B3
:104A400008931A80A8E66546B74B1E689B460496F5
:104A5000002E00D1D7E0434658685B690022994692
:104A60002823CA469C46A946059005E0F368320013
:104A7000002B00D1C6E01E00357A002D05D063461C
:104A8000C35C0133DBB29D42F0D1CB788D781B0241
:104A90002B43F58A9D42E9D13568554501D0002D5B
:104AA000E4D14D46002A00D16DE2F068D060049A4E
:104AB000F2605A461660079A500700D5B5E5D2064F
:104AC00000D575E2079B9B0700D4AEE5707DFEF72D
:104AD00057FA8146002800D1C6E2434641461B6989
:104AE000496943600160F38A3A68C3825378117858
:104AF0001B020B43038303230375884B1B6804933A
:104B000001334362C362FEF79BFE4B464A469865FB
:104B100018655864D865814B1B68013B53654B464B
:104B20003269DE671A610C22737A13404A46537267
:104B3000337A13727D4B1B6804934B46049ADA60F8
:104B40004A467A4B1A6001F0EBFE0122784B484648
:104B50001A70FEF703FF3A68D37B917B1B020B436D
:104B60001A0413434A46141D13662000568E03F0A0
:104B7000CDFF220001003000FEF76EFE4B461221F1
:104B80005886484601F070F8002800D066E2484692
:104B900001F0C2FA49E5080002231940034200D19E
:104BA000A5E0337D023B012B00D986E610210800E9
:104BB000738B1840194200D0F4E15E4B1B683362DE
:104BC0009A23F0523000FEF7C9FE337D9A1E012A67
:104BD00000D976E6032B00D0C5E0504A736A12680C
:104BE000013B934200D06CE6300001F0D7F868E654
:104BF000738D002B00D1ADE19622A35A0133A3524D
:104C00004D4C72E64D46487B0B7B00021843FCF787
:104C100027FD430700D508E5A022A35A3E680133CB
:104C2000A3520A3AA35A37780133A352434B089A46
:104C300018001188394A7478126824028A18404989
:104C40003C431438096840680294F478B778240229
:104C50003C4301941C1F009401F072F9E5E45A46AC
:104C60001288002A0ED08023F358002B05D0310083
:104C7000306998470D3000D137E600235A4613803B
:104C800053461B781021194200D06FE14A46126842
:104C9000002A00D17EE1738B194200D0ABE184235E
:104CA000F55831000023002D00D1ABE13069A84751
:104CB00003000D3300D118E6002802D04B461B68D4
:104CC000B36753461B789A0607D5B26F002A00D106
:104CD0009CE12021507B014351730022226010325D
:104CE0001A4200D079E1300001F016FAFDE51022F9
:104CF0001000738B18401A4200D02FE10D4B1B6837
:104D000033629A23F0523000FEF728FE337D092BE0
:104D100000D9D6E50B4A9B00D3589F46BC450020DE
:104D20004C4D0020504D0020E4460020D846002085
:104D30005C4D0020E8460020E04600208021002055
:104D40009014002060E400103000FEF731FF53465D
:104D50001B789B0600D4B4E50223728B1343738344
:104D600007233375ADE51223069A1340122B00D1A9
:104D70009EE1069BDB0600D4A3E5089BC24A396886
:104D80001B88126808789A184B781B020343029319
:104D9000CB7888781B0203430193BC4BBC4900933A
:104DA0003000BC4B096801F06DF84223F35C052B21
:104DB00000D986E500233000338601F0BFFB80E593
:104DC0003000FEF7F5FEB44B1A7810231A4200D1DA
:104DD00077E5AF4A316D1268914200D071E5F26E0D
:104DE000002A00D06DE552461278134352461370E4
:104DF00067E53000FEF7DCFE53461B789B0600D4C7
:104E00005FE50223728B300013437383FDF7A0FF2D
:104E1000A24B1B68B34205D1CDE1DA68B24200D1A2
:104E2000C6E11300002BF8D101229D4B1A700A2312
:104E300033759C4B1A681E60F26001F071FD40E50D
:104E40003000FEF7B5FE53461B789B0600D4F3E016
:104E5000914B1B78DB0605D58D4B326D1B689A4252
:104E600000D1B9E10223728B134373830823337596
:104E700027E53000FEF79CFE874B1B78DB0600D44D
:104E80001FE5834B326D1B689A4200D019E5F36E23
:104E9000002B00D015E53000FDF75AFF7F4B1B6853
:104EA000B34205D187E1DA68B24200D180E1130054
:104EB000002BF8D1B8E7069BDB0600D401E5744B64
:104EC0001968736CDB43CB4200D54FE1336D5B1A3D
:104ED00000D54BE104233375F36F002B00D18DE037
:104EE0009B69002B00D189E000223100306998478E
:104EF000002800D096E13000FEF75AFE5B461B8882
:104F0000002B02D05A46013B1380738E66485A002C
:104F100011009B00824200D201008B4200D34EE17F
:104F20009BB24822B35253461B789B0600D4C8E478
:104F300012E7574B326D1B689A4200D0C1E45346CA
:104F40001A7808231343524613700122738B93433C
:104F50007383B6E4300001F071F84DE69A23300017
:104F6000F152FEF7FBFCD1E63968CDE4738B1942B0
:104F700000D0B3E49023F358002B00D1AEE43069A5
:104F80001F399847AAE4A62294466046A25A0132E5
:104F9000225290E52022110019401A4200D094E6D6
:104FA0002160A0E69A233000F252FEF7D7FC0CE60F
:104FB0000A980C7884464978334A090212682143DA
:104FC0000193324B0291324900930968314B0598A5
:104FD000624400F0B5FFFFF728FB738B134200D04B
:104FE0007CE49023F358002B00D177E40F21306943
:104FF0004942984772E41000FDF750F93000FDF780
:10500000B1FF72E41800FEF749FA51E6328D2749E4
:105010008A4201D0013232858422B558002D00D158
:105020005BE6002331001A003069A8470D3000D13B
:105030005BE453461B7850E6174B1B78DB0600D425
:105040003FE4134B326D1B689A4200D039E4F36E93
:10505000002B00D035E40633337532E40021484696
:10506000FDF7BEFEFFF7E1FA9C22A35A0133A352DB
:10507000B369002B01D1FFF7D8FA01009D3A3069DE
:105080009847FFF7D2FAC046BC4500207C2100209B
:105090009014002080210020584D0020D846002088
:1050A0005C4D0020EC4600201C110000B4050000FF
:1050B000624B1B680493736C049A0133934200D0D3
:1050C00057E65F4A73641268511C7162F162396875
:1050D000013ACB7B887B1B02034319040B433366E5
:1050E0000423F518337572652800778E03F00EFDE2
:1050F0002A0001003800FEF7AFFB420070868300F3
:1051000050481100824200D201008B425ED29BB215
:105110004822B3521E32B35A306F013BB3520028BB
:1051200000D187E003683367FDF7CCFD336F002BB8
:1051300000D17CE000234222B35433868823F35805
:10514000002B07D000223100306998470D3001D183
:10515000FFF7CBFB0223728B13437383FFF7B1FB83
:10516000A622A35A0133A352FFF761FB089B344ADE
:1051700038681B88126805789A1843781B022B43FD
:105180000293C37885781B022B4301932E4B30008A
:1051900000932E4B00F076FEFFF793FB079BDB0797
:1051A00001D4FFF71DFC2A4B1B680362FFF718FCB4
:1051B000F268DA6038E6274BF2681A6034E6214973
:1051C0000B008A4200D8ACE693B2AAE61D490B0058
:1051D0008A429DD993B29BE7F36E002B00D041E643
:1051E000728B0233134373833000FDF7B1FD194B0B
:1051F0001B68B34204D1DEE7DA68B242D8D01300AC
:10520000002BF9D110E60A9B0C499C464B460193B2
:105210000D4B0296009309680C4B624400F032FE7D
:10522000FFF703FA0D3001D1FFF75FFBE6E601233C
:105230005B4282E7F06E0368F36675E79014002026
:10524000BC4500201C1100007C2100208021002092
:10525000E8460020D84600201021024A13780B436C
:10526000137070475B4D0020F8B5DE4657464E463A
:105270004546E0B5042599460AAB1F788246B8003A
:10528000054003200E009346FCF788FD041E4CD019
:105290000023466087720360338914215B1B0381FE
:1052A0003000FCF783FF061E35D163685F68534604
:1052B000E760D88AFCF7D4F953463870000A787052
:1052C000188BE768FCF7CCF9B870000AF87048460C
:1052D000E768FCF7C9F9030A7B71030CBB71E3684B
:1052E00038719846A023DB019C465B46000EF8719E
:1052F000A80260441843FCF7B3F943461873000A48
:105300005873E3689E74DE742000F0BCBB46B2465E
:10531000A946A046F8BDA422064920008B5A0024C5
:1053200001338B52FDF7CEFCEEE73000FCF7B6FF01
:10533000EAE7C0468C210020F0B54746CE4680B54E
:1053400005000C0090461E0085B0002838D0007A79
:1053500000282BD1180003F0D9FB071E2AD0636860
:10536000062199462000434622890096FCF746FA1A
:105370004B461874000A5874EB7AAD7A90211A489B
:10538000425A0132425206220095019241463200B1
:105390002000029703F0FCFC05002000FCF77EFFD4
:1053A000280005B0C0BCB946B046F0BDFCF7A6FD6C
:1053B000071ED4D104252000FCF770FF6D42EFE7F3
:1053C000180003F0A3FB071EF4D04346062120007B
:1053D000228900966568FCF711FA2874000A68743F
:1053E000FF230025CAE7C0468C210020F0B54E46B9
:1053F000DE4657464546E0B58FB08146049100929F
:105400000A93002800D1C0E26223C35A428E5B088F
:10541000191C934200D9E4E08BB20193002B00D118
:10542000DDE0049B002B00D1AFE24B461B7D072B38
:105430000CD0023B022B09D90B24644220000FB090
:10544000F0BCBB46B246A946A046F0BD009A002A71
:1054500000D1CDE064234946CB5A934200D29CE26E
:105460006623CB5A9B46072B00D991E2CB6E9A4616
:10547000002B00D0C5E00A9A01331A400023002512
:1054800005920D930B930C93069302230A9A1A40EC
:10549000002309926A4603930293019BD3835346E8
:1054A0000893009B019A5B1B1E1C9BB2934201D97F
:1054B0006B46DE8B059BB6B2002B00D15EE1019BF3
:1054C0003100B34217D9099B002B0BD14B465B8BA4
:1054D0005B0610D4039B002B04D14B46DB6E002BE4
:1054E00000D1ACE1D04BF11803239943019B9942C1
:1054F00000D9190089B2A02236209200FCF76CFD79
:10550000071E00D18BE17B8932009B1B9BB2069367
:1055100033043343BB60049B7868591906F03EFDA1
:105520003800FCF7C3FE584483B29B46082B00D9D1
:1055300042E14B46DB6D03209A46FCF72FFCAA4460
:10554000041E00D138E100234760837203603B8969
:10555000142103813800FCF729FE071E00D03BE12F
:1055600063685B689846E3604B46D88AFCF778F836
:1055700043461870000A5870E36898464B46188BEB
:10558000FCF76EF843469870000AD870E3685046FE
:105590009846FCF769F8434642461871030A53716E
:1055A000030C9371000EE368D071A0209846C001EF
:1055B000FCF756F843461873000A5873E3689F7463
:1055C000DF74039B002B00D1FDE0029B75191C606A
:1055D000009BADB2AB4200D8ECE1029461E70192CE
:1055E0001FE7111C8BB20193002B00D019E7F6E7DF
:1055F0004A466623D35A9B46D36E9A46002B00D167
:10560000E4E153461A001B68002BFBD19A461300B5
:105610000D92987A04231189019A8000521A03404E
:10562000D31A9BB20B934A466823D35A0693002B96
:1056300037D1009B002B00D082E0682249460698B3
:105640000D9D88520D9353462B6000994B468C4616
:105650004A46DB6D6344D3656423D25A521A4946E5
:10566000CA524A4659460233D1520D9B002B00D1F3
:105670007DE1DB680024002B00D1DFE60A9A920767
:1056800000D5DBE6587B1D7B000205430820FBF7B5
:10569000E7FF0D9B2843DA6883B21B0A107353732C
:1056A000CCE6009A934263D80B989AB282425DD8B6
:1056B0009AB2069B0C929B1A9BB206930B9B9B1A69
:1056C0009BB20B93009B93423CD8002A00D16FE120
:1056D000002300260D9D0B936C68002C1BD02389A2
:1056E0000C9FFB1823812368002B06D01C00238904
:1056F000FB1823812368002BF8D1636860899C46DE
:105700003A000499604406F049FC6389FB18638100
:105710002368002BEAD10C9A2B89944663442B8191
:1057200068234A460699D152002E00D1FBE0310091
:105730006868FCF7D1FD2B8932899B182B8182E7A1
:1057400000230C930B9B002B0AD0002900D07CE097
:1057500001230A9A0C9D1A40002305920B9394E6AC
:105760000A9A01331A400C9D05928EE6031C9FE7AE
:10577000131C0B989AB282429AD9F7E701223100A2
:105780003620FCF729FC041E49D0A022049B0021EE
:105790005B19436092003620FCF71EFC071E47D0C1
:1057A0002100FCF799FD3800FCF780FD584483B2D6
:1057B0009B46082B00D8BCE6089B38009A46FCF7AD
:1057C0006DFD1A4D12E07519009BADB2AB4200D8C9
:1057D00002E10394029464E6A422089B134D9A46C6
:1057E000AB5A20000133AB52FDF76CFA4B468022D6
:1057F0005B8B13434A4653839C22AB5A0133AB5213
:105800005346002B02D05046FCF748FD039B002B6B
:1058100002D01800FDF73AFA012464420EE6089B14
:10582000024D9A46E2E7C046B70500008C210020F1
:10583000089B20009A46FCF731FD6A4DD6E74B469F
:105840001B6F002B00D04DE655E6009B0C9A9C1A6E
:105850000B9B9C4236DC0A9A012311001940A5B229
:105860000591134230D10D9B5E6833003668002EDF
:10587000FBD13F211A7B8A4306D15A895B689B186A
:10588000049A9A4200D18FE0012229000020FCF7FF
:10589000A3FB061E6DD00C9A049B944663444360A0
:1058A0003000FCF703FD584483B29B4600230B9362
:1058B0000C9B9C46009B6544ADB2AB4200D88FE088
:1058C000B246E2E51C00C6E70B9B29009D4212D2BE
:1058D00013009B0703D44B465B8B5B060BD4424BF8
:1058E00021049C460323090C614499430B9B994274
:1058F00000D9190089B2A02200209200FCF76CFBAD
:10590000061E36D0738904995B1B9BB206932B0449
:105910002B43B3600C9B22049C467068120C6144BC
:1059200006F03CFBBCE70B9B002B19D06968180004
:105930000A68002A01D139E01A000B89C3180B81CB
:1059400013681100002BF7D10B9913898C4663441F
:1059500013815389634453812B8963442B8172E6FD
:10596000002D00D06FE64B465246DA666DE6002405
:1059700064E54B4680225B8B1A4913434A465383A6
:105980009C228B5A01338B5246E71024644255E522
:105990009C2214498B5A01338B524B4680225B8BDD
:1059A00013434A46538337E70B9581E70A00CBE759
:1059B0000D9B42E6089B9A46039B56469A460D9DD0
:1059C0000D940C9B002B00D1AAE685E60099683364
:1059D000D15200230D93C6E7089B03949A46EBE748
:1059E0000D9DEEE78C210020B7050000F0B54E4676
:1059F0004546DE465746E0B5C56E06000C0083B04E
:105A0000002D00D1BAE0002900D1B4E02B899A46DC
:105A10008B4207D8002003B0F0BCBB46B246A94673
:105A2000A046F0BDAB7AA0229900994604230B4012
:105A30009B4653461F1B5B46BFB2F918362089B2FE
:105A40009200FCF7C9FA8046002818D06B682A89B2
:105A50001B8941689B1AE3183A0068689BB2594455
:105A6000FCF70CFDB84212D09C22464940468B5AA6
:105A700001338B52FCF712FC01204042CBE79C2201
:105A80000120404940428B5A01338B52C3E7EB68F7
:105A9000587B1A7B00021043FBF7E2FD082302004B
:105AA0001A409346C7B218425FD13F2001220740F7
:105AB00001233B4201D093469F43E9684B79087923
:105AC0008A791B020343C879120413430006184362
:105AD000FBF7CAFD4A4641462318009230005A4659
