:020000041000EA
:1000000000B5324B212058609868022188439860DF
:10001000D860186158612E4B002199600221596106
:100020000121F02299502B49196001219960352056
:1000300000F044F80222904214D00621196600F024
:1000400034F8196E01211966002018661A6600F04E
:100050002CF8196E196E196E052000F02FF8012189
:100060000842F9D1002199601B49196000215960AB
:100070001A491B48016001219960EB211966A021F2
:10008000196600F012F800219960164914480160C1
:100090000121996001BC002800D000471248134993
:1000A000086003C880F30888084703B5996A0420EC
:1000B0000142FBD001200142F8D103BD02B5186610
:1000C0001866FFF7F2FF186E186E02BD00000240BE
:1000D000000000180000070000035F00212200005C
:1000E000F4000018222000A00001001008ED00E03C
:1000F00000000000000000000000000074B24E7A12
:1001000000200420F7010010C3010010C5010010F9
:10011000C1010010C1010010C1010010C101001097
:10012000C1010010C1010010C1010010C701001081
:10013000C1010010C1010010C9010010CB01001065
:10014000CD010010CD010010CD010010CD01001037
:10015000CD010010CD010010CD010010CD01001027
:10016000CD010010CD010010CD010010CD01001017
:10017000CD010010CD010010CD010010CD01001007
:10018000CD010010CD010010CD010010CD010010F7
:10019000CD010010CD010010CD010010CD010010E7
:1001A000CD010010CD010010CD010010CD010010D7
:1001B000CD010010CD010010CD010010CD010010C7
:1001C00000BE00BE00BE00BE00BE00BEEFF3058054
:1001D000103800BEF2EB88710C510010285100104D
:1001E0003402001090A31AE700201F49086006C8D7
:1001F00081F3088810471D48006800282FD10DA4FE
:100200000ECC002902D000F012F8F9E71849194A7B
:10021000002000E001C19142FCD1174988471749ED
:1002200088471749884700BEFDE701C901C29A42C5
:10023000FBD3704728510010C0000020902F0020F1
:10024000F87F00100000042000000420F87F001058
:10025000001004200010042000000000704709482E
:1002600002F08CF90047000008ED00E0000000D02B
:10027000902F0020043F0020E523001055030010BC
:10028000E92400105756000006005250ABB36053EB
:10029000F84E001006005250861C0302084F001052
:1002A000060052505422A29D1C4F001005005250CF
:1002B000DE65F468F87F0010F8B5C0460448054BC9
:1002C00010B5834203D0044B002B00D0984710BDDB
:1002D000902F0020902F00200000000006480749C2
:1002E000091A8B10C90FC91810B5491003D0044B57
:1002F000002B00D0984710BD902F0020902F002099
:100300000000000010B5074C2378002B09D1FFF73F
:10031000D5FF054B002B02D0044800E000BF0123AD
:10032000237010BD9031002000000000304D0010FF
:10033000054B10B5002B03D00449054800E000BF71
:10034000FFF7CCFF10BDC046000000009431002034
:10035000304D0010F0B5CE46474680B593B002F060
:10036000BBFB002002F058FD364B002B01D000E013
:1003700000BF6B46DD1D0A2398460120002640423F
:10038000002102F0B7FD300000F012F9002807D17B
:10039000012EF2D00126300000F00AF90028F7D033
:1003A0004022300002A900F013F90700002000F0FD
:1003B000E5F800281FD0002F1AD002ACA146B9449E
:1003C00002E001344C4513D0237801222B70290020
:1003D000002000F07FF923780D2BF2D14346012253
:1003E000290000202B70013400F074F94C45EBD14A
:1003F000002000F033F9002000F0C0F80028C7D03A
:10040000002F1AD002ACA446674402E00134BC427B
:1004100013D0237801222B702900012000F05AF913
:1004200023780D2BF2D143460122290001202B70A5
:10043000013400F04FF9BC42EBD1012000F00EF97D
:10044000A6E7C046000000007047C0467047C0469F
:100450007047C0467047C04610B5002901D0002A39
:1004600000D110BD21220249002000F033F9F8E745
:10047000304D00107047C046F0B5C64600B588B094
:100480008C4602A998460B000E4C170024CC24C3BE
:100490001D000D4C45CC45C3227860461A700B4BAD
:1004A0000722019302F086F929000C22380002F09D
:1004B00081F90322404601A902F07CF908B080BC12
:1004C000B846F0BD544D00105C4D0010312E300088
:1004D000074B10B51B7804000120002B00D110BD84
:1004E00000233A220221200003F0FAFB0020F6E765
:1004F000003F002010230B60F133FF33138070475F
:10050000002B01D0002A01D001207047014B01329D
:100510001A70F9E7003F0020180010B50F2908D81D
:1005200049028918044A8918029A02F043F902988C
:1005300010BD01204042FBE7880E002001207047DB
:10054000080010B519000F2808D840028018054A85
:100550008018029A02F02EF9029810BD0120404244
:10056000FBE7C046880E002010B50023202205219D
:1005700003F0B6FB0120404210BDC04610B5040098
:1005800002F03AFC002801D1002010BD02F03CFC32
:100590000028F9D1A0000019C000044B0019C000C8
:1005A0001818037901201840EFE7C046B031002049
:1005B000020083001B1810B5D8008018034BC00040
:1005C0001030C01804F0E4F810BDC046B03100206F
:1005D000F8B54746804685002C18E4004444CE46D2
:1005E000E400260080B51A4B1A4F1036BE199A4205
:1005F00000D9194A300092B204F04EF98146300019
:1006000004F0E4F83F2804D84846C0BCB946B046D8
:10061000F8BD4544ED004544ED007D190020E97822
:1006200003F006F90028EFD0300004F0CFF83F289F
:1006300008D92200C8324023E978BA18002003F014
:100640001FF9E1E7E978002003F006F9DCE7C0468E
:10065000FEFF0000B0310020FFFF0000F8B50500EC
:1006600002F0CAFB002801D10020F8BD02F0CCFB4B
:100670000028F9D1AB005B19DC006419E400250007
:10068000134E2435AD19280004F082F80028EBD071
:1006900037190020B97803F0CBF80028E4D00934EA
:1006A000FF34A41921002800402204F0F5F8B9789D
:1006B000051E08D003002200002003F0E1F8002806
:1006C000D2D02800D1E7002003F0C6F8CCE7C0461E
:1006D000B031002070B584002418E40024180C4BBD
:1006E000E4002434E4180B4B05009A4200D90A4A6E
:1006F000200092B204F08AF90600200004F048F8C5
:100700003F2801D8300070BD2800FFF7A7FFF9E7A8
:10071000B0310020FEFF0000FFFF0000F0B5D6461C
:100720004F464646A422C0B5394C82B00021200075
:10073000920002F039F8FF2363719946E123002506
:100740000827210020005B02A3609846A7730123BD
:10075000402238310095103003F0E2FF01262100DD
:1007600020004022783100960123243003F0D8FF86
:10077000B8239A46A244504600F02CFE534623620A
:10078000C0239A46A2445046E56100F023FE53463A
:1007900023634E234A46FF33E254424621002000A1
:1007A0000333E2500433E5520233E75481315930C8
:1007B000563B65634022FF310095FF3BFF3003F05D
:1007C000AFFF21002000C1316D304022FF31009683
:1007D0000123FF3003F0A4FF80239B00E6183000C4
:1007E00000F0F8FDB2235B00E5500433E650A0337F
:1007F000E618300000F0EEFDBC235B00E650043349
:10080000E55002B0E0BCBA46B146A846F0BDC046CD
:10081000B031002070B5144C05220021200001F0F9
:10082000C3FF250020002435103004F0A3F9280070
:1008300004F0A0F92800012104F0BCF9200049309F
:1008400005220021FF3001F0AFFF20006D34593048
:10085000FF34FF3004F08EF9200004F08BF9012101
:10086000200004F0A7F970BDB0310020F0B54E466D
:10087000DE4657464546E0B54B79060085B0022B6B
:1008800002D18B79022B08D00025280005B0F0BCDE
:10089000BB46B246A946A046F0BD464B98469B785B
:1008A000002B00D180E0A52340465B00C35C002BF9
:1008B000EAD1AC235B009A46103B9B46483BFF3B8A
:1008C00099464B4644469F00FB18DB0088784B4412
:1008D000DB00E0540C7809250C196378242B0BD12C
:1008E000082A02D80FE0AA420DD32378E418ED18A5
:1008F0006378ADB2242BF6D0052B24D0042B02D183
:1009000063790A2B38D056464644300003F05EFF28
:100910003F28BAD94F44FC004C44E4004444002032
:10092000E17802F085FF0028AFD0300003F04EFFE1
:100930003F281CD95A46C8324023E178424400205F
:1009400002F09EFFA1E72100300002F057FF0028CF
:100950009AD04B46FB18DB004B44A278DB004344A3
:100960005A702378ED18E4186378ADB2C6E7E178E1
:10097000002002F071FF88E75A4623783000039385
:10098000E118931C43440193D31C43440093022277
:10099000022302F0E5FE002800D175E7039B0E3527
:1009A0009C466544ADB2AEE710239A4600239B46B1
:1009B000994686E7B0310020F8B56023140012781C
:1009C000050013400020202B0CD1637922791B02F3
:1009D0001343344A16789E4205D0A4267600965DCD
:1009E0009E420DD0F8BD00266378222B28D013D864
:1009F000202B42D0212B21D1012905D00120F1E764
:100A000049320126FF32EFE7072321002800083290
:100A100002F0AEFF0120E5E7232B0FD101293AD0E8
:100A20000329EBD1204B002BE8D0E178A378090211
:100A30003000194300E000BF0120D3E70020D1E7D8
:100A4000012928D00329D9D101273D00A378E478D2
:100A5000023924021C4314712540243210006940DD
:100A600004F0A8F8114B002BC8D062083000290010
:100A70003A40FFF7F1FC3800B4E70129C4D003295C
:100A8000BCD10B4B002BB9D008323000110000E074
:100A900000BF0120A6E72100280002F051FF01203D
:100AA000A0E7C046B031002000000000590400104B
:100AB00000000000F0B545464E46DE465746E0B51C
:100AC000544D1E00EB7880460C0083B08B4218D04A
:100AD000AB788B4200D187E04C23FF33EB5C8B4239
:100AE00000D184E0A5235B00EB5C8B4200D183E066
:100AF0000024200003B0F0BCBB46B246A946A04685
:100B0000F0BD00239B4610239A46B8339C46AC4464
:100B10006346AA4461465046B2B2019303F076FFA1
:100B20003D4B002B1BD06B79FF2B18D0002E16D01D
:100B30003200C8329146019FA94403E00137B9450C
:100B40000DD06B793A789A42F8D1504603F036FED0
:100B50000028F3D15846697900E000BFEEE72F4B3B
:100B6000002B04D0504603F029FE002849D05046FF
:100B700003F02CFE3F2810D90020E97802F058FE3F
:100B800000280AD0504603F021FEE9783F283CD9DE
:100B900040230020019A02F073FEAB78A34201D0FB
:100BA0000124A6E71E4B002B02D0584600E000BFF0
:100BB0005846FFF753FD0028F2D12800243003F0F7
:100BC000E7FD0028ECD1002EEAD0B306E8D140467C
:100BD000A97802F02DFE041EE2D000230022404638
:100BE000A97802F04DFE84E700239B46D5E7012358
:100BF00049359B46FF3586E7012349359B46FF353E
:100C0000CBE75846FFF736FCB1E7002002F024FEA0
:100C1000C3E7C046B031002000000000750400109A
:100C20000000000000487047B44D001000487047B5
:100C3000C84D0010F0B5DE4657464E464546E0B575
:100C40008DB000282DD0032837D0052800D983E0A7
:100C5000454B8000C558280003F0D0FF0400202831
:100C600000D977E0002800D178E0404B98469A1CE4
:100C70000023E95C0133118002329C42F9D8C02381
:100C800001349B0064001C43A3B2039343464046D7
:100C9000039A1A800DB0F0BCBB46B246A946A046E6
:100CA000F0BD324B0222981C98462F4B196801F078
:100CB00081FDC1239B000393E8E72D4B002B3FD020
:100CC00004AD1021280001F0F5FE8446102801D95A
:100CD00010239C46002841D063469A00C02302326C
:100CE0009B0013439BB203930F22002691461F4B98
:100CF000019698469C1C009508AB18001D4F62CFCA
:100D000062C04D463968029001600099194E08781A
:100D100005405D5D834665801D0007CE07C53D68C3
:100D2000029A15605A461111595C019A2180009966
:100D3000013201310192009104346245DDD3A5E70F
:100D40000D4B0E4A04AD049205930D4B03930823FB
:100D50009C46C9E7202485E700209BE7094B0393C5
:100D6000024B984692E7C046882E0020543400205B
:100D7000B52A00106C4D001089ABCDEF01234567FB
:100D80002203000002030000024B18688007C00F16
:100D90007047C04600C0064070B5EFF3108C72B6C5
:100DA0000D4D2B68002BFCD0BFF35F8F0724CB08C1
:100DB000C618C05C01230C40A3401C000440034241
:100DC00007D103433370BFF35F8F2C608CF310881F
:100DD00070BD100001F08CFB2C0100D0F8B5474627
:100DE000CE46884680B5EFF3108C72B6214D2C6844
:100DF000002CFCD0BFF35F8F9A422CD8D408072771
:100E0000055D061901241740BC402C421FD0072164
:100E10000127894609E0D408055D06194C463900CA
:100E20001440A1400C00294211D001329342F2D269
:100E300001204042BFF35F8F00220E4B1A608CF3FB
:100E4000108800280FDBC0BCB946B046F8BD2C4363
:100E500010003470EEE7BFF35F8F00232B608CF33C
:100E60001088012040424346002BECD0089801F046
:100E70003FFBC0462C0100D00021044B044ABFF3C5
:100E80005F8F02C39342FAD17047C046000100D081
:100E9000800100D0044A1078431CDBB2172B00D924
:100EA000102313707047C046A02E002000B5054BDC
:100EB00083B00100009318221F230348FFF78EFF21
:100EC00003B000BD6C4E00104C390020012383405C
:100ED000002904D0034A1360034A13607047034A91
:100EE0001360FBE780E200E000E100E080E100E069
:100EF000024B10309B688000C058704700ED00E046
:100F000070B50D00EFF3108672B60F4A1368002B10
:100F1000FCD0BFF35F8F0D4B10309B6884001B59D2
:100F20000B4A934203D09D4201D001F0F9FA074BDE
:100F30009B681D51BFF35F8FBFF35F8F0022024B91
:100F40001A6086F3108870BD240100D000ED00E027
:100F5000CD010010F0B557464E46DE464546E0B599
:100F600085B0060002911700EFF3108B72B6674A46
:100F70001368002BFCD0BFF35F8F0025644B5D57D7
:100F80009A46002D00DAA4E06B00624C03935B19D3
:100F90009B009846A146C1444B4652469B79103669
:100FA00013705D4BB2009B68019299580B1B2F2B5D
:100FB00034D95A4B994200D0A4E0039B584A9C462E
:100FC000584B6544AD006353434602336519E4183A
:100FD000554B0121043B1B1B1B055B0D13436B8011
:100FE000524BEF71AB80FF23AB71029BAB604B4662
:100FF0000B431900484B019A9B689950BFF35F8FD0
:10100000BFF35F8F0022414B1A608BF3108805B04D
:10101000F0BCBB46B246A946A046F0BD01200A007E
:101020008243D379BB422FD845464E4613004049F0
:101030001B1B5B415943090D3A4B63533A4B023535
:101040006519043B5B1B1B05354D5B0D2B43738002
:101050000426B446E0444444131F1B1B4C46A171B4
:1010600002991B05A16049465B0D2B43A380314BC0
:10107000E77101431360BDE75800C01880002018D5
:10108000C679BE422BD902000623D356002BF3DAD1
:10109000101D82462848804604267642B446E14424
:1010A00050464E46361A3005400D824656461C487C
:1010B000957106439680039A944665441D4AAD0097
:1010C000641922604246A371029BA280E771A3606B
:1010D00090E701F025FA002553465D5754E7101DAF
:1010E000824690884005001584464046D4446646B2
:1010F00004302018301AE0260005400D3602304337
:101100008046C9E701F00CFA57E7C046240100D039
:10111000013F0020A42E002000ED00E0CD010010D2
:1011200000E0FFFF00A1FFFFD42E002001BDFFFF64
:10113000AAAA00000148804701BD0000F0B5DE46C4
:1011400057464E464546E0B50C0083B0EFF3108994
:1011500072B6584A1368002BFCD0BFF35F8F564B12
:101160009A68030010339F00D559544A904695421F
:1011700032D0A54243D0524EAA1B2F2A2CD801228E
:101180008240924651464F4A1268114001915146A1
:101190004D4A1160BFF35F8FEFF305829346002A3B
:1011A00033D101232A009A4393689C4208D177E007
:1011B0004B005B189B00F3189968A1422AD01A00D3
:1011C000062151560029F3DA019B002B19D0524613
:1011D0003E4B1A603B4B1A60374B9B68DD51BFF3A7
:1011E0005F8FBFF35F8F0022324B1A6089F3108844
:1011F00003B0F0BCBB46B246A946A046F0BD150000
:10120000EAE75246304B1A60E6E79342C9D001F054
:1012100087F9C6E706215956002921DB4A005018F4
:10122000800034188046A0689860E079D871062064
:1012300020569871002824DBA488F01A6405241530
:1012400044440019E0240005400D24022043988006
:1012500052181F4B9200B6181A781970B271B3E782
:10126000594600290FD1FF3191711A4991801849CF
:101270000A789A71184A9B1B5B415A43120D0A70F7
:10128000A2E71648E3E7164A1649D21A083A50026E
:10129000400D01439980144952080A43DA8093E7CC
:1012A0000621515613000029B8DA5A46002AEAD11D
:1012B0004546DCE7240100D000ED00E0CD01001040
:1012C000A42E002000E100E080E100E080E200E0E8
:1012D000013F002001BDFFFFAAAA000001BD0000E0
:1012E000DE2E002000F0FFFF00F8FFFF70B5EFF3E7
:1012F000058101240443EFF3108C72B6214A136870
:10130000002BFCD0BFF35F8F1F4B05001F4AED1A67
:101310006D416A43120D1E4D8900AE6852B2765877
:10132000A6421CD00621595691421CD01221595672
:10133000914222D01E215956914220D02A2159563D
:101340000324914210D0134B19781A708171BFF3A6
:101350005F8F00220B4B1A608CF3108870BDAB6856
:101360000D4C5C50EFE700246100091989005B18FF
:10137000FF21997109499980E5E70124F4E70224E6
:10138000F2E7C046240100D0A42E0020AAAA000043
:1013900000ED00E0013F0020CD01001001BDFFFF86
:1013A000054B064A1360064A136053609360D3608E
:1013B00013615361936170478080808000E400E096
:1013C00004E400E0024B9C466144890001607047E0
:1013D0004000003410B50400FFF75CFD0100200060
:1013E000FFF7F0FFFF232371BFF35F8F10BDC046EF
:1013F00010B50400FFF74EFD01002000FFF7E2FFEB
:10140000FF23A380BFF35F8F10BDC04610B504005B
:101410000120FFF74BFD044B9C4660448000206098
:10142000BFF35F8F10BDC0464000003483680B4897
:1014300010B5844661446244090112019A18591892
:1014400054684B6801209C4201D802D00020C0B2F1
:1014500010BD12680B689A42F9D8F7E7FFFFFF0F3B
:101460000A4B1968EFF3108072B60A68002AFCD0A4
:10147000BFF35F8F1B68BFF35F8F00221A6080F39A
:10148000108840BF002000217047C046E83E002081
:10149000F8B557464E464546DE46E0B599460CAB94
:1014A0001C780DAB1B78060090469A460768002C06
:1014B00011D1BC7B002C42D065003B682D19033D47
:1014C00059194B78BB73002B00D1FB7300238B7031
:1014D0004B700B7004E065003B682D19033D5919F2
:1014E000B2682A4B94464246E3181B0163441A60D3
:1014F0004A465A600A9A9A600B9ADA6000238B7007
:101500004B700B707B7B9B46002B2BD022005946E7
:10151000B8687B6898473A68002816D05B465846FA
:101520005B005B445519033BA870D118D35C002BBA
:1015300000D06B705B460C707B73A34513D0F0BC7E
:10154000BB46B246A946A046F8BD5B465B005B447D
:10155000033BD3189C705119525D002A00D05A7079
:101560005B460B707C7342464B46307D00F004FBBB
:10157000051E06D05346002B03D12100306800F031
:101580001FFD0E9B002BDAD01D70D8E7FFFFFF0F69
:10159000F0B5DE4657464E4645460023E0B58BB0D3
:1015A0000893674B8200D45800239B46099000F0B3
:1015B00093FA626806000F00EFF3108572B61368A5
:1015C000002BFCD0BFF35F8F23689C465B7B994662
:1015D000002B00D169E0A2685A4B90464B441B0196
:1015E000984443461A685B6810001900801BB94193
:1015F000002900DC63E0099800F0BEFA0023002215
:10160000984600230692079300239A466368BFF327
:101610005F8F5A461A6085F310885346002B08D115
:101620000028C4D10BB0F0BCBB46B246A946A046C8
:10163000F0BD089B414618024B461843D0476268EC
:1016400006000F00EFF3108572B61368002BFCD074
:10165000BFF35F8F002F50DB33003B4302D0236981
:10166000002B61D12368D97B002907D04A0052188A
:1016700019688C4649466244033A51709A7B002AA5
:1016800001D14A469A734A46DA734B46E168013BF8
:10169000CA5C0132CA545B4623616368BFF35F8F43
:1016A0005A461A6085F3108881E700230022984685
:1016B000002306920793002300209A46A6E70029FC
:1016C00002D1002800D096E70021604600F0F6FB2A
:1016D00043461A685B680692079343469B689A469E
:1016E0004346DB689846E3684B44013B1B7808930C
:1016F0001B0203432361002088E72369002BB1D03C
:10170000069A079B921BBB41002B15DB594604919F
:101710000121039149460291414601915146200021
:101720000091FFF7B5FEB6E700F0D6F932003B00B6
:1017300012184B41002BE9DA0122034B5242E5E734
:10174000CC3D0020FFFFFF0FFFFFFF7F10B5144CC3
:101750006368002B04D00A211248FFF733FE10BD46
:101760002300114A1021206800F0C2FA032000F083
:10177000A7F9032000F06AFA03200C4900F0B6F93B
:10178000FFF788FB0A4B9C4603232375D0231B06D7
:101790001B6860446375074B80006060DC60DAE7BB
:1017A000EC2E0020E83E00202D14001091150010B2
:1017B00040000034CC3D0020F0B54E464546DE46A4
:1017C0005746E0B585B0019310AB1B780600039334
:1017D00000239946984600927268EFF3108B72B618
:1017E0001368002BFCD0BFF35F8F3568AC7B002CF7
:1017F0003DD067002B683F19033FDB195A78AA7365
:10180000002A00D1EA73B168474A8C4600980199D2
:10181000A21812016244106051600E9991600F99F4
:10182000D16042469A705A701A706B7B9A46002BB0
:1018300067D022001900A8686B6898472A680028BA
:1018400052D0534650465B005344D719033BB870FF
:10185000D118D35C002B00D07B7053460C706B7397
:1018600054454FD0F3681B19013B187800E0002065
:101870007368BFF35F8F42461A608BF31088002CA9
:101880004FD04B46002B08D10002204305B0F0BCDE
:10189000BB46B246A946A046F0BD039B002B3ED0F6
:1018A0000E9B00200F999847030004000D000B4386
:1018B00035D000290ADA009A019B121BAB41009235
:1018C0000193002B0ADB039B994685E700F004F99E
:1018D00024184D4100940195002DF4DA0123134C96
:1018E0005B4200930194EEE753465B005344033B95
:1018F000D3189C70D119D25D002A00D05A7053467B
:101900000B706C73307D009A019B00F035F98146B5
:101910000028A7D02100306800F052FBA2E7002089
:10192000B4E701204042B1E7FFFFFF0FFFFFFF7F59
:10193000F0B5EFF30583CE46474680B505000C00B1
:1019400085B0002B12D02C4A0020536A9C4203D849
:10195000926A0130AA4204D305B0C0BCB946B04671
:10196000F0BDE01A421E9041C0B2F5E7234E02934B
:101970000193234B0200009330000B00FFF71CFF84
:10198000031EE0DD20BF7168EFF3108772B60A68AE
:10199000002AFCD0BFF35F8FDAB294463068427BF6
:1019A00062451DD0FF221A405100894601689144CA
:1019B00088464946414403398978002913D0F168A3
:1019C0001B0A88464244013A1278DBB29A420FD091
:1019D0007368BFF35F8F00221A6087F31088B2E745
:1019E000FF221A40EBE732699342F1D13161EFE710
:1019F000614600F0E5FAEBE700400540EC2E0020E0
:101A000061140010F0B5EFF30582D6464F46464606
:101A10001000C0B51038EFF3108872B6214C23685F
:101A2000002BFCD0BFF35F8F0123190081401E4DB6
:101A30001F006963AA461D4D29601D4D2E78AC46D6
:101A40003500C5402F402B4209D1BFF35F8F27607F
:101A500088F31088E0BCBA46B146A846F0BD5346AC
:101A6000144D5F6A83005D59AF420ED3124A8E4314
:101A70009B5862461670BFF35F8F0022226088F386
:101A80001088002BE6D09847E4E70C4B92009C4668
:101A9000624413681360BFF35F8F0023236088F3F1
:101AA0001088D7E7280100D0004005403C70054071
:101AB000023F0020EC3E00203C380020D03F054093
:101AC00010B50100024A0348FFF766F910BDC04691
:101AD000884E0010FF3E0020034B596A0A00986AA6
:101AE000596A8A42FAD170470040054070B5040037
:101AF0000D00EFF3108672B61A4A1368002BFCD063
:101B0000BFF35F8F002D1BD02000FFF7F1F91649BE
:101B100081420AD02000FFF7F3F901212000FFF7EE
:101B2000D5F90123A340114A1360114BA400E550DD
:101B3000BFF35F8F00220B4B1A6086F3108870BDD5
:101B40000B4BA200D5500122A2400A4920000B787D
:101B500093430B700449FFF7F1FA00212000FFF7CF
:101B6000B5F9E5E7280100D0051A001038600540F6
:101B70003C380020023F0020F0B54F46D64646468E
:101B8000C0B507002C4C616A0D00A66A616AA942C3
:101B9000FAD18B4208D805D00120E0BCBA46B14644
:101BA000A846F0BDB242F7D9EFF3108A72B62348C7
:101BB00001680029FCD0BFF35F8F0125BD4020499B
:101BC0001D4C8846097889462943C9B28C4641464E
:101BD00060460870391D1B48890065630A51B900C9
:101BE0000B50216A0020294219D0616A0800A66AB8
:101BF000616A8142FAD18B4219D801D1B24216D81A
:101C0000CC4516D00C4B1F201D625D63012307409D
:101C1000BB400D4A1E38136043464A461A70BFF354
:101C20005F8F0022054B1A608AF31088B5E7002009
:101C3000F5E70120F3E7C04600400540280100D049
:101C4000023F0020EC3E002080E200E0EFF3108C29
:101C500072B60A490B68002BFCD0BFF35F8F0123DB
:101C60008340074A0748136202789A430270BFF321
:101C70005F8F00230B608CF310887047280100D021
:101C800000400540023F002070B50500140016001A
:101C9000002915D00C00002A12D080686B68984784
:101CA000296800280ED073009B196200033B1219AB
:101CB000CB18033A9C7088188A5C002A15D10670EC
:101CC000200070BD63001B197200033B9219CB18F2
:101CD000033A9E7088188A5C002A02D1047034008E
:101CE000EEE75A7004703400EAE75A700670E7E7CE
:101CF00030B583600023CCB2437301330473426078
:101D00008373C4730D000068012C06D9421C013393
:101D1000DBB2137003329C42F9D1FF2129404B0002
:101D20005918002340180338437030BDF8B5CE462B
:101D3000474606000C0080B5002907D04D00036817
:101D40006D18033D5A195778002F04D12000C0BCEC
:101D5000B946B046F8BD7900C919033988464344ED
:101D60005978894600215970517073683A002100F2
:101D7000806898473368002814D042469A189470B7
:101D800059195B5D002B00D053700F702700494636
:101D90003000FFF7CBFF390002003000FFF774FF7F
:101DA0000400D3E7424641465D19AF709A185B5C68
:101DB000002B00D06B701470E9E7C046F0B55746B1
:101DC0004546DE464E46E0B50D006B0001685B19E6
:101DD000DF1E0400C85D83B00192CA19002850D0EC
:101DE00043001B18033BCB185E78B446002E1AD173
:101DF000019E002E42D0E67B002E04D073009B197A
:101E0000CB18033B5D70A37B002B00D1A573E5735A
:101E100000282FD10023537003B0F0BCBB46B2465C
:101E2000A946A046F0BD72006244033A89184A7878
:101E3000904600224A7091465A70010032002000FC
:101E4000FFF722FF43468246002B07D05B00216844
:101E50004344033BCB185A78002A16D142465146D8
:101E60002000FFF711FF2168019BCA19002BC2D186
:101E70000028CFD043001B18033BCB1800219970DA
:101E8000C8E7019B002BB6D1C4E750008018033887
:101E900009184878834648464870587041462000E3
:101EA000FFF7F2FE594680462000FFF73FFF41460C
:101EB00002002000FFF7E8FE8046CFE7F0B5574666
:101EC0004546DE464E46E0B583B00191457B0400B1
:101ED0006B0000685B19DF1EC15DC219002952D07A
:101EE0004B005B18033BC3185E78B446002E1CD130
:101EF000019E002E44D0E67B002E04D073009B1977
:101F0000C318033B5D70A37B002B00D1A573E57361
:101F1000002931D1002328005370617303B0F0BC55
:101F2000BB46B246A946A046F0BD72006244033AE1
:101F30008018427890460022427091465A702000E4
:101F40003200FFF7A1FE43468246002B07D05B001C
:101F500021684344033BCB185A78002A17D14246E4
:101F600051462000FFF790FE019B01002068C21936
:101F7000002BC0D10029CDD04B005B18033BC31808
:101F800000209870C6E7019B002BB4D1C2E7500037
:101F900080180338091848788346484648705870B6
:101FA00041462000FFF770FE594680462000FFF7AB
:101FB000BDFE414602002000FFF766FE8046CEE7E8
:101FC00070B5040000292CD0437B8B422ED00568CD
:101FD00048004018033828188278002A21D053007E
:101FE0009B18033BEA5CEE188A4202D11BE0002AF0
:101FF00008D053009B18033BEB185A788A42F6D15D
:1020000042785A7000230122837043702000FFF74A
:10201000D5FE617B02002000FFF736FE60730120D1
:1020200000E0002070BD43783370EBE70122190017
:10203000FFF7C4FE60730120F4E7C04630B50C2002
:1020400083B000F0B3F9FEF79FFE00280ED0994B45
:10205000994A1A605A609A60DA601A615A619A6104
:10206000DA611A62954A5A6203B030BD944CA06797
:1020700000F0A4F90122934B1A60636C012BFCD190
:102080000322914B1A608E4A936B012BFCD10133D2
:1020900001218E4A8E480093043300F037F905235E
:1020A0008C4A009301218C4800F030F98B4B5A6820
:1020B000FF2A02D8802252005A6080227D4C824B37
:1020C00021691201854D1A60002907D0606900F06E
:1020D00087FA431C5800C0180338FDD2E0217F4B1B
:1020E00002201A681140802252012A4311601968A7
:1020F000484003210140116004219A681142FCD03C
:102100008022802192012A4309011160802252001D
:102110005A60734B2361734B5968FF2900D85A608A
:102120000321684A6F4B116002399A681142FCD052
:10213000E0201A681040802252011A43106018688B
:102140004840032101400220116066498A6810421C
:10215000FCD0802292011343802212011A60802257
:10216000614B52004A606361604B5968FF2900D897
:102170005A6080225E4BE16912015C4D1A600029B1
:1021800007D0606900F02CFA431C5800C0180338CF
:10219000FDD2E02255490B681A4080235B012B4396
:1021A0001A60802380229B012B4312011A60802237
:1021B000414B52004A60E3614E4B5968FF2900D8F9
:1021C0005A6080224C4B216A12014A4D1A60002944
:1021D00007D0606900F004FA431C5800C0180338A7
:1021E000FDD2E02243490B681A4080235B012B4358
:1021F0001A60802380229B012B4312011A608023E6
:1022000080225B004B602C4BD20223623B4B59680F
:10221000914200D25A608022394B616A1201374DD7
:102220001A60002907D0606900F0DAF9431C5800F1
:10223000C0180338FDD2E02230490B681A408023D1
:102240005B012B431A60802380229B012B431201E8
:102250001A608023DB024B60184B6362294B5A687B
:10226000FF2A02D8802252005A608022264BA169A0
:102270001201244D1A60002907D0606900F0B0F9FE
:10228000431C5800C0180338FDD2E0221D490B68DA
:102290001A4080235B012B431A60802380229B011C
:1022A0002B4312011A6080235B004B600E4BA3612D
:1022B000DAE6C04650390020006CDC021BB7000093
:1022C000008000403CB0004030B00040002F685912
:1022D00000800240008C864700C0024030800040F1
:1022E000001BB7003C8000404059730754800040F9
:1022F00054B000406080004060B000406C800040FE
:102300006CB000404880004048B00040F8B5040080
:1023100021481D0017000E0000F062F9010038008E
:1023200000F05EF9069B29041B0319432368002B68
:1023300020DB1A4B1A4DE21853425A4180235B01AD
:102340009C461203174B62441A60174B1A60170021
:10235000AB689F43FBD1C022231D92011A43212366
:102360002660A06013602368002BFCDA0823E1607C
:102370001360F8BD3F2322681340B342D9D1A3684C
:102380001B051B0D8342D4D1EE22E368D202134019
:102390008B42CED1EDE7C046001BB7000040FDBF29
:1023A00000C0004000E0004000F000408023024AEE
:1023B0009B000343D362704700800540AA23064A6E
:1023C0001B0113602F230549D360054B1960536827
:1023D000002BFCDA7047C0460040024000B0FA0013
:1023E000006002402C4B2D4A70B51A602C4A2D4BD0
:1023F0002D491A6014008B689C43FBD12B4D2C4E49
:10240000B54208D2013E761BB60808CD9847230096
:102410000134B342F9D1FFF711FE264A214B1A606D
:10242000214A9368DB43DB01DD09002BF9D140220F
:10243000214B224C224E9A675A671A67DA66B442D9
:1024400008D223682000002B20D00834FEF7D0FFEC
:10245000B442F6D31B4E1C4CC022A168300000F0E1
:10246000A9F9A660FEF708FDFEF79AFFFFF76EF9DF
:10247000164C174EB44208D2013E361BB60808CCA3
:1024800098472B0001359E42F9D170BD0834FEF704
:10249000A1FFB442D5D3DDE700E00040BFCDFBFE95
:1024A000FE7F3C0000F0004000C00040782F00207C
:1024B000882F0020FFFFFF0100F00140682F00205F
:1024C000782F00200000002000ED00E0882F002081
:1024D000902F002010B5034800F050F800210300B1
:1024E000002098475542000010B5FFF7F3FFC046A3
:1024F0000FB400B5084883B000F08EFA049B002B9F
:1025000007D005A91800019100F018F8034800F061
:1025100083FA0120FFF7DEFFAC4E0010504D001093
:1025200010B50148FFF7E4FFBC4E001010B50028BD
:1025300000D110BD00F024FAFBE7C04610B5094AEF
:102540000300146884B0002C08D0012200910648D2
:10255000524203A9A047012004B010BD00F05CFA6C
:102560000020F9E7C43D00202D250010014804217A
:10257000014B1847202F00209D250010142310B573
:102580000100188804331B88984710BD162310B526
:102590000100188802331B88984710BDF8B54746DC
:1025A000CE4680B50F1E19D014239946043304007B
:1025B0000025012698464B461888434621681B880B
:1025C000984701C4431E9841013540420640AF423E
:1025D000F1D13000C0BCB946B046F8BD0126F8E7DD
:1025E000114A936F9B0813D210665166002905D0DB
:1025F000FFE7FFE7FFE7516F106F704704B5002852
:1026000001D00020C04302F043FB002104BDC046BE
:10261000F0B5146E556E576F166FFFF7E5FF146631
:10262000556657671667F0BD000000D010B5014829
:10263000FFF75EFFC84E0010132370B51D78012D03
:1026400011D035DD1C48FFF7A1FF1C4C0100802292
:10265000200000F0AFF8022D27D01948FFF78EFFB9
:10266000184B186070BD184B144C23606360A36056
:10267000E36023616361A361E36123626362A36238
:10268000E36223636363A363E36323646364A36418
:10269000E36423656365A365E36523666366A366F8
:1026A000E36623676367A367E367084BA364D4E724
:1026B000024C064BA364D0E7534400009030002046
:1026C0004C330000E43D00202D260010D1260010E0
:1026D00007B5604601880A0A0230DF2AFAD1C9B27A
:1026E000820804D3028840880004104300E0006898
:1026F000014A5050039007BD90300020514343439E
:10270000C9188C46110C83B24B4310B4040C6143BE
:1027100092B280B2504362431C041B0C001910BCDF
:1027200059411304120CC018514161447047000014
:1027300010B50148FFF7DCFE7C4D0010132310B5E7
:1027400010481C78FFF722FF0100012C0AD003DD9E
:1027500080220D4800F02EF80C48FFF70FFF0C4BBD
:10276000186010BD084C5422200000F023F823000C
:10277000084A80332168002900D122600434A34232
:10278000F8D1E9E753460000E83D00204C33000053
:10279000E43D00203127001001480421014B184777
:1027A000302F00209D250010014B1B6818470000AA
:1027B000302F0020014B5B6818470000302F0020AD
:1027C000030010B5080011001B68984710BDC046F3
:1027D000F0B546464F46D646C0B5437D80460E000E
:1027E0001700002B46D0002A3FDD4B1E9946244B94
:1027F0000125002400209A460DE04B461B5D0D3B51
:102800005A425341325DDBB20A2A0BD02B0001340D
:1028100001359F421ADD002CEFD14346325D1B7D0E
:102820000A2AF3D1002BF1D1A04204DA4346211A3F
:102830001B6830189847434650461B68022198474A
:10284000013428002B0001359F42E4DC874204DD7F
:102850004346391A1B6830189847F619013E3378F9
:102860000D3B5A42534142461375E0BCBA46B1464D
:10287000A846F0BD0368110030009847F5E7C04650
:102880004C4F0010F0B5DE4657464E464546E0B583
:1028900085B017001C0006000D00FFF71DF900238E
:1028A000304A12184B41002B58DB2F4908008A464A
:1028B00002F006FA01906B1C03D1300002F09EF981
:1028C0000500002C25D1294B9846294B1C68002C6B
:1028D00015D0002F20D1274F02E02469002C0ED004
:1028E0002368002BF9D03B68002B01D0A342F4D120
:1028F00020002A003100C0472469002CF0D1019B40
:10290000002B27D105B0F0BCBB46B246A946A04675
:10291000F0BD194B9846D8E7164B994602ABDF1D20
:102920000A239B4602E02469002CE8D02368002B90
:10293000F9D04B461B68002B01D0A342F3D12A00EB
:1029400031002000C0475B460122390020003B7067
:10295000C047E8E7504602F08BF9D3E70122074B66
:102960005242A2E740420F00702F0020D1270010F2
:10297000B8390020C0390020C1270010FFFFFF7FB9
:10298000F0B5CE46474680B583B06B460600DD1DE8
:102990002870FFF7A1F800231A4A12184B41002BA8
:1029A0002BDB19490800884602F08AF9174B81464B
:1029B0001C68002C14D0164F02E02469002C0FD0A4
:1029C0002368002BF9D03B68002B01D0A342F4D13F
:1029D000200001222900FFF7FBFE2469002CEFD123
:1029E0004B46002B05D1300003B0C0BCB946B04601
:1029F000F0BD404602F03CF9F5E70122054B52429A
:102A0000CFE7C04640420F00702F0020B8390020A9
:102A1000C0390020FFFFFF7F70B5040002F0EEF820
:102A200000230100050001222000FFF72BFF084BC7
:102A30001C68002C06D06368002B05D098472469D9
:102A4000002CF8D1280070BD2469002CF3D1F9E7DF
:102A5000B839002010B5024800F00CF810BDC0468F
:102A6000DC3D002010B508220149FFF7A3FE10BD90
:102A7000DC3D002030B5002589B00400092200218A
:102A800001A80095FFF790FE0922002105A80495F2
:102A9000FFF78AFE4B236A466846137004A90D228D
:102AA00002F0DEF81521082220006944FFF782FEBB
:102AB00009B030BD30B583B0050068460C00FFF7A3
:102AC000D1FF072C00D90824220069462800FFF70F
:102AD00071FE200003B030BD7047C04610B5012123
:102AE0000520FEF7F3F910BD10B5002200210248C1
:102AF00000F05AF910BDC046E43900208022024B94
:102B00005202DA647047C04600201150F0B5C64644
:102B100000B5060000F022F90C231B4DFF22AB6725
:102B200005201A49FEF716FA40239846184C402211
:102B300000212000FFF738FE43460127238321218F
:102B40000023144A6770A260136063545F3161848C
:102B500041462187053963540F4A10496360E2609A
:102B6000A1620B606362E26202F0CAF880239B05F7
:102B70002F64EB6490230A4A3000EA50FFF7BEFF4F
:102B800080BCB846F0BDC04600001150B50400201E
:102B9000C4390020840010500001105080001050F3
:102BA00010D001000B785B0602D14B78052B00D0CA
:102BB00070478A78014B1A60FAE7C046000011504E
:102BC000F0B5C64600B54B790C791B0288782343D3
:102BD000CC787F21A4070140C509A20F4F00140043
:102BE000324E7A195201B21890700120684050702C
:102BF00000205B055B0DD0701383D4768046CA003D
:102C0000012D33D02A488446880162448446B44466
:102C10006046826040461060002933D0254AC900D2
:102C200090466246414451603F223F339343022C19
:102C300000D15B0020487A1901685201B218D160B6
:102C40001E4ACB18036051405340802288465201EF
:102C5000934228D84346A4061C4380237F197F0152
:102C60001B06F6191C4373681C6011E01448844667
:102C7000880162448446B4446046826240461060E3
:102C8000002909D100236D01761973600D4BF360A3
:102C9000012080BCB846F0BD084AC9009046624693
:102CA00041445162C0E7FFF73BFCD3E7C439002041
:102CB0008400105004001050C83D00200000105047
:102CC000800010500001105010B502F019F810BD2E
:102CD00010B57F200C0020404000E40911000019CD
:102CE0001A00034B4001C01800F05EF8012010BD2F
:102CF000C43900207F22130010B50B400A420BD0CC
:102D0000C9098022580040180649400140181201A4
:102D1000002101F0FDFF10BD02220348C909521A2B
:102D20008266EEE7C4390020002011507F22100097
:102D300010B508400A4200D110BD0023C909400067
:102D4000401804494001081800220349C37001F0EB
:102D5000DFFFF1E7C4390020FFF7FFFF80220D4BB2
:102D6000520410B51A600C4B0C491A6010008B68A5
:102D70009843FBD10A4C9C2200212000FFF714FD50
:102D80008022002152010748FFF70EFD09236367E7
:102D900010BDC04600E0004000F0004000C0004010
:102DA000000011500000105070B5837E04000D002B
:102DB0001600002B17D10023E38201332000A682E6
:102DC000A376256101F094FF002804D08021902390
:102DD000084A8902D150200001F052FF002805D096
:102DE0000123237770BD01F07BFFE4E7200001F0B1
:102DF0006FFFF7E700201150024B5878431E9841AF
:102E0000C0B2704720370020024B18784007C00F2F
:102E10007047C04620370020F8B54746CE4680B5FB
:102E20002A4F06003B780120FF2B03D0C0BCB946D7
:102E3000B046F8BD532200212548FFF7B5FC254CCC
:102E40002000FEF7C7FA244B1C60244C20001430ED
:102E5000FEF7DCFA200001F08DFE214B214D1C60B5
:102E6000214B002B04D0280000E000BF1F4B18604E
:102E70001F49002489461D49002288462B7811E00D
:102E800042461268630094461B19DB006344002B22
:102E900019D01B6898472B780134E4B2591C2200E2
:102EA000A14207DBA342EBD8D21A53009B18DB00E8
:102EB0004B44EEE730003E70FFF728FE3000FFF78E
:102EC0000DFE0120B2E70020B0E7C046642F0020CD
:102ED00020370020D836002074370020482F0020EB
:102EE00078370020FC3E002000000000AC310020BC
:102EF00044500010F0B5DE4657464E464546E0B514
:102F0000CC4B8DB09B461B78FF2B00D114E1CA4EF1
:102F100009AC35686A69EFF3108172B61368002B4B
:102F2000FCD0BFF35F8FA9612800210001F064FC91
:102F30006A69AB69BFF35F8F0021116083F310886A
:102F4000002800D1F8E06378082BE2D8BB4A9B0048
:102F5000D3589F466368002BDBD0A0689847D8E71A
:102F60007F232179B64D0B405800CA092D18AD18A2
:102F70002A0001273032D078B843D070D078033798
:102F8000B843D070002B00D1F5E0AE4AEB7C12784C
:102F9000934200D3CDE05A00D218AB4BD2001B684D
:102FA0009B18002B00D1C7E01D6962792078A368C7
:102FB000A847AEE70122A24D01212B78042013433C
:102FC0002B703323EA5C8A43EA54EA5C8243EA5476
:102FD0000133EA5C8A43EA54EA5C8243EA54237888
:102FE00000209A4600F02CFD602223791A40602AC6
:102FF0000DD0402A00D1C4E0DB06DB0E012B00D14E
:10300000D5E0022B00D12DE1002B00D105E1207885
:103010000021FFF76FFE80212078FFF76BFE78E735
:10302000874D2B78DB0700D473E7884B002B00D14A
:103030006FE728780007C00FFDF70AFA69E78449AF
:10304000804F23788A4680499846894639003B78E4
:10305000002247460025884613E04A4612686B0066
:1030600094465B19DB006344002B59D05B68380041
:10307000984743461B780135EDB2591C2A008D4212
:103080003DDCAB42E9D8D21A53009B18DB00534415
:10309000ECE76B4D2B78DB0700D43AE76D4B002B48
:1030A00000D136E7FDF7D6F933E76949654F237854
:1030B0008A4665499846894639003B78002247464A
:1030C0000025884613E04A4612686B0094465B1957
:1030D000DB006344002B4CD05B68380098474346C4
:1030E0001B780135EDB2591C2A008D422BDC9D4224
:1030F000E9D3D21A53009B18DB005344ECE7504D40
:10310000532200212800FFF74FFB1022FF21E81C6B
:10311000FFF74AFB28002022FF211330FFF744FB72
:1031200000F084FC4C4B002B00D1F2E6FDF78EF949
:10313000EFE6501C984233DA0DB0F0BCBB46B24605
:10314000A946A046F0BD3E4D532200212800FFF7BE
:103150002BFB1022FF21E81CFFF726FB2800202272
:10316000FF211330FFF720FB00F060FC2379AB70E8
:10317000CFE6334DF8E762792078A36800F074FC5D
:10318000C7E63648002800D141E700F059FC01218C
:1031900050460AAA00E000BF002800D0B9E636E792
:1031A0009B1A5A00D2182A4BD2009B18FCE6237AAD
:1031B0000F2B00D92BE7234AEB18DB7812789342C8
:1031C00000D3C3E0204A5D00EB181568DB00ED1862
:1031D000002D00D11BE7E86800F032FC01215046C9
:1031E000EB680AAA9847002800D092E660221500F2
:1031F00023791D401A4200D009E763790A3B012B6D
:1032000000D904E700F01CFC63790A2B00D198E197
:1032100050460AA900F094FB7BE6202A4DD0002AF4
:1032200000D0F4E66379092B00D9F0E60C4A9B0044
:10323000D3589F46642F002078370020B84F0010E5
:1032400020370020FC3E0020AC310020510400104B
:1032500044500010550400104D0400100000000000
:10326000DC4F00107023217A0B4200D0CFE60F33E1
:103270000B405B00E818CF090193B64BC0191B78CF
:10328000C07C9C46984235D243009846B24B40449D
:103290001B68C00098468044002A3BD04346002B60
:1032A00000D1B4E64346D86800F0CAFB434601218A
:1032B0005046DB680AAA98476EE7237A0F2B00D99D
:1032C000A5E6A44AEB18DB781278934249D3511C47
:1032D000994200DA9BE69B1A5D00EB189F4DDB00DC
:1032E000ED18E86800F0ACFB01215046EB680AAA33
:1032F000984751E701236344834200DAFAE06346CA
:10330000C01A43009846954B40449846C0008044FC
:10331000002AC7D163791A00994602239A43012AE9
:1033200000D1C4E04B46002B00D070E6019B08AAF8
:10333000EB18DF193037FB7802329B07DB0F138065
:10334000504602230AA900F013FBE2E5511C994202
:1033500000DA5CE69B1A5D00EB18804DDB00ED188F
:1033600039E77D4A5D00EB181568DB00ED18002D8C
:1033700000D14CE6B5E7A37902931A006B789A4224
:103380000CD06B78002B00D05FE1029B002B00D0AB
:10339000F0E0734B002B01D0FDF758F8029B50462C
:1033A0000AA96B7000F0CCFAB3E56B7808AA023278
:1033B0001370504601230AA900F0DAFAA9E50220A9
:1033C000297808AB9A1C8B068908DB0F01400B4358
:1033D000B5E7E088030AC0B20F2B00D917E66149B0
:1033E0009A008A5897460AA800F030FB5046A17907
:1033F000FFF77AFB02222B7813432B7089E5E388D1
:10340000012B00D003E608222B78504613430AA96B
:103410002B7000F095FA7CE5E388012B00D0F6E5EF
:1034200008222B78504693430AA92B7000F088FAA3
:103430006FE54D4B002B00D1E9E500E000BF021E17
:1034400000D1E4E5D37891781B020B4350460AA9DA
:1034500000F08EFAA0E6454B002B00D1D7E500E046
:1034600000BF021E00D1D2E5504613780AA900F031
:103470007FFA91E62189FDF7DDFB021EF4D1C6E556
:10348000022B00D122E13A4B002B00D1BFE500E036
:1034900000BF0200002A00D1B9E5D3E7FDF7C2FB67
:1034A000122302000AA9504600F062FA74E6E2888C
:1034B000002A09D14B46012B22D0019BEB18DF19C2
:1034C0003037FB789B072FD54346002B00D120E5F2
:1034D000D86800F0B5FA43460121DB680AAA5046D5
:1034E0009847002000F0ACFA3423EB5CDB0700D5F2
:1034F0000FE58DE6002A00D089E50023984609E70C
:10350000019BEB18DF193037FB789B07DCD55B4656
:103510001878FFF70BFC0222FB7893434A46FB70B6
:10352000FB789343FB70CFE75B461878FFF7E2FB2D
:103530000222FB7813430122FB70FB781343FB70DC
:10354000C2E708AB9A1C504601230AA9157000F087
:103550000FFADEE4FC3E0020AC31002044500010A5
:103560004D04001004500010000000000000000096
:1035700000000000581EC0B2FDF758FB002800D123
:1035800045E543780693022B00D040E5C179013B25
:103590008A1149111A400B40302152011B0113437B
:1035A0002A788A4313432B700923994681444F4656
:1035B000A946C37882781B021343C3180493049B63
:1035C000BB4200D886E001227B7801920B2B04D10C
:1035D000FB7801933B78FF187B78042B00D016E52D
:1035E0000022049BB846DB1B9BB20593574B170088
:1035F0001B7803921EE0564B7D001B68ED199C461C
:10360000ED0065440793002D00D100E5414650468A
:10361000059AAB6898478446082802D9059A8242E1
:1036200060D24A4B01371B78FFB25A1C039797426E
:1036300000DDECE4BB42DED8039AD31A5D00ED183E
:10364000444BED009C466544E0E75046FFF73CFBE9
:10365000AB783F4901938946002329003B4F1D0069
:1036600088463A7812E04A4612686B0094465B1925
:10367000DB006344002B27D05B68504698473A78BC
:103680000135EDB2511C2B008D4209DC9542EAD385
:103690009A1A53009B182F4ADB0094466344EBE7C9
:1036A0004546532200214046FFF77EF81022FF21B5
:1036B000E81CFFF779F840462022FF211330FFF77E
:1036C00073F8019BAB7060E64546FAE7FDF7AEFA8A
:1036D0000200DFE6204B4D46002B00D15EE6FCF7F2
:1036E000B3FE5BE63B0047469846019B012B25D085
:1036F000019B002B10D000234546B978CA18D2B2DE
:103700004A44D078FF2800D081E4D5700133019A73
:10371000DBB29342F2D3A84648466546624643462A
:103720003900133000F0E2FFAC46084B039A1B78D7
:1037300067440133934200DB41E768E4074BAA6822
:103740009A42D8D1069B0193D5E7C046FC3E0020A3
:10375000AC31002044500010490400106D080010E6
:10376000F8B557464E46DE4645460C00E0B5160015
:103770001F00002A3CD0702398461E4B00259B4614
:103780001D4B9A461AE05B461B782000994653462B
:10379000997800F06FFF00281CD021004846FFF701
:1037A0000FFA002816D0A378DA09012A19D00A9A4C
:1037B000013513702378E418B54219DA6378052BC4
:1037C00008D1E3789B079B0FBB4203D14246A37805
:1037D0001A42D8D00020F0BCBB46B246A946A0464B
:1037E000F8BD0B9A013513702378E418B542E5DB78
:1037F0000120F0E7642F002020370020702270B5F0
:103800008B780C001A4201D0002070BD064B2000BE
:103810001D78064B997800F02DFF0028F4D0210088
:103820002800FFF7CDF9F0E7642F002020370020B3
:10383000074B080019687F2310B50340C0095B00DF
:1038400033301818034B181800F0D0FE10BDC046D6
:103850007437002020370020074B080019687F23A9
:1038600010B50340C0095B0033301818034B18181B
:1038700000F0E4FE10BDC046743700202037002061
:103880007F2070B508400F4C4000CD092418641902
:103890003034E5780020ED0700D570BD0126E578CD
:1038A000094835430078E570FFF712FA0028F4D193
:1038B0000122E3789343E370E37803329343E370A8
:1038C000EBE7C04620370020642F00207F22CB0981
:1038D0000A40044952008918C9183031C878C00715
:1038E000C00F7047203700207F2310B50B400B4CD2
:1038F0005B00E418CA09A4183034E3789B0700D5AC
:1039000010BD074B1878FFF7F5F90222E37813434F
:103910000122E370E3781343E370F1E720370020DE
:10392000642F00207F22CB090A40044952008918E5
:10393000C9183031C8788007C00F70472037002081
:1039400070B50A4E0500300008220C00FEF732FF69
:1039500000237F21F3602278B36091425B4128000D
:10396000D90100220023FFF78BFF70BD40340020F7
:10397000F8B5CE46474691462A4E80B50822070044
:1039800030000D009846FEF715FF4B46B36000234C
:10399000F381EC79A97924020C43231C444500D916
:1039A00043469AB29046B381002C13D0002A1FD010
:1039B0004B46002B34D0131C402A1FD89BB298468C
:1039C00033787F2B20D80021174A43463800FFF771
:1039D00057FF09E07F222B7838009A426441002388
:1039E0000022E101FFF74CFFC0BCB946B046F8BD6C
:1039F00033787F2B11D980210022E6E740239BB248
:103A0000984633787F2BDED9074C42464946200042
:103A1000FEF7D0FE80212200D7E700210022D4E764
:103A20000020E1E740340020E036002010B51422E9
:103A300000210248FEF7B8FE10BDC0464034002009
:103A4000014B18617047C0464034002010B5054C4A
:103A5000010008222000FEF7ADFE0023A360E36012
:103A600010BDC04640340020F8B53B4C1D00237803
:103A70000600DA09C9098A4213D00020002D00D0BF
:103A8000F8BD364B002B03D021003000FFF78AF839
:103A90002369002B44D022000321300098470120E5
:103AA000EEE77F2B06D8A068002837D02A002C49E3
:103AB000FEF780FEA368E28959195219E38892B291
:103AC000E281A160934214D03F2D12D9A589A81A92
:103AD000071C80B240282FD82378BFB27F2B2DD867
:103AE0000021AA4235D01E4A3B003000FFF7C8FE35
:103AF000C6E72369002B05D0220002213000984739
:103B000000280FD07F220021237830009A424941BB
:103B100000230022C901FFF7B3FEB1E70020AFE7A1
:103B20000120ADE700213000FFF7E4F830008021EC
:103B3000FFF7E0F80120A3E74027CDE7AA4207D02E
:103B4000074C3A002000FEF735FE80212200CBE72B
:103B500080210022C8E7C04640340020A52B001079
:103B6000E0360020F0B54746CE4680B5364C06001C
:103B7000E18AA36849BA89B2984687B0002904D07F
:103B80001800FEF72DFD0104090C2369257D1A0A92
:103B9000A36B2D06180099461543FEF721FD2DBA9B
:103BA0000A00434641194D465B1B8025274F607B29
:103BB000AD00AB4200D92B0000933B00FCF7ACFCFE
:103BC000051E1FDB00280BD02E2283B2A15C300023
:103BD0003A00FFF755FE07B0C0BCB946B046F0BD8D
:103BE0002E23E75C03AC082200212000FEF7DCFD59
:103BF000072300212000267063702771059501F0CE
:103C000057F8E8E7124B0022A3873E233021022019
:103C1000E254123B0132E254A268A36B6054D31AFF
:103C2000A362002AD7D0002BD5D0237BDB0905D097
:103C30002E233000E15CFFF757FECCE72F23300046
:103C4000E15CFFF751FEC6E798360020983400206B
:103C5000023A00001E4B70B505001E4C002B04D02C
:103C6000607BFCF76BFC002810D0A26BA3689B1A4A
:103C700080229200934207D82F222800A15C9BB299
:103C8000154AFFF7FDFD70BD1300F5E7134B012248
:103C9000A3873E233021E054123BE254A268A36B79
:103CA0000230D31AA3626054002AECD0002BEAD071
:103CB000237BDB0905D02E232800E15CFFF714FEEF
:103CC000E1E72F232800E15CFFF70EFEDBE7C046AB
:103CD0003D0500109836002098340020072700008A
:103CE00010B53C24034801553D2142543E228354E3
:103CF000012010BD9836002010B540220021024856
:103D0000FEF752FD10BDC0469836002010B5402287
:103D100000210248FEF748FD10BDC046983600203D
:103D200030B54B79040083B0082B02D18B79062B78
:103D300002D0002003B030BDCB79502BF9D1162A28
:103D4000F7D98A780E4D233BEA540B780222C91822
:103D50002B002E3301932B002F3300930223FFF708
:103D6000FFFC0028E5D030230022EA54013BE95C47
:103D70002A002000103BFFF783FD1720DAE7C0463A
:103D80009836002070B50500140082B001292AD1B0
:103D90007F2312781340022B28D060230020134089
:103DA000202B21D16378FE2B50D0FF2B1CD1E37840
:103DB000A2781B02134317D1E379A2791B021343A4
:103DC00012D1302200213C4B98540E325863986334
:103DD0009887995428002100FFF7B2FD012003E0E5
:103DE0002800FFF781FD012002B070BD6378012B30
:103DF000D3D1E378A2781B0200201343F4D1302200
:103E000021792D4CA35C042BEAD02E20205C884223
:103E100041D02F22A65C8E42E5D1002BE3D13100A8
:103E20002800FFF753FD0028DDD131002800FFF7FF
:103E300079FD0028D7D130230022E254013BE15C18
:103E400022002800103BFFF71BFDCDE7E378A278A6
:103E50001B0213431BD1E379A2791B021343012BED
:103E600015D16A46D371154B002B12D000E000BF6C
:103E700000280CD00138C0B26B466A46D8712100C8
:103E8000012328000732FFF773FD0120ACE7002073
:103E9000AAE70020F0E7022BA5D1A16BA3685B1A6B
:103EA000A3620323A35422000100203228000A3316
:103EB000FFF7E6FC98E7C0469836002000000000B7
:103EC000F0B5454657464E46DE46E0B51F00302366
:103ED000BB4C0500E65C984691B0012E0ED0032E37
:103EE00060D0002E1CD0022E00D18AE0012011B03B
:103EF000F0BCBB46B246A946A046F0BDE37B282BEA
:103F000074D02A2B00D1BCE0A36B227B9C46674473
:103F1000A763D20900D1A5E0636B9F426ED2E5E7AB
:103F2000013BE35C8B42E1D11F2F00D086E0A54B23
:103F300022689A4200D081E0A34B42462362636824
:103F40002C2763620123E655A354E27BA368A66293
:103F50006363A663282A00D1D3E02A2A00D178E23D
:103F6000002B00D1F3E0207BC00900D0EFE08022DD
:103F70009200934200D831E2A3623023D53AFF3A4F
:103F80000130A0542A3AE2540C33E35C002B03D1F5
:103F90008E4AA2873E22A3542800FFF7A5FC3023B7
:103FA000E65CA0E72E23E35C8B429FD10D2F9DD1D1
:103FB000E37B282B00D144E22A2B00D139E2844B49
:103FC000002B04D02100607B0F3100E000BF0023F4
:103FD0003026A3552F33E15C22002800103BFFF769
:103FE0004FFC002800D101E2A65D7CE7A36B9C4654
:103FF000636B6744A7639F4200D27DE030230222B7
:10400000E2542E262800A15DFFF78CFC002800D08A
:104010006CE7A368A26B934202D9217BC9091CD12A
:104020009B1AA36203223023E2542200023BE15C8C
:1040300028002032213BFFF723FC58E704223023DD
:10404000E254023BE15C2800FFF74EFC2F232800DE
:10405000E15CFFF749FC002049E72800A15DFFF77C
:1040600043FC43E72100A38E607B5A4A0F31FCF7E3
:104070007BFA002800DABDE1A36B626B9342BDD2EC
:104080008DE7E18A49BA89B2002900D1B0E1A06880
:10409000FEF7A6FA0104090C2369267D1A0AA06B13
:1040A00036061643FEF79CFA36BA4A4B0A008119C7
:1040B000607B00979846FCF743FA002800DAE0E1BD
:1040C000874238D93F1A002800D01CE22F2307AEC0
:1040D000E35C0822002130009846FEF765FB0723C9
:1040E000737043463570337130000021099700F03A
:1040F000DFFD3023E65CF6E6FFF734FD4346E65C81
:10410000F1E6E08A40BA80B2002B00D008E2002835
:1041100000D173E702232C22A3540022A262303282
:10412000A3543A33E35C002B00D06AE7274AA28706
:104130003E22A35465E7A36B9C46636B6744A76369
:104140009F4200D35AE72800FFF784FD27E7667BEC
:10415000252A03D8204992008A5897463C22A25C1F
:10416000002A00D013E11B4A90462100424630004D
:104170009BB20F31FCF7F8F9002800DA07E10028BC
:1041800042D1A368002B00D138E72C220121A15491
:10419000A26B01319B1A3022A362A1540C32A25CA3
:1041A000002A03D10949A1873E216254002B00D186
:1041B00027E7237BDB0900D0A2E12F23E15CEBE6BC
:1041C0009836002055534243555342530520000072
:1041D00000000000983400207450001006AF3A0030
:1041E000300007A9FCF786F9079B002B00D1AAE154
:1041F0003A88002A00D1A6E1D84908208846013B28
:104200001BBA12BA0B604A60A368002B00D0B7E15A
:1042100001222C33E254A36B01325B42A3623023B0
:10422000E2540C33E35C002B00D0EAE67EE707AFF4
:104230000C2200213800FEF7B7FA02AA94460E239A
:1042400063441A00300006A99846FCF753F9069A11
:10425000002A00D177E143461B88002B00D172E190
:10426000082112BAF970089202225BBA7B81BB4B1B
:104270003A72984607CF07C30C20C5E7B84B012018
:10428000002B02D03000FCF759F9B44B03229846BA
:1042900001234340DBB2DB05134342460420136095
:1042A000B2E707AF082200213800FEF77DFA80232D
:1042B0005B427B708233BB70FB701D333B71082205
:1042C000202109A8FEF770FA102220210BA8FEF782
:1042D0006BFAA44B300009A90F930BAA0FABFCF7A4
:1042E000CBF89E4B1A0098460BCF0BC20BCF0BC2DC
:1042F0000BCF0BC2242087E70F23984642462D336D
:10430000E35C07AF1A403D23E35C93469A463E23A5
:104310009946E35C1222002138000393FEF744FA29
:10432000F0235A463B7043461340BB700A23524663
:10433000FB71039B3A737B73884B984607CF07C387
:104340003A681A60BA889A80874B002B00D145E101
:10435000802241469200300000E000BF00234A4620
:10436000A387A354984200DB09E7667B636BFCE6F6
:104370003000FCF7ADF8002800D002E73C23E35CF6
:10438000002B04D1794B0022A3873E23E2542C2337
:10439000012230210220E254A268A36B6054D31A98
:1043A000A3620C31615C002903D17148A0873E20D3
:1043B0002154002A00D124E6F8E66E4B002B00D1F0
:1043C000DFE6E17C30008B07CA07DB0FD20F09095B
:1043D000FCF796F8002800D0D3E6CFE728005F4A24
:1043E0009BB2FFF74DFA002800D0D8E500207EE50B
:1043F000002151E62C230220E6544646A368A26B16
:10440000A055991AA1623A30205C002803D1584E79
:10441000A6873E26A055002B56D0002954D0237BDA
:10442000DB0900D1BEE02E232800E15CFFF75CFA37
:1044300022E6514B002B00D1C9E5607B00E000BFB4
:10444000C5E54E4B002B00D1C1E5607B00E000BF0D
:10445000BDE5E08A40BA80B2002B00D157E6267B4A
:10446000F60900D0A4E0002833D0834200D297E0C0
:104470002800282A00D067E6FFF774FB3023E65CAB
:1044800031E53A4AA36B0021A2873E229C463026A2
:10449000A154123A0131A154A2686744D31B0131DF
:1044A000A763A362A155002A00D1AAE5002B00D181
:1044B000A7E5237BDB0900D189E02E232800E15CFE
:1044C000FFF712FAA65D0EE5636B9A4200D298E5FB
:1044D00094E501202C22A05402200432A054A362AF
:1044E0000C32A25C002A08D12148A0873E20225429
:1044F000002B00D185E5267BF609002E00D14BE587
:104500002E23E15C48E5A26B0100944603041B0CDA
:1045100063443A0040464144A36300F001FCD5E502
:10452000267BF6099FD10222A3624346E2543C2334
:10453000E255E35C002B00D02EE50D4B0022A38753
:104540003E23E254D7E73C23E35C002B00D01EE778
:10455000064AA2873E22A35419E7C0469834002099
:104560003D0500102020202000000000023A00003D
:104570000520000001050010000000000000000000
:10458000984200D918002E226063A15C83B2424693
:104590002800FFF775F9002800D000E50020A6E408
:1045A000022097E72F232800E15CFFF79DF963E5E0
:1045B0000222A3622C2030232254E2540C33E35C09
:1045C000002B9DD1084AA2873E22A35493E72F23B4
:1045D0002800E15CFFF788F9A65D84E44A461220D2
:1045E000A387A35410E6C04605200000037870B5E9
:1045F000DB0704000E00DD0F002B17D103785B07EB
:1046000001D5280070BD01213000494200F048FB6F
:104610002378DB07DD0F002B0AD123785B0708D452
:104620000422237801251343237002E00025E8E7E4
:104630000025300000F01CFBE3E7C04670B50D001C
:10464000012104004942280000F02AFB23785B077F
:10465000DE0F002B04DB280000F00AFB300070BDE9
:104660002378DB0704D40422237893432370F2E7F2
:104670000026F0E710B5437904791B0223435B055C
:104680005A0DC3789B079B0F022B05D0032B15D027
:104690000020012B08D010BD02291CD0002040238F
:1046A00093424041C0B2F6E702394B4259410D4BAB
:1046B0009C46614491424041C0B2ECE702394B4212
:1046C0005941F023002049429B001940403191425A
:1046D0004041C0B2DFE7044BD3185A425341D8B22D
:1046E000D9E7C046FF03000000FEFFFF8A1870B53F
:1046F000914207D27F264C78052C04D00C780919FA
:104700008A42F8D870BD34008D782C4064000419BA
:10471000ED0963550C7809198A42ECD8F2E7C046D6
:10472000F0B5C64600B5040006A805788020884686
:1047300017001E000002824227D8E068002803D03C
:104740000121494200F0ACFA2069002803D0012180
:10475000494200F0A5FA4346236073045B0CED0365
:104760001D430023E0686381A780E5802381002842
:1047700001D000F07DFA20690124002801D000F06A
:1047800077FA200080BCB846F0BD0024F9E7C046A7
:1047900010B5048941898288A3B288B28C4207D3BC
:1047A0001B1A9BB2101C9A4200D9181C80B210BD73
:1047B0005100091A5B189BB2F4E7C0460300008958
:1047C0005B89C01A43425841C0B2704710B5048992
:1047D00041898288A3B288B28C4207D31B1A9BB24C
:1047E00000209A4201D9D31A98B210BD5100091A7B
:1047F0005B189BB2F4E7C04670B5040000690E0078
:10480000002803D00121494200F04AFA2589608935
:10481000A288A9B283B285422CD3CD1AADB2002DA5
:104820002ED0AA4208D2914231D38B1A9BB2638117
:104830009A4203D89B1A9BB29A42FBD9E28821681C
:104840005204520C53433000C918FDF7B3FF61897D
:1048500001254B1C9BB2A288994214D90023520017
:104860009B1A9BB220696381002801D000F000FAF6
:10487000280070BD5500ED1A4D19ADB2002DD0D1F4
:10488000002563899BB252009342EBDBE8E789186D
:104890008BB26381CCE7C046F0B546464F46D6465C
:1048A000C0B50600006989469046002803D0012162
:1048B000494200F0F5F931897289B5888BB294B21A
:1048C000914257D31F1BBFB2002F4DD0BD4205D21E
:1048D000AB4254D25B199CB22F0074814346B84559
:1048E00040D89FB2A54203D8641BA4B2A542FBD90D
:1048F000F288281B5204530C190098463368614310
:104900009C4680B26144874226D94346584383B2CD
:104910001A0048469A46FDF74DFF434648467D1B20
:1049200064195C4331685044A2B2FDF743FF7189BA
:10493000B588CB199BB26A00994217D99B1A9BB2D2
:1049400030697381002801D000F092F93800E0BC92
:10495000BA46B146A846F0BD424648467A43FDF7FE
:1049600029FFE4E73B1CBCE773899BB26A009342D2
:10497000E6DBE3E76F003F1BDF19BFB2A4E75B1B79
:104980009CB2A9E7F8B50400C0680E00002803D067
:104990000121494200F084F9258920896189A28892
:1049A000ADB283B28FB2884228D3DB1B9BB29A424E
:1049B00009D8E779FF0906D1E068002801D000F0A6
:1049C00057F93800F8BD2B00954203D39B1A9BB2D0
:1049D0009342FBD2E28821685204520C5343C81818
:1049E0003100FDF7E7FEA2886B1C9BB252009D428E
:1049F00009D99B1A9BB201272381DDE75100C91B0E
:104A00005B189BB2D3E79342F5DBF2E7F0B54E4675
:104A10004546DE465746E0B589460500140083B09A
:104A2000002A6ED0C068002803D00121494200F05E
:104A300037F92F89EA796B89BFB29BB2D20942D18B
:104A4000AE889F4267D27200D31AFB189BB2002235
:104A500090469E4231D9F31A1A1C9BB2A34200D948
:104A6000221C93B29846E8884346FB189BB29B46AB
:104A70003C00B74203D3A41BA4B2B442FBD240040F
:104A8000430C18009A462B6860439C46311B89B240
:104A9000604441454ED35246434649465A43FDF78A
:104AA00089FEAB885B00BB4501D39B4503DB5A46BF
:104AB000D31A9BB29B465B462B81E868002822D024
:104AC00000F0D6F81FE0AA889046944226D29F4272
:104AD00044D34146FA1A92B2490012198A4209DBBC
:104AE00042469A1892B2171BBFB29346BB423AD9BC
:104AF0007F1ABFB2E3199BB246469B46A046E888A0
:104B0000B6E700239846404603B0F0BCBB46B24629
:104B1000A946A046F0BDFB1A9BB298E7E888A21A06
:104B20004404640C54434246A144002AC5D046467E
:104B30001F0099E75346594389B20A00019149463B
:104B4000FDF738FE43469A1B5346A2185A43019973
:104B5000286892B24944FDF72DFEA2E75100CA1A17
:104B6000BA1892B2B9E7B942C2DD4646E888A04613
:104B70007EE7C04610B50400C068002803D00121BC
:104B8000494200F08DF82069002803D001214942F4
:104B900000F086F80023E06863812381002801D0BB
:104BA00000F066F82069002801D000F061F80120CB
:104BB00010BDC04670B50400C0680D00002803D0C9
:104BC0000121494200F06CF82069002803D001213E
:104BD000494200F065F87F21E379ED011940E06872
:104BE0002943E171002801D000F042F82069002833
:104BF00001D000F03DF8012070BDC04610B583071C
:104C00000AD00300032102E001330B4205D01A78D9
:104C1000002AF9D1181A10BD030019680C4A0D4C6E
:104C20008A188A4322420FD15968094A04338A18E4
:104C30008A43224208D15968054A04338A188A43B4
:104C40002242F1D000E001331A78002AFBD1E1E7DB
:104C5000FFFEFEFE80808080F8B5C04600000000A8
:104C600001B40248844601BC604700BF8D020020A9
:104C700001B40248844601BC604700BFED0100203A
:104C800001B40248844601BC604700BFB50900205A
:104C900001B40248844601BC604700BF690D002092
:104CA00001B40248844601BC604700BF5D0100209A
:104CB00001B40248844601BC604700BFED0B0020F0
:104CC00001B40248844601BC604700BFC100002017
:104CD00001B40248844601BC604700BF310B00208C
:104CE00001B40248844601BC604700BFCD0A0020E1
:104CF00001B40248844601BC604700BF8D09002012
:104D000001B40248844601BC604700BF5103002043
:104D100001B40248844601BC604700BFD90A0020A4
:104D200001B40248844601BC604700BF6D0D0020FD
:104D30000D0A54696E7955534220576562555342A6
:104D400020646576696365206578616D706C650DBA
:104D50000A00000054696E79555342004D61737327
:104D60002053746F72616765000000003031323388
:104D70003435363738394142434445460000000057
:104D800054696E7955534220446576696365000025
:104D9000313233343536000054696E795553422030
:104DA0004344430054696E79555342204D534300A8
:104DB0000904000012010002EF020140FECA024095
:104DC00001010102030100000902A40005010080A5
:104DD00032080B0002020200000904000001020276
:104DE000000405240020010524010001042402021E
:104DF00005240600010705810308001009040100CD
:104E0000020A0000000705020240000007058202B6
:104E1000400000080B020202020000090402000127
:104E200002020004052400200105240100030424DB
:104E30000202052406020307058303080010090483
:104E40000300020A000000070504024000000705F5
:104E5000840240000009040400020806500507050A
:104E60000602400000070587024000004E6F2073D5
:104E700070696E6C6F636B7320617265206176611F
:104E8000696C61626C65000048617264776172658B
:104E900020616C61726D20256420616C72656164B3
:104EA0007920636C61696D65640000000A2A2A2A12
:104EB0002050414E4943202A2A2A0A004861726440
:104EC00020617373657274006D697373696E672016
:104ED000646F75626C652066756E6374696F6E00D1
:104EE00052656C6561736500626F6F74325F773213
:104EF0003571303830000000312E352E3100000081
:104F00007069636F5F7700007069636F2D77696602
:104F1000692D616461707465720000004E6F7620C7
:104F2000313720323032330006005250BBFF3CB6DE
:104F3000004F001006005250E182887FE84E0010BA
:104F400006005250D3F07542E04E00100D0A0000EA
:104F5000556E68616E646C656420495251203078EA
:104F600025780A00657020256420257320776173F9
:104F700020616C726561647920617661696C61623F
:104F80006C65000043616E277420636F6E74696EF8
:104F900075652078666572206F6E20696E61637436
:104FA0006976652065702025642025730000000067
:104FB0006F757400696E0000122F0010AA30001087
:104FC0003E300010122F00102030001092300010E0
:104FD000B42F0010602F0010542F0010BE330010AB
:104FE000183400100E300010FE3300100E30001088
:104FF000E6330010D23300100E300010AA33001038
:10500000763300100E3000109C34001080340010F5
:10501000743400100E3000100E30001056340010A2
:10502000803400100E3000100E3000100E300010D2
:105030000E3000100E3000100E3000100E30001038
:10504000323400101D070010150800106D08001004
:10505000B9090010B50A001000000000F93C00106A
:105060000D3D0010213D0010853D0010C13E001097
:1050700000000000704300105C4100105C41001013
:10508000F84200105C4100105C4100105C410010CF
:105090005C4100105C4100105C4100105C4100105C
:1050A0005C4100105C4100105C4100105C4100104C
:1050B0005C4100105C4100105C410010A2420010F5
:1050C0005C4100105C4100105C4100105C4100102C
:1050D0005C4100105C4100105C4100107C420010FB
:1050E000BA4300105C4100105C4100105C410010AC
:1050F0005C4100105C4100105C4100105C410010FC
:0C5100002E4200105C410010DC41001049
:10510C00AC020010A002001094020010284F0010F6
:0C511C0088020010344F0010404F0010BB
:10512800F0B5C646150000B504001E000268EFF38E
:10513800108172B61368002BFCD0BFF35F8F042375
:10514800E356002B2DDB2268BFF35F8F0020106031
:1051580081F31088D0221206127852B290469A42F1
:1051680003D1002080BCB846F0BD00270BE02368BF
:10517800BFF35F8F1F6081F310882800310000F0B3
:105188007BFE0028EDD12268EFF3108172B6136818
:10519800002BFCD0BFF35F8F23797F2BE7D94346E1
:1051A80002E0D0231B061B6823712368BFF35F8FBF
:1051B80000221A6081F310880120D3E7F0B5C646B3
:1051C80000B50D00040000F07FFEFA2206000F0073
:1051D800002328000021920000F066FE36184F4197
:1051E800002F2CDBD0231B061B68002598460BE0FC
:1051F8002368BFF35F8F1D6081F31088300039008A
:1052080000F03AFE002818D12268EFF3108172B638
:105218001368002BFCD0BFF35F8F23797F2BE7D96E
:10522800434623712368BFF35F8F00221A6081F31E
:105238001088012080BCB846F0BD0020FAE701269E
:10524800014F7642CEE7C046FFFFFF7F0268EFF3CB
:10525800108172B61368002BFCD0BFF35F8FFF2359
:1052680003710368BFF35F8F00221A6081F310880F
:1052780040BF7047084810B50378002B0AD1802337
:105288000649074A5B051C68CC5004339342FAD19F
:105298000123037010BDC046FE3E00204C380010AC
:1052A8000001001010B5024B0133984710BDC046ED
:1052B8004C380020034B1A68C0239B009343024AD2
:1052C800136070470C8001400C900140054B1A6830
:1052D80080239B005340C02292001340024A13606F
:1052E8007047C0460C8001400C9001401423F0B573
:1052F800D6464F4646469A46814618880433C0B576
:1053080098460E001B882749140098475346070003
:105318001888434624491B8898475346050018882F
:10532800434622491B8898478046FFF7A3FFB847A2
:10533800A847FFF7CBFF002C1BD0C021220008276D
:10534800022049053D008B6A1D4018420BD0002CF5
:1053580009D0131B0D2B1FD84B461B78013C0B663D
:1053680001239C46E1442300002D0CD11343002B5C
:10537800E8D1FFF79FFFC047FFF794FFE0BCBA46AC
:10538800B146A846F0BD002AF1D00B6E013A337041
:10539800130001362343EAE7002DD3D0002AD1D0E9
:1053A800F3E7C04649460000455800004643000060
:1053B80000231C4A10B59360D3601B4A00219360F8
:1053C800D3601A4A1A489360D3601A4A9360D3602C
:1053D800194A9360D360194A9360D360184A93605E
:1053E800D360184A9360D360174A9360D360174A12
:1053F8009360D360164A9360D360164A9360D36073
:10540800154A9360D360154A9360D360144A936039
:10541800D360F022920000F037FD124B124A1A6056
:1054280010BDC04600001050080010501000105069
:10543800043A002018001050200010502800105086
:1054480030001050380010504000105048001050E4
:105458005000105058001050600010506800105054
:1054680070001050C83D002080011050F0B557461C
:10547800DE464E464546E0B5234B87B09F6D002F6C
:1054880023D0224B0024994601239846204B01261D
:105498009A4604E001347600E4B2202C15D03E424E
:1054A800F8D04B469E65434665086D00A343ED184A
:1054B8006D015544280000F0A1FB00280CD10134EF
:1054C800B743E4B27600002FE7D107B0F0BCBB4683
:1054D800B246A946A046F0BDAB7808229B46EB8AA7
:1054E800002103A8019300F0CFFC0723594602AA24
:1054F8005371019B117203A80121059300F0A6FBCB
:10550800280000F013FBDAE70000115000301150BA
:10551800C43900209823C64A70B5D55880232C007A
:105528009B02102684B01C401D4278D0C14BC24C4F
:105538009A6AC24B00261A603B23E35C022B00D117
:10554800D7E07B23E35C022B00D119E2BB23E35CA9
:10555800022B00D102E2FB23E35C022B00D1EBE13A
:105568003C23FF33E35C022B00D1D0E17C23FF33E3
:10557800E35C022B00D1B5E1BC23FF33E35C022BD3
:1055880000D19AE1FC23FF33E35C022B00D17FE1D9
:10559800AB4BE35C022B00D136E1AA4BE35C022B58
:1055A80000D11DE1A84BE35C022B00D104E1A74B1D
:1055B800E35C022B00D1EBE0A54BE35C022B00D1AE
:1055C800D2E0A44BE35C022B00D1B9E0A24BE35C30
:1055D800022B00D19EE0A14BE35C022B00D1E1E15C
:1055E800002E08D19E4B1B78002B04D180219D4AA8
:1055F80090338902D15001AE8D4B0C22002130002E
:105608009C6C00F041FC03236405640D737030004A
:1056180002940121802400F019FB934EA402EB06AA
:1056280063D480235B021D4214D01C430122232132
:10563800814B5A54DA70C0238C4ADB00019302ABC9
:1056480003CA03C3012101A800F000FB8022854B97
:1056580092021A6580235B011D422FD18023DB0152
:105668001D421AD180231B021D4204D1AC4200D036
:10567800B2E104B070BD01AE0C22002130001C4321
:1056880000F002FC052301217370300000F0DEFAFF
:105698008022744B12011A65E8E701AE0C22002142
:1056A80030001C4300F0F0FB04230121737030002C
:1056B80000F0CCFA10226B4B1A65D3E700221C438A
:1056C8005B4B01AE1A60FFF773FE0C22002130001D
:1056D80000F0DAFB012301217370300000F0B6FA04
:1056E8008022604B12031A65B8E7FFF7BFFE34004B
:1056F80097E73833E65C002E00D122E70233E25CFC
:10570800002A00D11DE700222000E254203000F0DA
:105718003FFA16E7564BE35C002B00D15BE7EF231B
:105728009B00E25C002A00D04EE14C4BE35C022B6C
:1057380000D060E74F4BE35C002B00D037E15AE71D
:105748004D4BE35C002B00D140E7DF229200A15CC7
:105758001E00002900D139E70023A354D8239B0059
:10576800E01800F015FA31E7444BE35C002B00D158
:1057780027E7CF229200A15C1E00002900D120E774
:105788000023A354C8239B00E01800F001FA18E78F
:105798003B4BE35C002B00D10EE7BF229200A15CDB
:1057A8001E00002900D107E70023A354B8239B005B
:1057B800E01800F0EDF9FFE6324BE35C002B00D176
:1057C800F5E6AF229200A15C1E00002900D1EEE6AA
:1057D8000023A354A8239B00E01800F0D9F9E6E6BB
:1057E800294BE35C002B00D1DCE69F229200A15CF0
:1057F8001E00002900D1D5E60023A35498239B005E
:10580800E01800F0C5F9CDE6204BE35C002B00D191
:10581800C3E68F229200A15C1E00002900D1BCE6DD
:105828000023A35488239B00E01800F0B1F9B4E6E4
:105838000000115000400540C4390020BC39002048
:105848003B0200007B020000BB020000FB020000DC
:105858003B0300007B030000BB030000FB030000C8
:10586800FD3E0020003011501000020000001050D2
:10587800BA030000FA0300007A0300003A030000AC
:10588800FA020000BA0200007A0200003A020000A0
:10589800F933FF33E35C002B00D179E6FE22520096
:1058A800A15C1E00002900D172E620000023E1302F
:1058B800A354FF3000F06CF96AE6B933FF33E35CB8
:1058C800002B00D15EE6DE225200A15C1E000029FA
:1058D80000D157E620000023A130A354FF3000F088
:1058E80057F94FE67933FF33E35C002B00D143E6E9
:1058F800BE225200A15C1E00002900D13CE6200017
:1059080000236130A354FF3000F042F934E6393304
:10591800FF33E35C002B00D128E69E225200A15CF5
:105928001E00002900D121E6200000232130A354C5
:10593800FF3000F02DF919E6F833E35C002B00D1B5
:105948000EE6FC22A15C1E00002900D108E6002317
:105958002000A354E03000F01BF901E6B833E35C03
:10596800002B00D1F7E5BC22A15C1E00002900D164
:10597800F1E500232000A354A03000F009F9EAE57E
:105988007833E35C002B00D1E0E57C22A15C1E00AB
:10599800002900D1DAE500232000A354603000F08C
:1059A800F7F8D3E50F4BE35C002B00D118E6FF2393
:1059B8009B00E25C002A00D11DE60022E2541C3B59
:1059C800E01800F0E5F816E60022E254E8239B0010
:1059D800E01800F0DDF8A8E621000348694000F06F
:1059E8005BFAC046FA030000504F0010084A030053
:1059F800126C0020920703D49A78D209012A00D0A9
:105A08007047D87E023843425841C0B2F8E7C046D2
:105A18000000115010B5FFF7E9FF00280CD0074926
:105A2800074B8C46074A9B6A126863449B1A0020FE
:105A3800C6229A424041C0B210BDC046E0FCFFFFFA
:105A480000400540BC390020F8B5028B838A040069
:105A58000F00161C9A4200D91E1C8025B6B29B1B4B
:105A6800E2789BB2ED00A3823543002A02D090254C
:105A7800AD01354301214A40E2706278002A09D01D
:105A8800002B02D18023DB011D43002F00D02D0401
:105A98002800F8BDE368B8019C46320060442169DB
:105AA80000F01AFA23699C46802366441B021D43B2
:105AB8002661A38AE4E7C046836870B504001D68C0
:105AC800002900D02D0C6378AD05AD0D002B09D150
